{
  "contractName": "Registration",
  "abi": [
    {
      "inputs": [],
      "stateMutability": "nonpayable",
      "type": "constructor"
    },
    {
      "inputs": [],
      "name": "verifier",
      "outputs": [
        {
          "internalType": "contract Verifier",
          "name": "",
          "type": "address"
        }
      ],
      "stateMutability": "view",
      "type": "function"
    },
    {
      "inputs": [
        {
          "internalType": "uint256",
          "name": "ax",
          "type": "uint256"
        },
        {
          "internalType": "uint256",
          "name": "ay",
          "type": "uint256"
        },
        {
          "internalType": "uint256",
          "name": "bx0",
          "type": "uint256"
        },
        {
          "internalType": "uint256",
          "name": "bx1",
          "type": "uint256"
        },
        {
          "internalType": "uint256",
          "name": "by0",
          "type": "uint256"
        },
        {
          "internalType": "uint256",
          "name": "by1",
          "type": "uint256"
        },
        {
          "internalType": "uint256",
          "name": "cx",
          "type": "uint256"
        },
        {
          "internalType": "uint256",
          "name": "cy",
          "type": "uint256"
        }
      ],
      "name": "register",
      "outputs": [
        {
          "internalType": "bool",
          "name": "",
          "type": "bool"
        }
      ],
      "stateMutability": "view",
      "type": "function"
    },
    {
      "inputs": [
        {
          "internalType": "uint256",
          "name": "ax",
          "type": "uint256"
        },
        {
          "internalType": "uint256",
          "name": "ay",
          "type": "uint256"
        },
        {
          "internalType": "uint256",
          "name": "bx0",
          "type": "uint256"
        },
        {
          "internalType": "uint256",
          "name": "bx1",
          "type": "uint256"
        },
        {
          "internalType": "uint256",
          "name": "by0",
          "type": "uint256"
        },
        {
          "internalType": "uint256",
          "name": "by1",
          "type": "uint256"
        },
        {
          "internalType": "uint256",
          "name": "cx",
          "type": "uint256"
        },
        {
          "internalType": "uint256",
          "name": "cy",
          "type": "uint256"
        }
      ],
      "name": "getProof",
      "outputs": [
        {
          "components": [
            {
              "components": [
                {
                  "internalType": "uint256",
                  "name": "X",
                  "type": "uint256"
                },
                {
                  "internalType": "uint256",
                  "name": "Y",
                  "type": "uint256"
                }
              ],
              "internalType": "struct Pairing.G1Point",
              "name": "a",
              "type": "tuple"
            },
            {
              "components": [
                {
                  "internalType": "uint256[2]",
                  "name": "X",
                  "type": "uint256[2]"
                },
                {
                  "internalType": "uint256[2]",
                  "name": "Y",
                  "type": "uint256[2]"
                }
              ],
              "internalType": "struct Pairing.G2Point",
              "name": "b",
              "type": "tuple"
            },
            {
              "components": [
                {
                  "internalType": "uint256",
                  "name": "X",
                  "type": "uint256"
                },
                {
                  "internalType": "uint256",
                  "name": "Y",
                  "type": "uint256"
                }
              ],
              "internalType": "struct Pairing.G1Point",
              "name": "c",
              "type": "tuple"
            }
          ],
          "internalType": "struct Verifier.Proof",
          "name": "proof",
          "type": "tuple"
        }
      ],
      "stateMutability": "pure",
      "type": "function"
    }
  ],
  "bytecode": "0x608060405234801561001057600080fd5b5060405161001d9061007e565b604051809103906000f080158015610039573d6000803e3d6000fd5b506000806101000a81548173ffffffffffffffffffffffffffffffffffffffff021916908373ffffffffffffffffffffffffffffffffffffffff16021790555061008b565b611936806107cc83390190565b6107328061009a6000396000f3fe608060405234801561001057600080fd5b50600436106100415760003560e01c80632b7ac3f31461004657806384104be914610064578063fb5a4d3b14610094575b600080fd5b61004e6100c4565b60405161005b91906105df565b60405180910390f35b61007e60048036038101906100799190610395565b6100e8565b60405161008b919061061a565b60405180910390f35b6100ae60048036038101906100a99190610395565b610194565b6040516100bb91906105c4565b60405180910390f35b60008054906101000a900473ffffffffffffffffffffffffffffffffffffffff1681565b6100f06102ad565b6100f86102e0565b6101006102fa565b6101086102e0565b8b8360000181815250508a83602001818152505060405180604001604052808b81526020018a81525082600001819052506040518060400160405280898152602001888152508260200181905250858160000181815250508481602001818152505082846000018190525081846020018190525080846040018190525050505098975050505050505050565b6000806101a78a8a8a8a8a8a8a8a6100e8565b905060008054906101000a900473ffffffffffffffffffffffffffffffffffffffff1673ffffffffffffffffffffffffffffffffffffffff1663f6af0311826040518263ffffffff1660e01b8152600401610202919061061a565b60206040518083038186803b15801561021a57600080fd5b505afa92505050801561024b57506040513d601f19601f82011682018060405250810190610248919061036c565b60015b61029a576000610290576040517f08c379a0000000000000000000000000000000000000000000000000000000008152600401610287906105fa565b60405180910390fd5b60009150506102a1565b5060019150505b98975050505050505050565b60405180606001604052806102c06102e0565b81526020016102cd6102fa565b81526020016102da6102e0565b81525090565b604051806040016040528060008152602001600081525090565b604051806040016040528061030d610320565b815260200161031a610320565b81525090565b6040518060400160405280600290602082028036833780820191505090505090565b600081519050610351816106ce565b92915050565b600081359050610366816106e5565b92915050565b60006020828403121561037e57600080fd5b600061038c84828501610342565b91505092915050565b600080600080600080600080610100898b0312156103b257600080fd5b60006103c08b828c01610357565b98505060206103d18b828c01610357565b97505060406103e28b828c01610357565b96505060606103f38b828c01610357565b95505060806104048b828c01610357565b94505060a06104158b828c01610357565b93505060c06104268b828c01610357565b92505060e06104378b828c01610357565b9150509295985092959890939650565b600061045383836105b5565b60208301905092915050565b61046881610640565b6104728184610658565b925061047d82610636565b8060005b838110156104ae5781516104958782610447565b96506104a08361064b565b925050600181019050610481565b505050505050565b6104bf81610674565b82525050565b6104ce816106aa565b82525050565b60006104e1601483610663565b91507f54686520766f74657220697320696e76616c69640000000000000000000000006000830152602082019050919050565b60408201600082015161052a60008501826105b5565b50602082015161053d60208501826105b5565b50505050565b608082016000820151610559600085018261045f565b50602082015161056c604085018261045f565b50505050565b610100820160008201516105896000850182610514565b50602082015161059c6040850182610543565b5060408201516105af60c0850182610514565b50505050565b6105be816106a0565b82525050565b60006020820190506105d960008301846104b6565b92915050565b60006020820190506105f460008301846104c5565b92915050565b60006020820190508181036000830152610613816104d4565b9050919050565b6000610100820190506106306000830184610572565b92915050565b6000819050919050565b600060029050919050565b6000602082019050919050565b600081905092915050565b600082825260208201905092915050565b60008115159050919050565b600073ffffffffffffffffffffffffffffffffffffffff82169050919050565b6000819050919050565b60006106b5826106bc565b9050919050565b60006106c782610680565b9050919050565b6106d781610674565b81146106e257600080fd5b50565b6106ee816106a0565b81146106f957600080fd5b5056fea26469706673582212203adeb541ec582ff331bcb9f1842ab75e6aedd34afbb0b8136b42dfd188d45afa64736f6c63430008000033608060405234801561001057600080fd5b50611916806100206000396000f3fe608060405234801561001057600080fd5b506004361061002b5760003560e01c8063f6af031114610030575b600080fd5b61004a6004803603810190610045919061161d565b610060565b6040516100579190611656565b60405180910390f35b600080600067ffffffffffffffff8111156100a4577f4e487b7100000000000000000000000000000000000000000000000000000000600052604160045260246000fd5b6040519080825280602002602001820160405280156100d25781602001602082028036833780820191505090505b50905060006100e182856100fc565b14156100f15760019150506100f7565b60009150505b919050565b6000807f30644e72e131a029b85045b68181585d2833e84879b9709143e1f593f00000019050600061012c61032b565b90508060800151516001865161014291906116c8565b1461014c57600080fd5b60006040518060400160405280600081526020016000815250905060005b865181101561027757838782815181106101ad577f4e487b7100000000000000000000000000000000000000000000000000000000600052603260045260246000fd5b6020026020010151106101bf57600080fd5b6102628261025d85608001516001856101d891906116c8565b8151811061020f577f4e487b7100000000000000000000000000000000000000000000000000000000600052603260045260246000fd5b60200260200101518a8581518110610250577f4e487b7100000000000000000000000000000000000000000000000000000000600052603260045260246000fd5b6020026020010151610703565b61081c565b9150808061026f906117c2565b91505061016a565b506102c78183608001516000815181106102ba577f4e487b7100000000000000000000000000000000000000000000000000000000600052603260045260246000fd5b602002602001015161081c565b905061030d856000015186602001516102df84610981565b85604001516102f18a60400151610981565b87606001516103038960000151610981565b8960200151610a26565b61031d5760019350505050610325565b600093505050505b92915050565b610333611376565b60405180604001604052807f079782f198bcd5c67362061c17dff0d0b5f89525bedf1aa322bac9548a6d91d381526020017f01bb61487a7f4f114eb25db93d7891902e472bc0076928ddeb3661452f65353e8152508160000181905250604051806040016040528060405180604001604052807f23a5c0ae79401eef207a341df685539229a9d3859aaf0c71ebb42e160d4b97c481526020017f040c87023189a2df7284669851c2901d10829c49e6e0712071ec22d074131ac9815250815260200160405180604001604052807f2167675c6c30cc1e6564e5210885a2c5cafdc82331e2f15578a629ebfcd3a0e181526020017f1c7508a38f9a2fc88e09128b7c58fb37eff2ad5a1c40aed2082754c344c8882d8152508152508160200181905250604051806040016040528060405180604001604052807f1486619254389ba855e21a02cf3f70ae70ac75deeaf40d75b349ccba1085077181526020017f26cfa1af84607dff6d05085fd3b338a838cb737bc6c2220c418ab7e003863733815250815260200160405180604001604052807f2b495a8fc3c15e8b8aaefbf1426066aa06103c1863e8aabec9124130f1920bf681526020017f2644d9bf50a0b913eedeb556279e9edba181788b55e15ce834cefedc53b48f568152508152508160400181905250604051806040016040528060405180604001604052807f216056bfff8b4ac51c0e33b7ae59c58cfb4af2f668a28a5cfb2be278e458eaef81526020017f2dc2721cd65c5964d2f173a8c506ea44612035c5632273f9337cb50563bd961a815250815260200160405180604001604052807f0b3144778c2af58531466bbce3b28d42ef8c2cc9030986a3b0c87ac23a05fedb81526020017f12fe5cb88663e628d751125833960c7597de6a105ed798dc40471e32df473ec58152508152508160600181905250600167ffffffffffffffff811115610620577f4e487b7100000000000000000000000000000000000000000000000000000000600052604160045260246000fd5b60405190808252806020026020018201604052801561065957816020015b6106466113bd565b81526020019060019003908161063e5790505b50816080018190525060405180604001604052807f090bed466b3c56a926214e386b15c097524d12e37a968caa36b6f9c12dc9eac681526020017f19dfb8909346fcf678cdf65d4ec1ccdbb0da656829de458c68471db30e8f92f381525081608001516000815181106106f5577f4e487b7100000000000000000000000000000000000000000000000000000000600052603260045260246000fd5b602002602001018190525090565b61070b6113bd565b6107136113d7565b836000015181600060038110610752577f4e487b7100000000000000000000000000000000000000000000000000000000600052603260045260246000fd5b60200201818152505083602001518160016003811061079a577f4e487b7100000000000000000000000000000000000000000000000000000000600052603260045260246000fd5b60200201818152505082816002600381106107de577f4e487b7100000000000000000000000000000000000000000000000000000000600052603260045260246000fd5b602002018181525050600060608360808460076107d05a03fa9050806000811461080757610809565bfe5b508061081457600080fd5b505092915050565b6108246113bd565b61082c6113f9565b83600001518160006004811061086b577f4e487b7100000000000000000000000000000000000000000000000000000000600052603260045260246000fd5b6020020181815250508360200151816001600481106108b3577f4e487b7100000000000000000000000000000000000000000000000000000000600052603260045260246000fd5b6020020181815250508260000151816002600481106108fb577f4e487b7100000000000000000000000000000000000000000000000000000000600052603260045260246000fd5b602002018181525050826020015181600360048110610943577f4e487b7100000000000000000000000000000000000000000000000000000000600052603260045260246000fd5b602002018181525050600060608360c08460066107d05a03fa9050806000811461096c5761096e565bfe5b508061097957600080fd5b505092915050565b6109896113bd565b60007f30644e72e131a029b85045b68181585d97816a916871ca8d3c208c16d87cfd479050600083600001511480156109c6575060008360200151145b156109ea576040518060400160405280600081526020016000815250915050610a21565b604051806040016040528084600001518152602001828560200151610a0f919061180b565b83610a1a9190611778565b8152509150505b919050565b600080600467ffffffffffffffff811115610a6a577f4e487b7100000000000000000000000000000000000000000000000000000000600052604160045260246000fd5b604051908082528060200260200182016040528015610aa357816020015b610a906113bd565b815260200190600190039081610a885790505b5090506000600467ffffffffffffffff811115610ae9577f4e487b7100000000000000000000000000000000000000000000000000000000600052604160045260246000fd5b604051908082528060200260200182016040528015610b2257816020015b610b0f61141b565b815260200190600190039081610b075790505b5090508a82600081518110610b60577f4e487b7100000000000000000000000000000000000000000000000000000000600052603260045260246000fd5b60200260200101819052508882600181518110610ba6577f4e487b7100000000000000000000000000000000000000000000000000000000600052603260045260246000fd5b60200260200101819052508682600281518110610bec577f4e487b7100000000000000000000000000000000000000000000000000000000600052603260045260246000fd5b60200260200101819052508482600381518110610c32577f4e487b7100000000000000000000000000000000000000000000000000000000600052603260045260246000fd5b60200260200101819052508981600081518110610c78577f4e487b7100000000000000000000000000000000000000000000000000000000600052603260045260246000fd5b60200260200101819052508781600181518110610cbe577f4e487b7100000000000000000000000000000000000000000000000000000000600052603260045260246000fd5b60200260200101819052508581600281518110610d04577f4e487b7100000000000000000000000000000000000000000000000000000000600052603260045260246000fd5b60200260200101819052508381600381518110610d4a577f4e487b7100000000000000000000000000000000000000000000000000000000600052603260045260246000fd5b6020026020010181905250610d5f8282610d6f565b9250505098975050505050505050565b60008151835114610d7f57600080fd5b6000835190506000600682610d94919061171e565b905060008167ffffffffffffffff811115610dd8577f4e487b7100000000000000000000000000000000000000000000000000000000600052604160045260246000fd5b604051908082528060200260200182016040528015610e065781602001602082028036833780820191505090505b50905060005b838110156112eb57868181518110610e4d577f4e487b7100000000000000000000000000000000000000000000000000000000600052603260045260246000fd5b602002602001015160000151826000600684610e69919061171e565b610e7391906116c8565b81518110610eaa577f4e487b7100000000000000000000000000000000000000000000000000000000600052603260045260246000fd5b602002602001018181525050868181518110610eef577f4e487b7100000000000000000000000000000000000000000000000000000000600052603260045260246000fd5b602002602001015160200151826001600684610f0b919061171e565b610f1591906116c8565b81518110610f4c577f4e487b7100000000000000000000000000000000000000000000000000000000600052603260045260246000fd5b602002602001018181525050858181518110610f91577f4e487b7100000000000000000000000000000000000000000000000000000000600052603260045260246000fd5b602002602001015160000151600160028110610fd6577f4e487b7100000000000000000000000000000000000000000000000000000000600052603260045260246000fd5b6020020151826002600684610feb919061171e565b610ff591906116c8565b8151811061102c577f4e487b7100000000000000000000000000000000000000000000000000000000600052603260045260246000fd5b602002602001018181525050858181518110611071577f4e487b7100000000000000000000000000000000000000000000000000000000600052603260045260246000fd5b6020026020010151600001516000600281106110b6577f4e487b7100000000000000000000000000000000000000000000000000000000600052603260045260246000fd5b60200201518260036006846110cb919061171e565b6110d591906116c8565b8151811061110c577f4e487b7100000000000000000000000000000000000000000000000000000000600052603260045260246000fd5b602002602001018181525050858181518110611151577f4e487b7100000000000000000000000000000000000000000000000000000000600052603260045260246000fd5b602002602001015160200151600160028110611196577f4e487b7100000000000000000000000000000000000000000000000000000000600052603260045260246000fd5b60200201518260046006846111ab919061171e565b6111b591906116c8565b815181106111ec577f4e487b7100000000000000000000000000000000000000000000000000000000600052603260045260246000fd5b602002602001018181525050858181518110611231577f4e487b7100000000000000000000000000000000000000000000000000000000600052603260045260246000fd5b602002602001015160200151600060028110611276577f4e487b7100000000000000000000000000000000000000000000000000000000600052603260045260246000fd5b602002015182600560068461128b919061171e565b61129591906116c8565b815181106112cc577f4e487b7100000000000000000000000000000000000000000000000000000000600052603260045260246000fd5b60200260200101818152505080806112e3906117c2565b915050610e0c565b506112f4611441565b6000602082602086026020860160086107d05a03fa905080600081146113195761131b565bfe5b508061132657600080fd5b600082600060018110611362577f4e487b7100000000000000000000000000000000000000000000000000000000600052603260045260246000fd5b602002015114159550505050505092915050565b6040518060a001604052806113896113bd565b815260200161139661141b565b81526020016113a361141b565b81526020016113b061141b565b8152602001606081525090565b604051806040016040528060008152602001600081525090565b6040518060600160405280600390602082028036833780820191505090505090565b6040518060800160405280600490602082028036833780820191505090505090565b604051806040016040528061142e611463565b815260200161143b611463565b81525090565b6040518060200160405280600190602082028036833780820191505090505090565b6040518060400160405280600290602082028036833780820191505090505090565b6000611498611493846116a2565b611671565b905080828560208602820111156114ae57600080fd5b60005b858110156114de57816114c48882611608565b8452602084019350602083019250506001810190506114b1565b5050509392505050565b600082601f8301126114f957600080fd5b6002611506848285611485565b91505092915050565b60006040828403121561152157600080fd5b61152b6040611671565b9050600061153b84828501611608565b600083015250602061154f84828501611608565b60208301525092915050565b60006080828403121561156d57600080fd5b6115776040611671565b90506000611587848285016114e8565b600083015250604061159b848285016114e8565b60208301525092915050565b600061010082840312156115ba57600080fd5b6115c46060611671565b905060006115d48482850161150f565b60008301525060406115e88482850161155b565b60208301525060c06115fc8482850161150f565b60408301525092915050565b600081359050611617816118c9565b92915050565b6000610100828403121561163057600080fd5b600061163e848285016115a7565b91505092915050565b611650816117ac565b82525050565b600060208201905061166b6000830184611647565b92915050565b6000604051905081810181811067ffffffffffffffff821117156116985761169761189a565b5b8060405250919050565b600067ffffffffffffffff8211156116bd576116bc61189a565b5b602082029050919050565b60006116d3826117b8565b91506116de836117b8565b9250827fffffffffffffffffffffffffffffffffffffffffffffffffffffffffffffffff038211156117135761171261183c565b5b828201905092915050565b6000611729826117b8565b9150611734836117b8565b9250817fffffffffffffffffffffffffffffffffffffffffffffffffffffffffffffffff048311821515161561176d5761176c61183c565b5b828202905092915050565b6000611783826117b8565b915061178e836117b8565b9250828210156117a1576117a061183c565b5b828203905092915050565b60008115159050919050565b6000819050919050565b60006117cd826117b8565b91507fffffffffffffffffffffffffffffffffffffffffffffffffffffffffffffffff821415611800576117ff61183c565b5b600182019050919050565b6000611816826117b8565b9150611821836117b8565b9250826118315761183061186b565b5b828206905092915050565b7f4e487b7100000000000000000000000000000000000000000000000000000000600052601160045260246000fd5b7f4e487b7100000000000000000000000000000000000000000000000000000000600052601260045260246000fd5b7f4e487b7100000000000000000000000000000000000000000000000000000000600052604160045260246000fd5b6118d2816117b8565b81146118dd57600080fd5b5056fea26469706673582212200e4987657cffbf790e4155fe9e3674f44a41cc7fb9ff35e895d748e9159ce31764736f6c63430008000033",
  "immutableReferences": {},
  "source": "//Because Ethereum is an open source project, the first line shows the contracts open source license.\r\n//The second line specifies the Solidity version necessary to execute this contract.\r\n\r\nimport './Verifier.sol';\r\n\r\n// SPDX-License-Identifier: GPL-3.0\r\npragma solidity >=0.8.0;\r\n\r\ncontract Registration {\r\n    Verifier public verifier;\r\n\r\n    constructor(){\r\n        verifier = new Verifier();\r\n    }\r\n \r\n    function register(uint256 ax, uint256 ay, uint256 bx0, uint256 bx1, uint256 by0, uint256 by1, uint256 cx, uint256 cy) public view returns (bool){\r\n        //todo: check the args\r\n\r\n        // Use ZKP to proove the voter is in the appropriate voters list\r\n        Verifier.Proof memory proof= getProof(ax, ay, bx0, bx1, by0, by1, cx, cy);\r\n            \r\n        try verifier.verifyTx(proof) \r\n        {\r\n            return true;\r\n        }\r\n        catch\r\n        {\r\n            require(false, \"The voter is invalid\");\r\n            return false;\r\n        }\r\n    }\r\n \r\n    //private functions\r\n    function getProof(uint256 ax, uint256 ay, uint256 bx0, uint256 bx1, uint256 by0, uint256 by1, uint256 cx, uint256 cy) public pure returns (Verifier.Proof memory proof) {\r\n        Pairing.G1Point memory a;\r\n        Pairing.G2Point memory b;\r\n        Pairing.G1Point memory c;\r\n\r\n        a.X = ax;\r\n        a.Y = ay;\r\n\r\n        b.X = [bx0,bx1];\r\n        b.Y = [by0,by1];\r\n\r\n        c.X = cx;\r\n        c.Y = cy;\r\n\r\n        proof.a = a;\r\n        proof.b = b;\r\n        proof.c = c;\r\n\r\n        return proof;\r\n    }\r\n}",
  "sourcePath": "D:\\Master\\Dizertatie\\workspace\\BlockchainVotingApp\\SmartContracts\\10_Bomb\\registration\\contracts\\Registration.sol",
  "compiler": {
    "name": "solc",
    "version": "0.8.0+commit.c7dfd78e.Emscripten.clang"
  },
  "schemaVersion": "3.4.16",
  "updatedAt": "2024-02-04T19:51:48.029Z",
  "devdoc": {
    "kind": "dev",
    "methods": {},
    "version": 1
  },
  "userdoc": {
    "kind": "user",
    "methods": {},
    "version": 1
  }
}