{
  "contractName": "Election",
  "abi": [
    {
      "inputs": [],
      "stateMutability": "nonpayable",
      "type": "constructor"
    },
    {
      "inputs": [],
      "name": "IsUpcomingElection",
      "outputs": [
        {
          "internalType": "bool",
          "name": "",
          "type": "bool"
        }
      ],
      "stateMutability": "view",
      "type": "function"
    },
    {
      "inputs": [
        {
          "internalType": "uint256",
          "name": "",
          "type": "uint256"
        }
      ],
      "name": "candidates",
      "outputs": [
        {
          "internalType": "bool",
          "name": "",
          "type": "bool"
        }
      ],
      "stateMutability": "view",
      "type": "function"
    },
    {
      "inputs": [
        {
          "internalType": "uint256",
          "name": "",
          "type": "uint256"
        }
      ],
      "name": "candidatesVotesCount",
      "outputs": [
        {
          "internalType": "uint256",
          "name": "",
          "type": "uint256"
        }
      ],
      "stateMutability": "view",
      "type": "function"
    },
    {
      "inputs": [
        {
          "internalType": "uint256",
          "name": "",
          "type": "uint256"
        }
      ],
      "name": "usersVoted",
      "outputs": [
        {
          "internalType": "bool",
          "name": "",
          "type": "bool"
        }
      ],
      "stateMutability": "view",
      "type": "function"
    },
    {
      "inputs": [],
      "name": "verifier",
      "outputs": [
        {
          "internalType": "contract Verifier",
          "name": "",
          "type": "address"
        }
      ],
      "stateMutability": "view",
      "type": "function"
    },
    {
      "inputs": [
        {
          "internalType": "uint256",
          "name": "",
          "type": "uint256"
        }
      ],
      "name": "votes",
      "outputs": [
        {
          "internalType": "uint256",
          "name": "",
          "type": "uint256"
        }
      ],
      "stateMutability": "view",
      "type": "function"
    },
    {
      "inputs": [],
      "name": "votesCount",
      "outputs": [
        {
          "internalType": "uint256",
          "name": "",
          "type": "uint256"
        }
      ],
      "stateMutability": "view",
      "type": "function"
    },
    {
      "inputs": [
        {
          "internalType": "uint256",
          "name": "candidateId",
          "type": "uint256"
        }
      ],
      "name": "addCandidate",
      "outputs": [],
      "stateMutability": "nonpayable",
      "type": "function"
    },
    {
      "inputs": [
        {
          "internalType": "uint256",
          "name": "candidateId",
          "type": "uint256"
        }
      ],
      "name": "getCandidateResults",
      "outputs": [
        {
          "internalType": "uint256",
          "name": "result",
          "type": "uint256"
        }
      ],
      "stateMutability": "view",
      "type": "function"
    },
    {
      "inputs": [
        {
          "internalType": "uint256",
          "name": "ax",
          "type": "uint256"
        },
        {
          "internalType": "uint256",
          "name": "ay",
          "type": "uint256"
        },
        {
          "internalType": "uint256",
          "name": "bx0",
          "type": "uint256"
        },
        {
          "internalType": "uint256",
          "name": "bx1",
          "type": "uint256"
        },
        {
          "internalType": "uint256",
          "name": "by0",
          "type": "uint256"
        },
        {
          "internalType": "uint256",
          "name": "by1",
          "type": "uint256"
        },
        {
          "internalType": "uint256",
          "name": "cx",
          "type": "uint256"
        },
        {
          "internalType": "uint256",
          "name": "cy",
          "type": "uint256"
        },
        {
          "internalType": "uint256",
          "name": "proofSha",
          "type": "uint256"
        },
        {
          "internalType": "uint256",
          "name": "candidateId",
          "type": "uint256"
        }
      ],
      "name": "castVote",
      "outputs": [
        {
          "internalType": "bool",
          "name": "",
          "type": "bool"
        }
      ],
      "stateMutability": "nonpayable",
      "type": "function"
    },
    {
      "inputs": [
        {
          "internalType": "uint256",
          "name": "proofSha",
          "type": "uint256"
        }
      ],
      "name": "getUserVote",
      "outputs": [
        {
          "internalType": "uint256",
          "name": "CandidateId",
          "type": "uint256"
        }
      ],
      "stateMutability": "view",
      "type": "function"
    },
    {
      "inputs": [
        {
          "internalType": "bool",
          "name": "electionState",
          "type": "bool"
        }
      ],
      "name": "changeElectionState",
      "outputs": [],
      "stateMutability": "nonpayable",
      "type": "function"
    },
    {
      "inputs": [
        {
          "internalType": "uint256",
          "name": "ax",
          "type": "uint256"
        },
        {
          "internalType": "uint256",
          "name": "ay",
          "type": "uint256"
        },
        {
          "internalType": "uint256",
          "name": "bx0",
          "type": "uint256"
        },
        {
          "internalType": "uint256",
          "name": "bx1",
          "type": "uint256"
        },
        {
          "internalType": "uint256",
          "name": "by0",
          "type": "uint256"
        },
        {
          "internalType": "uint256",
          "name": "by1",
          "type": "uint256"
        },
        {
          "internalType": "uint256",
          "name": "cx",
          "type": "uint256"
        },
        {
          "internalType": "uint256",
          "name": "cy",
          "type": "uint256"
        }
      ],
      "name": "getProof",
      "outputs": [
        {
          "components": [
            {
              "components": [
                {
                  "internalType": "uint256",
                  "name": "X",
                  "type": "uint256"
                },
                {
                  "internalType": "uint256",
                  "name": "Y",
                  "type": "uint256"
                }
              ],
              "internalType": "struct Pairing.G1Point",
              "name": "a",
              "type": "tuple"
            },
            {
              "components": [
                {
                  "internalType": "uint256[2]",
                  "name": "X",
                  "type": "uint256[2]"
                },
                {
                  "internalType": "uint256[2]",
                  "name": "Y",
                  "type": "uint256[2]"
                }
              ],
              "internalType": "struct Pairing.G2Point",
              "name": "b",
              "type": "tuple"
            },
            {
              "components": [
                {
                  "internalType": "uint256",
                  "name": "X",
                  "type": "uint256"
                },
                {
                  "internalType": "uint256",
                  "name": "Y",
                  "type": "uint256"
                }
              ],
              "internalType": "struct Pairing.G1Point",
              "name": "c",
              "type": "tuple"
            }
          ],
          "internalType": "struct Verifier.Proof",
          "name": "proof",
          "type": "tuple"
        }
      ],
      "stateMutability": "pure",
      "type": "function"
    }
  ],
  "bytecode": "0x60806040526001600660006101000a81548160ff02191690831515021790555034801561002b57600080fd5b5060405161003890610099565b604051809103906000f080158015610054573d6000803e3d6000fd5b506000806101000a81548173ffffffffffffffffffffffffffffffffffffffff021916908373ffffffffffffffffffffffffffffffffffffffff1602179055506100a6565b611936806115da83390190565b611525806100b56000396000f3fe608060405234801561001057600080fd5b50600436106100cf5760003560e01c806384104be91161008c5780639c85af6f116100665780639c85af6f1461024c578063aa95124f1461027c578063e844d0971461029a578063ee45e782146102b6576100cf565b806384104be9146101ce57806386194c19146101fe5780638778b27d1461022e576100cf565b80630bd4dec1146100d457806316a47c6d146101045780632b7ac3f3146101345780633477ee2e146101525780634140be86146101825780635df813301461019e575b600080fd5b6100ee60048036038101906100e99190610b9e565b6102e6565b6040516100fb9190611396565b60405180910390f35b61011e60048036038101906101199190610c79565b6102fe565b60405161012b9190611204565b60405180910390f35b61013c61064a565b604051610149919061121f565b60405180910390f35b61016c60048036038101906101679190610b9e565b61066e565b6040516101799190611204565b60405180910390f35b61019c60048036038101906101979190610b4c565b61068e565b005b6101b860048036038101906101b39190610b9e565b6106ab565b6040516101c59190611396565b60405180910390f35b6101e860048036038101906101e39190610bc7565b6106c3565b6040516101f5919061137a565b60405180910390f35b61021860048036038101906102139190610b9e565b61076f565b6040516102259190611396565b60405180910390f35b6102366107ec565b6040516102439190611396565b60405180910390f35b61026660048036038101906102619190610b9e565b6107f2565b6040516102739190611204565b60405180910390f35b610284610812565b6040516102919190611204565b60405180910390f35b6102b460048036038101906102af9190610b9e565b610825565b005b6102d060048036038101906102cb9190610b9e565b610961565b6040516102dd9190611396565b60405180910390f35b60046020528060005260406000206000915090505481565b600080821415610343576040517f08c379a000000000000000000000000000000000000000000000000000000000815260040161033a9061135a565b60405180910390fd5b600660009054906101000a900460ff1615610393576040517f08c379a000000000000000000000000000000000000000000000000000000000815260040161038a9061123a565b60405180910390fd5b6000600460008481526020019081526020016000205410156103ea576040517f08c379a00000000000000000000000000000000000000000000000000000000081526004016103e19061133a565b60405180910390fd5b6005600083815260200190815260200160002060009054906101000a900460ff1661044a576040517f08c379a00000000000000000000000000000000000000000000000000000000081526004016104419061131a565b60405180910390fd5b6003600084815260200190815260200160002060009054906101000a900460ff16156104ab576040517f08c379a00000000000000000000000000000000000000000000000000000000081526004016104a29061127a565b60405180910390fd5b60006104bd8c8c8c8c8c8c8c8c6106c3565b905060008054906101000a900473ffffffffffffffffffffffffffffffffffffffff1673ffffffffffffffffffffffffffffffffffffffff1663f6af0311826040518263ffffffff1660e01b8152600401610518919061137a565b60206040518083038186803b15801561053057600080fd5b505afa92505050801561056157506040513d601f19601f8201168201806040525081019061055e9190610b75565b60015b6105b05760006105a6576040517f08c379a000000000000000000000000000000000000000000000000000000000815260040161059d9061129a565b60405180910390fd5b600091505061063c565b5082600260008681526020019081526020016000208190555060016003600086815260200190815260200160002060006101000a81548160ff02191690831515021790555060046000848152602001908152602001600020600081548092919061061990611449565b91905055506001600081548092919061063190611449565b919050555060019150505b9a9950505050505050505050565b60008054906101000a900473ffffffffffffffffffffffffffffffffffffffff1681565b60056020528060005260406000206000915054906101000a900460ff1681565b80600660006101000a81548160ff02191690831515021790555050565b60026020528060005260406000206000915090505481565b6106cb610a78565b6106d3610aab565b6106db610ac5565b6106e3610aab565b8b8360000181815250508a83602001818152505060405180604001604052808b81526020018a81525082600001819052506040518060400160405280898152602001888152508260200181905250858160000181815250508481602001818152505082846000018190525081846020018190525080846040018190525050505098975050505050505050565b60006003600083815260200190815260200160002060009054906101000a900460ff166107d1576040517f08c379a00000000000000000000000000000000000000000000000000000000081526004016107c8906112ba565b60405180910390fd5b60026000838152602001908152602001600020549050919050565b60015481565b60036020528060005260406000206000915054906101000a900460ff1681565b600660009054906101000a900460ff1681565b6000811415610869576040517f08c379a00000000000000000000000000000000000000000000000000000000081526004016108609061125a565b60405180910390fd5b600660009054906101000a900460ff166108b8576040517f08c379a00000000000000000000000000000000000000000000000000000000081526004016108af906112fa565b60405180910390fd5b6005600082815260200190815260200160002060009054906101000a900460ff1615610919576040517f08c379a0000000000000000000000000000000000000000000000000000000008152600401610910906112da565b60405180910390fd5b6000600460008381526020019081526020016000208190555060016005600083815260200190815260200160002060006101000a81548160ff02191690831515021790555050565b6000808214156109a6576040517f08c379a000000000000000000000000000000000000000000000000000000000815260040161099d9061125a565b60405180910390fd5b6000600460008481526020019081526020016000205410156109fd576040517f08c379a00000000000000000000000000000000000000000000000000000000081526004016109f49061133a565b60405180910390fd5b6005600083815260200190815260200160002060009054906101000a900460ff16610a5d576040517f08c379a0000000000000000000000000000000000000000000000000000000008152600401610a549061131a565b60405180910390fd5b60046000838152602001908152602001600020549050919050565b6040518060600160405280610a8b610aab565b8152602001610a98610ac5565b8152602001610aa5610aab565b81525090565b604051806040016040528060008152602001600081525090565b6040518060400160405280610ad8610aeb565b8152602001610ae5610aeb565b81525090565b6040518060400160405280600290602082028036833780820191505090505090565b600081359050610b1c816114c1565b92915050565b600081519050610b31816114c1565b92915050565b600081359050610b46816114d8565b92915050565b600060208284031215610b5e57600080fd5b6000610b6c84828501610b0d565b91505092915050565b600060208284031215610b8757600080fd5b6000610b9584828501610b22565b91505092915050565b600060208284031215610bb057600080fd5b6000610bbe84828501610b37565b91505092915050565b600080600080600080600080610100898b031215610be457600080fd5b6000610bf28b828c01610b37565b9850506020610c038b828c01610b37565b9750506040610c148b828c01610b37565b9650506060610c258b828c01610b37565b9550506080610c368b828c01610b37565b94505060a0610c478b828c01610b37565b93505060c0610c588b828c01610b37565b92505060e0610c698b828c01610b37565b9150509295985092959890939650565b6000806000806000806000806000806101408b8d031215610c9957600080fd5b6000610ca78d828e01610b37565b9a50506020610cb88d828e01610b37565b9950506040610cc98d828e01610b37565b9850506060610cda8d828e01610b37565b9750506080610ceb8d828e01610b37565b96505060a0610cfc8d828e01610b37565b95505060c0610d0d8d828e01610b37565b94505060e0610d1e8d828e01610b37565b935050610100610d308d828e01610b37565b925050610120610d428d828e01610b37565b9150509295989b9194979a5092959850565b6000610d6083836111e6565b60208301905092915050565b610d75816113bb565b610d7f81846113d3565b9250610d8a826113b1565b8060005b83811015610dbb578151610da28782610d54565b9650610dad836113c6565b925050600181019050610d8e565b505050505050565b610dcc816113ef565b82525050565b610ddb81611425565b82525050565b6000610dee6030836113de565b91507f54686520656c656374696f6e206973207374696c6c207570636f6d696e672c2060008301527f796f752063616e6e6f7420766f746521000000000000000000000000000000006020830152604082019050919050565b6000610e546018836113de565b91507f5468652063616e646964617465206964206973206e756c6c00000000000000006000830152602082019050919050565b6000610e94601b836113de565b91507f54686520757365722063616e20766f7465206f6e6c79206f6e636500000000006000830152602082019050919050565b6000610ed46014836113de565b91507f54686520766f74657220697320696e76616c69640000000000000000000000006000830152602082019050919050565b6000610f14602b836113de565b91507f4b657920646f6573206e6f74206578697374732e20546865207573657220686160008301527f73206e6f7420766f7465640000000000000000000000000000000000000000006020830152604082019050919050565b6000610f7a6024836113de565b91507f5468652063616e6469646174652068617320616c7265616479206265656e206160008301527f64646564000000000000000000000000000000000000000000000000000000006020830152604082019050919050565b6000610fe06036836113de565b91507f54686520656c656374696f6e2073686f756c64206265207570636f6d696e672060008301527f696e206f7264657220746f206265206368616e676564000000000000000000006020830152604082019050919050565b60006110466037836113de565b91507f5468652063616e6469646174652068617320746f20626520696e20746865206560008301527f6c656374696f6e2063616e64696461746573206c6973740000000000000000006020830152604082019050919050565b60006110ac6038836113de565b91507f5468652063616e6469646174652068617320746f20626520696e20746865206360008301527f616e64696461746573566f746573436f756e74206c69737400000000000000006020830152604082019050919050565b60006111126017836113de565b91507f5468652063616e6469646174654964206973206e756c6c0000000000000000006000830152602082019050919050565b60408201600082015161115b60008501826111e6565b50602082015161116e60208501826111e6565b50505050565b60808201600082015161118a6000850182610d6c565b50602082015161119d6040850182610d6c565b50505050565b610100820160008201516111ba6000850182611145565b5060208201516111cd6040850182611174565b5060408201516111e060c0850182611145565b50505050565b6111ef8161141b565b82525050565b6111fe8161141b565b82525050565b60006020820190506112196000830184610dc3565b92915050565b60006020820190506112346000830184610dd2565b92915050565b6000602082019050818103600083015261125381610de1565b9050919050565b6000602082019050818103600083015261127381610e47565b9050919050565b6000602082019050818103600083015261129381610e87565b9050919050565b600060208201905081810360008301526112b381610ec7565b9050919050565b600060208201905081810360008301526112d381610f07565b9050919050565b600060208201905081810360008301526112f381610f6d565b9050919050565b6000602082019050818103600083015261131381610fd3565b9050919050565b6000602082019050818103600083015261133381611039565b9050919050565b600060208201905081810360008301526113538161109f565b9050919050565b6000602082019050818103600083015261137381611105565b9050919050565b60006101008201905061139060008301846111a3565b92915050565b60006020820190506113ab60008301846111f5565b92915050565b6000819050919050565b600060029050919050565b6000602082019050919050565b600081905092915050565b600082825260208201905092915050565b60008115159050919050565b600073ffffffffffffffffffffffffffffffffffffffff82169050919050565b6000819050919050565b600061143082611437565b9050919050565b6000611442826113fb565b9050919050565b60006114548261141b565b91507fffffffffffffffffffffffffffffffffffffffffffffffffffffffffffffffff82141561148757611486611492565b5b600182019050919050565b7f4e487b7100000000000000000000000000000000000000000000000000000000600052601160045260246000fd5b6114ca816113ef565b81146114d557600080fd5b50565b6114e18161141b565b81146114ec57600080fd5b5056fea2646970667358221220ffbf8d73d915a87a27e7a1efbe2de972d9f488df0a0237230caf765cf036d86a64736f6c63430008000033608060405234801561001057600080fd5b50611916806100206000396000f3fe608060405234801561001057600080fd5b506004361061002b5760003560e01c8063f6af031114610030575b600080fd5b61004a6004803603810190610045919061161d565b610060565b6040516100579190611656565b60405180910390f35b600080600067ffffffffffffffff8111156100a4577f4e487b7100000000000000000000000000000000000000000000000000000000600052604160045260246000fd5b6040519080825280602002602001820160405280156100d25781602001602082028036833780820191505090505b50905060006100e182856100fc565b14156100f15760019150506100f7565b60009150505b919050565b6000807f30644e72e131a029b85045b68181585d2833e84879b9709143e1f593f00000019050600061012c61032b565b90508060800151516001865161014291906116c8565b1461014c57600080fd5b60006040518060400160405280600081526020016000815250905060005b865181101561027757838782815181106101ad577f4e487b7100000000000000000000000000000000000000000000000000000000600052603260045260246000fd5b6020026020010151106101bf57600080fd5b6102628261025d85608001516001856101d891906116c8565b8151811061020f577f4e487b7100000000000000000000000000000000000000000000000000000000600052603260045260246000fd5b60200260200101518a8581518110610250577f4e487b7100000000000000000000000000000000000000000000000000000000600052603260045260246000fd5b6020026020010151610703565b61081c565b9150808061026f906117c2565b91505061016a565b506102c78183608001516000815181106102ba577f4e487b7100000000000000000000000000000000000000000000000000000000600052603260045260246000fd5b602002602001015161081c565b905061030d856000015186602001516102df84610981565b85604001516102f18a60400151610981565b87606001516103038960000151610981565b8960200151610a26565b61031d5760019350505050610325565b600093505050505b92915050565b610333611376565b60405180604001604052807f1e2ca49315860ef0abd62c27a6c7a592304f0717669d4eccc48ed461155978d581526020017f13c880d6ac0916720bca209eb258a5a557def6753c858a86a5d5217c965457278152508160000181905250604051806040016040528060405180604001604052807f0e9fb302d96045d332ff021a541fb352febb9b59292c842bf98c890938a80d5181526020017f2e549818dd6e51abab69ae18d77dc75fb821522f7d436dacbeb534edbd9a9aa7815250815260200160405180604001604052807f0a6025b9c7423a00ddafcd0ed0a4e85786726e601a5630f1746b73621e09cc0481526020017f1f72423880dd0b325482826704daf94ae1d7f4c08c444bbd44184135c8d7c2048152508152508160200181905250604051806040016040528060405180604001604052807f0bdc316f5a3479a0e1ffe8ba9f5f72efb1652af7d2c1b27e13b2ca8f9543fc0981526020017f1df8b84631ca89d346935f6d4ac5456544404f8574a34f02b1f93bc93c6d4c34815250815260200160405180604001604052807f30630deac90d95677fe71c16d4fc4b79608f5142b00a540f6cf8d5ae5e42c53d81526020017f148374bdb7114a56473ea2a63afbcefaef898baed29ab4227c76e0a77861df328152508152508160400181905250604051806040016040528060405180604001604052807f213e1078e5e9d9379bd4f358dabdcef9b4dca1318912acbdc1e5fccb1fd9e43381526020017f11ca227bd0f40ebba2c7eb0ea4ce6c2cbe65f1ceba3158e1b39b276c397a603a815250815260200160405180604001604052807f04ce65480e68b0977df4c1d327398da6dd2518899d64d6b299843e6c2451eb8b81526020017f04426c2a2649598e1997c07dc0a558cee800f502c3c6ed404e0e75e7b960758e8152508152508160600181905250600167ffffffffffffffff811115610620577f4e487b7100000000000000000000000000000000000000000000000000000000600052604160045260246000fd5b60405190808252806020026020018201604052801561065957816020015b6106466113bd565b81526020019060019003908161063e5790505b50816080018190525060405180604001604052807f241832945945494b699dcd65c9360eaeb305c8b37748024ce07e6caef9ea88e181526020017f0c602dca37cb077e3eecc46567b50ba28995854fdd76ee601065e35916673bdd81525081608001516000815181106106f5577f4e487b7100000000000000000000000000000000000000000000000000000000600052603260045260246000fd5b602002602001018190525090565b61070b6113bd565b6107136113d7565b836000015181600060038110610752577f4e487b7100000000000000000000000000000000000000000000000000000000600052603260045260246000fd5b60200201818152505083602001518160016003811061079a577f4e487b7100000000000000000000000000000000000000000000000000000000600052603260045260246000fd5b60200201818152505082816002600381106107de577f4e487b7100000000000000000000000000000000000000000000000000000000600052603260045260246000fd5b602002018181525050600060608360808460076107d05a03fa9050806000811461080757610809565bfe5b508061081457600080fd5b505092915050565b6108246113bd565b61082c6113f9565b83600001518160006004811061086b577f4e487b7100000000000000000000000000000000000000000000000000000000600052603260045260246000fd5b6020020181815250508360200151816001600481106108b3577f4e487b7100000000000000000000000000000000000000000000000000000000600052603260045260246000fd5b6020020181815250508260000151816002600481106108fb577f4e487b7100000000000000000000000000000000000000000000000000000000600052603260045260246000fd5b602002018181525050826020015181600360048110610943577f4e487b7100000000000000000000000000000000000000000000000000000000600052603260045260246000fd5b602002018181525050600060608360c08460066107d05a03fa9050806000811461096c5761096e565bfe5b508061097957600080fd5b505092915050565b6109896113bd565b60007f30644e72e131a029b85045b68181585d97816a916871ca8d3c208c16d87cfd479050600083600001511480156109c6575060008360200151145b156109ea576040518060400160405280600081526020016000815250915050610a21565b604051806040016040528084600001518152602001828560200151610a0f919061180b565b83610a1a9190611778565b8152509150505b919050565b600080600467ffffffffffffffff811115610a6a577f4e487b7100000000000000000000000000000000000000000000000000000000600052604160045260246000fd5b604051908082528060200260200182016040528015610aa357816020015b610a906113bd565b815260200190600190039081610a885790505b5090506000600467ffffffffffffffff811115610ae9577f4e487b7100000000000000000000000000000000000000000000000000000000600052604160045260246000fd5b604051908082528060200260200182016040528015610b2257816020015b610b0f61141b565b815260200190600190039081610b075790505b5090508a82600081518110610b60577f4e487b7100000000000000000000000000000000000000000000000000000000600052603260045260246000fd5b60200260200101819052508882600181518110610ba6577f4e487b7100000000000000000000000000000000000000000000000000000000600052603260045260246000fd5b60200260200101819052508682600281518110610bec577f4e487b7100000000000000000000000000000000000000000000000000000000600052603260045260246000fd5b60200260200101819052508482600381518110610c32577f4e487b7100000000000000000000000000000000000000000000000000000000600052603260045260246000fd5b60200260200101819052508981600081518110610c78577f4e487b7100000000000000000000000000000000000000000000000000000000600052603260045260246000fd5b60200260200101819052508781600181518110610cbe577f4e487b7100000000000000000000000000000000000000000000000000000000600052603260045260246000fd5b60200260200101819052508581600281518110610d04577f4e487b7100000000000000000000000000000000000000000000000000000000600052603260045260246000fd5b60200260200101819052508381600381518110610d4a577f4e487b7100000000000000000000000000000000000000000000000000000000600052603260045260246000fd5b6020026020010181905250610d5f8282610d6f565b9250505098975050505050505050565b60008151835114610d7f57600080fd5b6000835190506000600682610d94919061171e565b905060008167ffffffffffffffff811115610dd8577f4e487b7100000000000000000000000000000000000000000000000000000000600052604160045260246000fd5b604051908082528060200260200182016040528015610e065781602001602082028036833780820191505090505b50905060005b838110156112eb57868181518110610e4d577f4e487b7100000000000000000000000000000000000000000000000000000000600052603260045260246000fd5b602002602001015160000151826000600684610e69919061171e565b610e7391906116c8565b81518110610eaa577f4e487b7100000000000000000000000000000000000000000000000000000000600052603260045260246000fd5b602002602001018181525050868181518110610eef577f4e487b7100000000000000000000000000000000000000000000000000000000600052603260045260246000fd5b602002602001015160200151826001600684610f0b919061171e565b610f1591906116c8565b81518110610f4c577f4e487b7100000000000000000000000000000000000000000000000000000000600052603260045260246000fd5b602002602001018181525050858181518110610f91577f4e487b7100000000000000000000000000000000000000000000000000000000600052603260045260246000fd5b602002602001015160000151600160028110610fd6577f4e487b7100000000000000000000000000000000000000000000000000000000600052603260045260246000fd5b6020020151826002600684610feb919061171e565b610ff591906116c8565b8151811061102c577f4e487b7100000000000000000000000000000000000000000000000000000000600052603260045260246000fd5b602002602001018181525050858181518110611071577f4e487b7100000000000000000000000000000000000000000000000000000000600052603260045260246000fd5b6020026020010151600001516000600281106110b6577f4e487b7100000000000000000000000000000000000000000000000000000000600052603260045260246000fd5b60200201518260036006846110cb919061171e565b6110d591906116c8565b8151811061110c577f4e487b7100000000000000000000000000000000000000000000000000000000600052603260045260246000fd5b602002602001018181525050858181518110611151577f4e487b7100000000000000000000000000000000000000000000000000000000600052603260045260246000fd5b602002602001015160200151600160028110611196577f4e487b7100000000000000000000000000000000000000000000000000000000600052603260045260246000fd5b60200201518260046006846111ab919061171e565b6111b591906116c8565b815181106111ec577f4e487b7100000000000000000000000000000000000000000000000000000000600052603260045260246000fd5b602002602001018181525050858181518110611231577f4e487b7100000000000000000000000000000000000000000000000000000000600052603260045260246000fd5b602002602001015160200151600060028110611276577f4e487b7100000000000000000000000000000000000000000000000000000000600052603260045260246000fd5b602002015182600560068461128b919061171e565b61129591906116c8565b815181106112cc577f4e487b7100000000000000000000000000000000000000000000000000000000600052603260045260246000fd5b60200260200101818152505080806112e3906117c2565b915050610e0c565b506112f4611441565b6000602082602086026020860160086107d05a03fa905080600081146113195761131b565bfe5b508061132657600080fd5b600082600060018110611362577f4e487b7100000000000000000000000000000000000000000000000000000000600052603260045260246000fd5b602002015114159550505050505092915050565b6040518060a001604052806113896113bd565b815260200161139661141b565b81526020016113a361141b565b81526020016113b061141b565b8152602001606081525090565b604051806040016040528060008152602001600081525090565b6040518060600160405280600390602082028036833780820191505090505090565b6040518060800160405280600490602082028036833780820191505090505090565b604051806040016040528061142e611463565b815260200161143b611463565b81525090565b6040518060200160405280600190602082028036833780820191505090505090565b6040518060400160405280600290602082028036833780820191505090505090565b6000611498611493846116a2565b611671565b905080828560208602820111156114ae57600080fd5b60005b858110156114de57816114c48882611608565b8452602084019350602083019250506001810190506114b1565b5050509392505050565b600082601f8301126114f957600080fd5b6002611506848285611485565b91505092915050565b60006040828403121561152157600080fd5b61152b6040611671565b9050600061153b84828501611608565b600083015250602061154f84828501611608565b60208301525092915050565b60006080828403121561156d57600080fd5b6115776040611671565b90506000611587848285016114e8565b600083015250604061159b848285016114e8565b60208301525092915050565b600061010082840312156115ba57600080fd5b6115c46060611671565b905060006115d48482850161150f565b60008301525060406115e88482850161155b565b60208301525060c06115fc8482850161150f565b60408301525092915050565b600081359050611617816118c9565b92915050565b6000610100828403121561163057600080fd5b600061163e848285016115a7565b91505092915050565b611650816117ac565b82525050565b600060208201905061166b6000830184611647565b92915050565b6000604051905081810181811067ffffffffffffffff821117156116985761169761189a565b5b8060405250919050565b600067ffffffffffffffff8211156116bd576116bc61189a565b5b602082029050919050565b60006116d3826117b8565b91506116de836117b8565b9250827fffffffffffffffffffffffffffffffffffffffffffffffffffffffffffffffff038211156117135761171261183c565b5b828201905092915050565b6000611729826117b8565b9150611734836117b8565b9250817fffffffffffffffffffffffffffffffffffffffffffffffffffffffffffffffff048311821515161561176d5761176c61183c565b5b828202905092915050565b6000611783826117b8565b915061178e836117b8565b9250828210156117a1576117a061183c565b5b828203905092915050565b60008115159050919050565b6000819050919050565b60006117cd826117b8565b91507fffffffffffffffffffffffffffffffffffffffffffffffffffffffffffffffff821415611800576117ff61183c565b5b600182019050919050565b6000611816826117b8565b9150611821836117b8565b9250826118315761183061186b565b5b828206905092915050565b7f4e487b7100000000000000000000000000000000000000000000000000000000600052601160045260246000fd5b7f4e487b7100000000000000000000000000000000000000000000000000000000600052601260045260246000fd5b7f4e487b7100000000000000000000000000000000000000000000000000000000600052604160045260246000fd5b6118d2816117b8565b81146118dd57600080fd5b5056fea264697066735822122034706f619ed085562a2116d79ad375f9c684940fe0768dbbbb650c74165a109b64736f6c63430008000033",
  "immutableReferences": {},
  "source": "//Because Ethereum is an open source project, the first line shows the contracts open source license.\r\n//The second line specifies the Solidity version necessary to execute this contract.\r\n\r\nimport './Verifier.sol';\r\n\r\n// SPDX-License-Identifier: GPL-3.0\r\npragma solidity >=0.8.0;\r\n\r\ncontract Election {\r\n    Verifier public verifier;\r\n\r\n    constructor(){\r\n        verifier = new Verifier();\r\n    }\r\n\r\n    uint public votesCount;\r\n    mapping(uint256 => uint) public votes;\r\n    mapping(uint256 => bool) public usersVoted;\r\n\r\n    mapping(uint => uint) public candidatesVotesCount;\r\n    mapping(uint => bool) public candidates;\r\n\r\n    //Is the election is ongoing, changes to the election must not be made (eg. description or candidates of the election)\r\n    bool public IsUpcomingElection = true;\r\n\r\n    function addCandidate(uint candidateId) public {\r\n        require(candidateId != 0, \"The candidate id is null\");\r\n\r\n        require(IsUpcomingElection, \"The election should be upcoming in order to be changed\");\r\n\r\n        require(!candidates[candidateId], \"The candidate has already been added\");\r\n        \r\n        candidatesVotesCount[candidateId] = 0;\r\n        candidates[candidateId] = true;\r\n    }\r\n\r\n    function getCandidateResults(uint candidateId) public view returns (uint result){\r\n        require(candidateId != 0, \"The candidate id is null\");\r\n        require(candidatesVotesCount[candidateId] >= 0, \"The candidate has to be in the candidatesVotesCount list\");\r\n        require(candidates[candidateId], \"The candidate has to be in the election candidates list\");\r\n        \r\n        return candidatesVotesCount[candidateId];\r\n    }\r\n\r\n    function castVote(uint256 ax, uint256 ay, uint256 bx0, uint256 bx1, uint256 by0, uint256 by1, uint256 cx, uint256 cy, uint256 proofSha, uint candidateId) public returns (bool){\r\n        //todo: check the other args\r\n        require(candidateId != 0, \"The candidateId is null\");\r\n\r\n        //The election should be ongoing in order to voter\r\n        require(!IsUpcomingElection, \"The election is still upcoming, you cannot vote!\");\r\n \r\n        //The candidate has to be in the candidates list for the current election\r\n        require(candidatesVotesCount[candidateId] >= 0, \"The candidate has to be in the candidatesVotesCount list\");\r\n        require(candidates[candidateId], \"The candidate has to be in the election candidates list\");\r\n\r\n        require(!usersVoted[proofSha], \"The user can vote only once\");\r\n\r\n        // Use ZKP to proove the voter is in the appropriate voters list\r\n        Verifier.Proof memory proof= getProof(ax, ay, bx0, bx1, by0, by1, cx, cy);\r\n            \r\n        try verifier.verifyTx(proof) \r\n        {        \r\n            votes[proofSha] = candidateId;\r\n            usersVoted[proofSha] = true;\r\n\r\n            candidatesVotesCount[candidateId]++;\r\n            votesCount++;\r\n            return true;\r\n        }\r\n        catch\r\n        {\r\n            require(false, \"The voter is invalid\");\r\n            return false;\r\n        }\r\n    }\r\n\r\n    //Get the votes of the user\r\n    function getUserVote(uint256 proofSha) public view returns (uint CandidateId){\r\n        require(usersVoted[proofSha], \"Key does not exists. The user has not voted\");\r\n        return votes[proofSha];\r\n    }\r\n\r\n    //Check if the user has already voted (the voter is in the votes mapping)\r\n    //The function returns true if the voter has already voted, than returns false\r\n    // the purpose of this function will be modified, the user has to introduce its proof in order to check if he has voted...\r\n    // function checkUserHasVoted(uint256 proofSha) public view returns (bool) {\r\n    //     require(proofSha != 0, \"The voterId is null\");\r\n\r\n    //     if(votes[proofSha] > 0 && usersVoted[proofSha])\r\n    //         return true;\r\n    //     else\r\n    //         return false;\r\n    // }\r\n\r\n    //If the election change the state from upcoming to ungoing, set the IsUpcomingElection to true and do not let the users to made any other changes to the contract\r\n    function changeElectionState(bool electionState) public{\r\n        IsUpcomingElection = electionState;\r\n    }\r\n\r\n    //private functions\r\n    function getProof(uint256 ax, uint256 ay, uint256 bx0, uint256 bx1, uint256 by0, uint256 by1, uint256 cx, uint256 cy) public pure returns (Verifier.Proof memory proof) {\r\n        Pairing.G1Point memory a;\r\n        Pairing.G2Point memory b;\r\n        Pairing.G1Point memory c;\r\n\r\n        a.X = ax;\r\n        a.Y = ay;\r\n\r\n        b.X = [bx0,bx1];\r\n        b.Y = [by0,by1];\r\n\r\n        c.X = cx;\r\n        c.Y = cy;\r\n\r\n        proof.a = a;\r\n        proof.b = b;\r\n        proof.c = c;\r\n\r\n        return proof;\r\n    }\r\n}",
  "sourcePath": "D:\\Master\\Dizertatie\\workspace\\BlockchainVotingApp\\SmartContracts\\2_Test Nou\\voting\\contracts\\Election.sol",
  "compiler": {
    "name": "solc",
    "version": "0.8.0+commit.c7dfd78e.Emscripten.clang"
  },
  "schemaVersion": "3.4.16",
  "updatedAt": "2024-02-03T12:13:24.924Z",
  "devdoc": {
    "kind": "dev",
    "methods": {},
    "version": 1
  },
  "userdoc": {
    "kind": "user",
    "methods": {},
    "version": 1
  }
}