{
  "contractName": "Registration",
  "abi": [
    {
      "inputs": [],
      "stateMutability": "nonpayable",
      "type": "constructor"
    },
    {
      "inputs": [],
      "name": "verifier",
      "outputs": [
        {
          "internalType": "contract Verifier",
          "name": "",
          "type": "address"
        }
      ],
      "stateMutability": "view",
      "type": "function"
    },
    {
      "inputs": [
        {
          "internalType": "uint256",
          "name": "ax",
          "type": "uint256"
        },
        {
          "internalType": "uint256",
          "name": "ay",
          "type": "uint256"
        },
        {
          "internalType": "uint256",
          "name": "bx0",
          "type": "uint256"
        },
        {
          "internalType": "uint256",
          "name": "bx1",
          "type": "uint256"
        },
        {
          "internalType": "uint256",
          "name": "by0",
          "type": "uint256"
        },
        {
          "internalType": "uint256",
          "name": "by1",
          "type": "uint256"
        },
        {
          "internalType": "uint256",
          "name": "cx",
          "type": "uint256"
        },
        {
          "internalType": "uint256",
          "name": "cy",
          "type": "uint256"
        }
      ],
      "name": "register",
      "outputs": [
        {
          "internalType": "bool",
          "name": "",
          "type": "bool"
        }
      ],
      "stateMutability": "view",
      "type": "function"
    },
    {
      "inputs": [
        {
          "internalType": "uint256",
          "name": "ax",
          "type": "uint256"
        },
        {
          "internalType": "uint256",
          "name": "ay",
          "type": "uint256"
        },
        {
          "internalType": "uint256",
          "name": "bx0",
          "type": "uint256"
        },
        {
          "internalType": "uint256",
          "name": "bx1",
          "type": "uint256"
        },
        {
          "internalType": "uint256",
          "name": "by0",
          "type": "uint256"
        },
        {
          "internalType": "uint256",
          "name": "by1",
          "type": "uint256"
        },
        {
          "internalType": "uint256",
          "name": "cx",
          "type": "uint256"
        },
        {
          "internalType": "uint256",
          "name": "cy",
          "type": "uint256"
        }
      ],
      "name": "getProof",
      "outputs": [
        {
          "components": [
            {
              "components": [
                {
                  "internalType": "uint256",
                  "name": "X",
                  "type": "uint256"
                },
                {
                  "internalType": "uint256",
                  "name": "Y",
                  "type": "uint256"
                }
              ],
              "internalType": "struct Pairing.G1Point",
              "name": "a",
              "type": "tuple"
            },
            {
              "components": [
                {
                  "internalType": "uint256[2]",
                  "name": "X",
                  "type": "uint256[2]"
                },
                {
                  "internalType": "uint256[2]",
                  "name": "Y",
                  "type": "uint256[2]"
                }
              ],
              "internalType": "struct Pairing.G2Point",
              "name": "b",
              "type": "tuple"
            },
            {
              "components": [
                {
                  "internalType": "uint256",
                  "name": "X",
                  "type": "uint256"
                },
                {
                  "internalType": "uint256",
                  "name": "Y",
                  "type": "uint256"
                }
              ],
              "internalType": "struct Pairing.G1Point",
              "name": "c",
              "type": "tuple"
            }
          ],
          "internalType": "struct Verifier.Proof",
          "name": "proof",
          "type": "tuple"
        }
      ],
      "stateMutability": "pure",
      "type": "function"
    }
  ],
  "bytecode": "0x608060405234801561001057600080fd5b5060405161001d9061007e565b604051809103906000f080158015610039573d6000803e3d6000fd5b506000806101000a81548173ffffffffffffffffffffffffffffffffffffffff021916908373ffffffffffffffffffffffffffffffffffffffff16021790555061008b565b611935806107cc83390190565b6107328061009a6000396000f3fe608060405234801561001057600080fd5b50600436106100415760003560e01c80632b7ac3f31461004657806384104be914610064578063fb5a4d3b14610094575b600080fd5b61004e6100c4565b60405161005b91906105df565b60405180910390f35b61007e60048036038101906100799190610395565b6100e8565b60405161008b919061061a565b60405180910390f35b6100ae60048036038101906100a99190610395565b610194565b6040516100bb91906105c4565b60405180910390f35b60008054906101000a900473ffffffffffffffffffffffffffffffffffffffff1681565b6100f06102ad565b6100f86102e0565b6101006102fa565b6101086102e0565b8b8360000181815250508a83602001818152505060405180604001604052808b81526020018a81525082600001819052506040518060400160405280898152602001888152508260200181905250858160000181815250508481602001818152505082846000018190525081846020018190525080846040018190525050505098975050505050505050565b6000806101a78a8a8a8a8a8a8a8a6100e8565b905060008054906101000a900473ffffffffffffffffffffffffffffffffffffffff1673ffffffffffffffffffffffffffffffffffffffff1663f6af0311826040518263ffffffff1660e01b8152600401610202919061061a565b60206040518083038186803b15801561021a57600080fd5b505afa92505050801561024b57506040513d601f19601f82011682018060405250810190610248919061036c565b60015b61029a576000610290576040517f08c379a0000000000000000000000000000000000000000000000000000000008152600401610287906105fa565b60405180910390fd5b60009150506102a1565b5060019150505b98975050505050505050565b60405180606001604052806102c06102e0565b81526020016102cd6102fa565b81526020016102da6102e0565b81525090565b604051806040016040528060008152602001600081525090565b604051806040016040528061030d610320565b815260200161031a610320565b81525090565b6040518060400160405280600290602082028036833780820191505090505090565b600081519050610351816106ce565b92915050565b600081359050610366816106e5565b92915050565b60006020828403121561037e57600080fd5b600061038c84828501610342565b91505092915050565b600080600080600080600080610100898b0312156103b257600080fd5b60006103c08b828c01610357565b98505060206103d18b828c01610357565b97505060406103e28b828c01610357565b96505060606103f38b828c01610357565b95505060806104048b828c01610357565b94505060a06104158b828c01610357565b93505060c06104268b828c01610357565b92505060e06104378b828c01610357565b9150509295985092959890939650565b600061045383836105b5565b60208301905092915050565b61046881610640565b6104728184610658565b925061047d82610636565b8060005b838110156104ae5781516104958782610447565b96506104a08361064b565b925050600181019050610481565b505050505050565b6104bf81610674565b82525050565b6104ce816106aa565b82525050565b60006104e1601483610663565b91507f54686520766f74657220697320696e76616c69640000000000000000000000006000830152602082019050919050565b60408201600082015161052a60008501826105b5565b50602082015161053d60208501826105b5565b50505050565b608082016000820151610559600085018261045f565b50602082015161056c604085018261045f565b50505050565b610100820160008201516105896000850182610514565b50602082015161059c6040850182610543565b5060408201516105af60c0850182610514565b50505050565b6105be816106a0565b82525050565b60006020820190506105d960008301846104b6565b92915050565b60006020820190506105f460008301846104c5565b92915050565b60006020820190508181036000830152610613816104d4565b9050919050565b6000610100820190506106306000830184610572565b92915050565b6000819050919050565b600060029050919050565b6000602082019050919050565b600081905092915050565b600082825260208201905092915050565b60008115159050919050565b600073ffffffffffffffffffffffffffffffffffffffff82169050919050565b6000819050919050565b60006106b5826106bc565b9050919050565b60006106c782610680565b9050919050565b6106d781610674565b81146106e257600080fd5b50565b6106ee816106a0565b81146106f957600080fd5b5056fea264697066735822122092d0839181eb5829e102df58c3d1abd8e34cb2071cb016476419a550727c8b9a64736f6c63430008000033608060405234801561001057600080fd5b50611915806100206000396000f3fe608060405234801561001057600080fd5b506004361061002b5760003560e01c8063f6af031114610030575b600080fd5b61004a6004803603810190610045919061161c565b610060565b6040516100579190611655565b60405180910390f35b600080600067ffffffffffffffff8111156100a4577f4e487b7100000000000000000000000000000000000000000000000000000000600052604160045260246000fd5b6040519080825280602002602001820160405280156100d25781602001602082028036833780820191505090505b50905060006100e182856100fc565b14156100f15760019150506100f7565b60009150505b919050565b6000807f30644e72e131a029b85045b68181585d2833e84879b9709143e1f593f00000019050600061012c61032b565b90508060800151516001865161014291906116c7565b1461014c57600080fd5b60006040518060400160405280600081526020016000815250905060005b865181101561027757838782815181106101ad577f4e487b7100000000000000000000000000000000000000000000000000000000600052603260045260246000fd5b6020026020010151106101bf57600080fd5b6102628261025d85608001516001856101d891906116c7565b8151811061020f577f4e487b7100000000000000000000000000000000000000000000000000000000600052603260045260246000fd5b60200260200101518a8581518110610250577f4e487b7100000000000000000000000000000000000000000000000000000000600052603260045260246000fd5b6020026020010151610702565b61081b565b9150808061026f906117c1565b91505061016a565b506102c78183608001516000815181106102ba577f4e487b7100000000000000000000000000000000000000000000000000000000600052603260045260246000fd5b602002602001015161081b565b905061030d856000015186602001516102df84610980565b85604001516102f18a60400151610980565b87606001516103038960000151610980565b8960200151610a25565b61031d5760019350505050610325565b600093505050505b92915050565b610333611375565b60405180604001604052807f2d5e81b09e2306f278c22f23b34142517d97f785bc9b0246f51a5958ba8ff04481526020017f1dbeff6fbe6632160e5bdade4f649388c7a804c7781b258f5263d5120460af0e8152508160000181905250604051806040016040528060405180604001604052807f2f906138c89d6f46eb69bb9204bc92961e043d142bbe4721d04edd17d870e97481526020017f2e130f4e726d51f74c40a48c1bb0a34df3e9e176ea8670450f9fecfe60548e3e815250815260200160405180604001604052807f15776f65f1ede4ec055d4f27cf562f3bdd1a691838c85e18554e87dbcba3cd5681526020017f11afa1f8e4ac8cf582d42821f26925c5a6b7b871a17795452f5a1bb7ff7914a18152508152508160200181905250604051806040016040528060405180604001604052807f0d719476ea2551c50ec99e1d4ab6436d1b7b86e74bb78f305457d4ea0b6e20f781526020017f1485ec87a1f8da87022c1a766d19e366b46c3af89bb6e55d921fdea56d53e635815250815260200160405180604001604052807f11b25fdcc140d5923d1e94674bee63b78507df9eab6c2ef70c4e5752341c327581526020017f2fbb951f4142a9fe07c45dceeeef152617e88d9430f5c6d68819fcb6b3fc82768152508152508160400181905250604051806040016040528060405180604001604052807f1a75a03877ae2fad29997ef94a4c48cc2d27d6c2f152ede09ca1c87982fce5df81526020017f3057ca441cdbd3917a9dd9e0440a208fbcff33c0bc9b3eac46bf9860a2a24f50815250815260200160405180604001604052807ec9b7db8eb93caac70630c637796dc4319abf8372cd5ae5b72bb690b3f5f66281526020017f132df335e85f17763500ac95eb528fb3094598f0da7f3418c5cc8616db3803108152508152508160600181905250600167ffffffffffffffff81111561061f577f4e487b7100000000000000000000000000000000000000000000000000000000600052604160045260246000fd5b60405190808252806020026020018201604052801561065857816020015b6106456113bc565b81526020019060019003908161063d5790505b50816080018190525060405180604001604052807f097fc3b6490a200c421edd29c970b27c69f72ce6676e9f5b489e57d21737630d81526020017f2e897cfbaa749467eadfa72f6d78a4062e8bba3f60eb5997e9ff537d2be8fe0381525081608001516000815181106106f4577f4e487b7100000000000000000000000000000000000000000000000000000000600052603260045260246000fd5b602002602001018190525090565b61070a6113bc565b6107126113d6565b836000015181600060038110610751577f4e487b7100000000000000000000000000000000000000000000000000000000600052603260045260246000fd5b602002018181525050836020015181600160038110610799577f4e487b7100000000000000000000000000000000000000000000000000000000600052603260045260246000fd5b60200201818152505082816002600381106107dd577f4e487b7100000000000000000000000000000000000000000000000000000000600052603260045260246000fd5b602002018181525050600060608360808460076107d05a03fa9050806000811461080657610808565bfe5b508061081357600080fd5b505092915050565b6108236113bc565b61082b6113f8565b83600001518160006004811061086a577f4e487b7100000000000000000000000000000000000000000000000000000000600052603260045260246000fd5b6020020181815250508360200151816001600481106108b2577f4e487b7100000000000000000000000000000000000000000000000000000000600052603260045260246000fd5b6020020181815250508260000151816002600481106108fa577f4e487b7100000000000000000000000000000000000000000000000000000000600052603260045260246000fd5b602002018181525050826020015181600360048110610942577f4e487b7100000000000000000000000000000000000000000000000000000000600052603260045260246000fd5b602002018181525050600060608360c08460066107d05a03fa9050806000811461096b5761096d565bfe5b508061097857600080fd5b505092915050565b6109886113bc565b60007f30644e72e131a029b85045b68181585d97816a916871ca8d3c208c16d87cfd479050600083600001511480156109c5575060008360200151145b156109e9576040518060400160405280600081526020016000815250915050610a20565b604051806040016040528084600001518152602001828560200151610a0e919061180a565b83610a199190611777565b8152509150505b919050565b600080600467ffffffffffffffff811115610a69577f4e487b7100000000000000000000000000000000000000000000000000000000600052604160045260246000fd5b604051908082528060200260200182016040528015610aa257816020015b610a8f6113bc565b815260200190600190039081610a875790505b5090506000600467ffffffffffffffff811115610ae8577f4e487b7100000000000000000000000000000000000000000000000000000000600052604160045260246000fd5b604051908082528060200260200182016040528015610b2157816020015b610b0e61141a565b815260200190600190039081610b065790505b5090508a82600081518110610b5f577f4e487b7100000000000000000000000000000000000000000000000000000000600052603260045260246000fd5b60200260200101819052508882600181518110610ba5577f4e487b7100000000000000000000000000000000000000000000000000000000600052603260045260246000fd5b60200260200101819052508682600281518110610beb577f4e487b7100000000000000000000000000000000000000000000000000000000600052603260045260246000fd5b60200260200101819052508482600381518110610c31577f4e487b7100000000000000000000000000000000000000000000000000000000600052603260045260246000fd5b60200260200101819052508981600081518110610c77577f4e487b7100000000000000000000000000000000000000000000000000000000600052603260045260246000fd5b60200260200101819052508781600181518110610cbd577f4e487b7100000000000000000000000000000000000000000000000000000000600052603260045260246000fd5b60200260200101819052508581600281518110610d03577f4e487b7100000000000000000000000000000000000000000000000000000000600052603260045260246000fd5b60200260200101819052508381600381518110610d49577f4e487b7100000000000000000000000000000000000000000000000000000000600052603260045260246000fd5b6020026020010181905250610d5e8282610d6e565b9250505098975050505050505050565b60008151835114610d7e57600080fd5b6000835190506000600682610d93919061171d565b905060008167ffffffffffffffff811115610dd7577f4e487b7100000000000000000000000000000000000000000000000000000000600052604160045260246000fd5b604051908082528060200260200182016040528015610e055781602001602082028036833780820191505090505b50905060005b838110156112ea57868181518110610e4c577f4e487b7100000000000000000000000000000000000000000000000000000000600052603260045260246000fd5b602002602001015160000151826000600684610e68919061171d565b610e7291906116c7565b81518110610ea9577f4e487b7100000000000000000000000000000000000000000000000000000000600052603260045260246000fd5b602002602001018181525050868181518110610eee577f4e487b7100000000000000000000000000000000000000000000000000000000600052603260045260246000fd5b602002602001015160200151826001600684610f0a919061171d565b610f1491906116c7565b81518110610f4b577f4e487b7100000000000000000000000000000000000000000000000000000000600052603260045260246000fd5b602002602001018181525050858181518110610f90577f4e487b7100000000000000000000000000000000000000000000000000000000600052603260045260246000fd5b602002602001015160000151600160028110610fd5577f4e487b7100000000000000000000000000000000000000000000000000000000600052603260045260246000fd5b6020020151826002600684610fea919061171d565b610ff491906116c7565b8151811061102b577f4e487b7100000000000000000000000000000000000000000000000000000000600052603260045260246000fd5b602002602001018181525050858181518110611070577f4e487b7100000000000000000000000000000000000000000000000000000000600052603260045260246000fd5b6020026020010151600001516000600281106110b5577f4e487b7100000000000000000000000000000000000000000000000000000000600052603260045260246000fd5b60200201518260036006846110ca919061171d565b6110d491906116c7565b8151811061110b577f4e487b7100000000000000000000000000000000000000000000000000000000600052603260045260246000fd5b602002602001018181525050858181518110611150577f4e487b7100000000000000000000000000000000000000000000000000000000600052603260045260246000fd5b602002602001015160200151600160028110611195577f4e487b7100000000000000000000000000000000000000000000000000000000600052603260045260246000fd5b60200201518260046006846111aa919061171d565b6111b491906116c7565b815181106111eb577f4e487b7100000000000000000000000000000000000000000000000000000000600052603260045260246000fd5b602002602001018181525050858181518110611230577f4e487b7100000000000000000000000000000000000000000000000000000000600052603260045260246000fd5b602002602001015160200151600060028110611275577f4e487b7100000000000000000000000000000000000000000000000000000000600052603260045260246000fd5b602002015182600560068461128a919061171d565b61129491906116c7565b815181106112cb577f4e487b7100000000000000000000000000000000000000000000000000000000600052603260045260246000fd5b60200260200101818152505080806112e2906117c1565b915050610e0b565b506112f3611440565b6000602082602086026020860160086107d05a03fa905080600081146113185761131a565bfe5b508061132557600080fd5b600082600060018110611361577f4e487b7100000000000000000000000000000000000000000000000000000000600052603260045260246000fd5b602002015114159550505050505092915050565b6040518060a001604052806113886113bc565b815260200161139561141a565b81526020016113a261141a565b81526020016113af61141a565b8152602001606081525090565b604051806040016040528060008152602001600081525090565b6040518060600160405280600390602082028036833780820191505090505090565b6040518060800160405280600490602082028036833780820191505090505090565b604051806040016040528061142d611462565b815260200161143a611462565b81525090565b6040518060200160405280600190602082028036833780820191505090505090565b6040518060400160405280600290602082028036833780820191505090505090565b6000611497611492846116a1565b611670565b905080828560208602820111156114ad57600080fd5b60005b858110156114dd57816114c38882611607565b8452602084019350602083019250506001810190506114b0565b5050509392505050565b600082601f8301126114f857600080fd5b6002611505848285611484565b91505092915050565b60006040828403121561152057600080fd5b61152a6040611670565b9050600061153a84828501611607565b600083015250602061154e84828501611607565b60208301525092915050565b60006080828403121561156c57600080fd5b6115766040611670565b90506000611586848285016114e7565b600083015250604061159a848285016114e7565b60208301525092915050565b600061010082840312156115b957600080fd5b6115c36060611670565b905060006115d38482850161150e565b60008301525060406115e78482850161155a565b60208301525060c06115fb8482850161150e565b60408301525092915050565b600081359050611616816118c8565b92915050565b6000610100828403121561162f57600080fd5b600061163d848285016115a6565b91505092915050565b61164f816117ab565b82525050565b600060208201905061166a6000830184611646565b92915050565b6000604051905081810181811067ffffffffffffffff8211171561169757611696611899565b5b8060405250919050565b600067ffffffffffffffff8211156116bc576116bb611899565b5b602082029050919050565b60006116d2826117b7565b91506116dd836117b7565b9250827fffffffffffffffffffffffffffffffffffffffffffffffffffffffffffffffff038211156117125761171161183b565b5b828201905092915050565b6000611728826117b7565b9150611733836117b7565b9250817fffffffffffffffffffffffffffffffffffffffffffffffffffffffffffffffff048311821515161561176c5761176b61183b565b5b828202905092915050565b6000611782826117b7565b915061178d836117b7565b9250828210156117a05761179f61183b565b5b828203905092915050565b60008115159050919050565b6000819050919050565b60006117cc826117b7565b91507fffffffffffffffffffffffffffffffffffffffffffffffffffffffffffffffff8214156117ff576117fe61183b565b5b600182019050919050565b6000611815826117b7565b9150611820836117b7565b9250826118305761182f61186a565b5b828206905092915050565b7f4e487b7100000000000000000000000000000000000000000000000000000000600052601160045260246000fd5b7f4e487b7100000000000000000000000000000000000000000000000000000000600052601260045260246000fd5b7f4e487b7100000000000000000000000000000000000000000000000000000000600052604160045260246000fd5b6118d1816117b7565b81146118dc57600080fd5b5056fea264697066735822122034c972cb0126cb0e75d879c489d8b870265659fc100c2d82abcc99e92f6592d064736f6c63430008000033",
  "immutableReferences": {},
  "source": "//Because Ethereum is an open source project, the first line shows the contracts open source license.\r\n//The second line specifies the Solidity version necessary to execute this contract.\r\n\r\nimport './Verifier.sol';\r\n\r\n// SPDX-License-Identifier: GPL-3.0\r\npragma solidity >=0.8.0;\r\n\r\ncontract Registration {\r\n    Verifier public verifier;\r\n\r\n    constructor(){\r\n        verifier = new Verifier();\r\n    }\r\n \r\n    function register(uint256 ax, uint256 ay, uint256 bx0, uint256 bx1, uint256 by0, uint256 by1, uint256 cx, uint256 cy) public view returns (bool){\r\n        //todo: check the args\r\n\r\n        // Use ZKP to proove the voter is in the appropriate voters list\r\n        Verifier.Proof memory proof= getProof(ax, ay, bx0, bx1, by0, by1, cx, cy);\r\n            \r\n        try verifier.verifyTx(proof) \r\n        {\r\n            return true;\r\n        }\r\n        catch\r\n        {\r\n            require(false, \"The voter is invalid\");\r\n            return false;\r\n        }\r\n    }\r\n \r\n    //private functions\r\n    function getProof(uint256 ax, uint256 ay, uint256 bx0, uint256 bx1, uint256 by0, uint256 by1, uint256 cx, uint256 cy) public pure returns (Verifier.Proof memory proof) {\r\n        Pairing.G1Point memory a;\r\n        Pairing.G2Point memory b;\r\n        Pairing.G1Point memory c;\r\n\r\n        a.X = ax;\r\n        a.Y = ay;\r\n\r\n        b.X = [bx0,bx1];\r\n        b.Y = [by0,by1];\r\n\r\n        c.X = cx;\r\n        c.Y = cy;\r\n\r\n        proof.a = a;\r\n        proof.b = b;\r\n        proof.c = c;\r\n\r\n        return proof;\r\n    }\r\n}",
  "sourcePath": "D:\\Master\\Dizertatie\\workspace\\BlockchainVotingApp\\SmartContracts\\2_Presidential\\registration\\contracts\\Registration.sol",
  "compiler": {
    "name": "solc",
    "version": "0.8.0+commit.c7dfd78e.Emscripten.clang"
  },
  "schemaVersion": "3.4.16",
  "updatedAt": "2024-02-05T10:43:10.934Z",
  "devdoc": {
    "kind": "dev",
    "methods": {},
    "version": 1
  },
  "userdoc": {
    "kind": "user",
    "methods": {},
    "version": 1
  }
}