{
  "contractName": "Election",
  "abi": [
    {
      "inputs": [],
      "stateMutability": "nonpayable",
      "type": "constructor"
    },
    {
      "inputs": [],
      "name": "IsUpcomingElection",
      "outputs": [
        {
          "internalType": "bool",
          "name": "",
          "type": "bool"
        }
      ],
      "stateMutability": "view",
      "type": "function"
    },
    {
      "inputs": [
        {
          "internalType": "uint256",
          "name": "",
          "type": "uint256"
        }
      ],
      "name": "candidates",
      "outputs": [
        {
          "internalType": "bool",
          "name": "",
          "type": "bool"
        }
      ],
      "stateMutability": "view",
      "type": "function"
    },
    {
      "inputs": [
        {
          "internalType": "uint256",
          "name": "",
          "type": "uint256"
        }
      ],
      "name": "candidatesVotesCount",
      "outputs": [
        {
          "internalType": "uint256",
          "name": "",
          "type": "uint256"
        }
      ],
      "stateMutability": "view",
      "type": "function"
    },
    {
      "inputs": [
        {
          "internalType": "uint256",
          "name": "",
          "type": "uint256"
        }
      ],
      "name": "usersVoted",
      "outputs": [
        {
          "internalType": "bool",
          "name": "",
          "type": "bool"
        }
      ],
      "stateMutability": "view",
      "type": "function"
    },
    {
      "inputs": [],
      "name": "verifier",
      "outputs": [
        {
          "internalType": "contract Verifier",
          "name": "",
          "type": "address"
        }
      ],
      "stateMutability": "view",
      "type": "function"
    },
    {
      "inputs": [
        {
          "internalType": "uint256",
          "name": "",
          "type": "uint256"
        }
      ],
      "name": "votes",
      "outputs": [
        {
          "internalType": "uint256",
          "name": "",
          "type": "uint256"
        }
      ],
      "stateMutability": "view",
      "type": "function"
    },
    {
      "inputs": [],
      "name": "votesCount",
      "outputs": [
        {
          "internalType": "uint256",
          "name": "",
          "type": "uint256"
        }
      ],
      "stateMutability": "view",
      "type": "function"
    },
    {
      "inputs": [
        {
          "internalType": "uint256",
          "name": "candidateId",
          "type": "uint256"
        }
      ],
      "name": "addCandidate",
      "outputs": [],
      "stateMutability": "nonpayable",
      "type": "function"
    },
    {
      "inputs": [
        {
          "internalType": "uint256",
          "name": "ax",
          "type": "uint256"
        },
        {
          "internalType": "uint256",
          "name": "ay",
          "type": "uint256"
        },
        {
          "internalType": "uint256",
          "name": "bx0",
          "type": "uint256"
        },
        {
          "internalType": "uint256",
          "name": "bx1",
          "type": "uint256"
        },
        {
          "internalType": "uint256",
          "name": "by0",
          "type": "uint256"
        },
        {
          "internalType": "uint256",
          "name": "by1",
          "type": "uint256"
        },
        {
          "internalType": "uint256",
          "name": "cx",
          "type": "uint256"
        },
        {
          "internalType": "uint256",
          "name": "cy",
          "type": "uint256"
        },
        {
          "internalType": "uint256",
          "name": "proofSha",
          "type": "uint256"
        },
        {
          "internalType": "uint256",
          "name": "candidateId",
          "type": "uint256"
        }
      ],
      "name": "castVote",
      "outputs": [
        {
          "internalType": "bool",
          "name": "",
          "type": "bool"
        }
      ],
      "stateMutability": "nonpayable",
      "type": "function"
    },
    {
      "inputs": [
        {
          "internalType": "uint256",
          "name": "proofSha",
          "type": "uint256"
        }
      ],
      "name": "getUserVote",
      "outputs": [
        {
          "internalType": "uint256",
          "name": "CandidateId",
          "type": "uint256"
        }
      ],
      "stateMutability": "view",
      "type": "function"
    },
    {
      "inputs": [
        {
          "internalType": "bool",
          "name": "electionState",
          "type": "bool"
        }
      ],
      "name": "changeElectionState",
      "outputs": [],
      "stateMutability": "nonpayable",
      "type": "function"
    },
    {
      "inputs": [
        {
          "internalType": "uint256",
          "name": "ax",
          "type": "uint256"
        },
        {
          "internalType": "uint256",
          "name": "ay",
          "type": "uint256"
        },
        {
          "internalType": "uint256",
          "name": "bx0",
          "type": "uint256"
        },
        {
          "internalType": "uint256",
          "name": "bx1",
          "type": "uint256"
        },
        {
          "internalType": "uint256",
          "name": "by0",
          "type": "uint256"
        },
        {
          "internalType": "uint256",
          "name": "by1",
          "type": "uint256"
        },
        {
          "internalType": "uint256",
          "name": "cx",
          "type": "uint256"
        },
        {
          "internalType": "uint256",
          "name": "cy",
          "type": "uint256"
        }
      ],
      "name": "getProof",
      "outputs": [
        {
          "components": [
            {
              "components": [
                {
                  "internalType": "uint256",
                  "name": "X",
                  "type": "uint256"
                },
                {
                  "internalType": "uint256",
                  "name": "Y",
                  "type": "uint256"
                }
              ],
              "internalType": "struct Pairing.G1Point",
              "name": "a",
              "type": "tuple"
            },
            {
              "components": [
                {
                  "internalType": "uint256[2]",
                  "name": "X",
                  "type": "uint256[2]"
                },
                {
                  "internalType": "uint256[2]",
                  "name": "Y",
                  "type": "uint256[2]"
                }
              ],
              "internalType": "struct Pairing.G2Point",
              "name": "b",
              "type": "tuple"
            },
            {
              "components": [
                {
                  "internalType": "uint256",
                  "name": "X",
                  "type": "uint256"
                },
                {
                  "internalType": "uint256",
                  "name": "Y",
                  "type": "uint256"
                }
              ],
              "internalType": "struct Pairing.G1Point",
              "name": "c",
              "type": "tuple"
            }
          ],
          "internalType": "struct Verifier.Proof",
          "name": "proof",
          "type": "tuple"
        }
      ],
      "stateMutability": "pure",
      "type": "function"
    }
  ],
  "bytecode": "0x60806040526001600660006101000a81548160ff02191690831515021790555034801561002b57600080fd5b5060405161003890610099565b604051809103906000f080158015610054573d6000803e3d6000fd5b506000806101000a81548173ffffffffffffffffffffffffffffffffffffffff021916908373ffffffffffffffffffffffffffffffffffffffff1602179055506100a6565b6119368061147883390190565b6113c3806100b56000396000f3fe608060405234801561001057600080fd5b50600436106100b45760003560e01c806384104be91161007157806384104be9146101b357806386194c19146101e35780638778b27d146102135780639c85af6f14610231578063aa95124f14610261578063e844d0971461027f576100b4565b80630bd4dec1146100b957806316a47c6d146100e95780632b7ac3f3146101195780633477ee2e146101375780634140be86146101675780635df8133014610183575b600080fd5b6100d360048036038101906100ce9190610a3c565b61029b565b6040516100e09190611234565b60405180910390f35b61010360048036038101906100fe9190610b17565b6102b3565b60405161011091906110a2565b60405180910390f35b6101216105ff565b60405161012e91906110bd565b60405180910390f35b610151600480360381019061014c9190610a3c565b610623565b60405161015e91906110a2565b60405180910390f35b610181600480360381019061017c91906109ea565b610643565b005b61019d60048036038101906101989190610a3c565b610660565b6040516101aa9190611234565b60405180910390f35b6101cd60048036038101906101c89190610a65565b610678565b6040516101da9190611218565b60405180910390f35b6101fd60048036038101906101f89190610a3c565b610724565b60405161020a9190611234565b60405180910390f35b61021b6107a1565b6040516102289190611234565b60405180910390f35b61024b60048036038101906102469190610a3c565b6107a7565b60405161025891906110a2565b60405180910390f35b6102696107c7565b60405161027691906110a2565b60405180910390f35b61029960048036038101906102949190610a3c565b6107da565b005b60046020528060005260406000206000915090505481565b6000808214156102f8576040517f08c379a00000000000000000000000000000000000000000000000000000000081526004016102ef906111f8565b60405180910390fd5b600660009054906101000a900460ff1615610348576040517f08c379a000000000000000000000000000000000000000000000000000000000815260040161033f906110d8565b60405180910390fd5b60006004600084815260200190815260200160002054101561039f576040517f08c379a0000000000000000000000000000000000000000000000000000000008152600401610396906111d8565b60405180910390fd5b6005600083815260200190815260200160002060009054906101000a900460ff166103ff576040517f08c379a00000000000000000000000000000000000000000000000000000000081526004016103f6906111b8565b60405180910390fd5b6003600084815260200190815260200160002060009054906101000a900460ff1615610460576040517f08c379a000000000000000000000000000000000000000000000000000000000815260040161045790611118565b60405180910390fd5b60006104728c8c8c8c8c8c8c8c610678565b905060008054906101000a900473ffffffffffffffffffffffffffffffffffffffff1673ffffffffffffffffffffffffffffffffffffffff1663f6af0311826040518263ffffffff1660e01b81526004016104cd9190611218565b60206040518083038186803b1580156104e557600080fd5b505afa92505050801561051657506040513d601f19601f820116820180604052508101906105139190610a13565b60015b61056557600061055b576040517f08c379a000000000000000000000000000000000000000000000000000000000815260040161055290611138565b60405180910390fd5b60009150506105f1565b5082600260008681526020019081526020016000208190555060016003600086815260200190815260200160002060006101000a81548160ff0219169083151502179055506004600084815260200190815260200160002060008154809291906105ce906112e7565b9190505550600160008154809291906105e6906112e7565b919050555060019150505b9a9950505050505050505050565b60008054906101000a900473ffffffffffffffffffffffffffffffffffffffff1681565b60056020528060005260406000206000915054906101000a900460ff1681565b80600660006101000a81548160ff02191690831515021790555050565b60026020528060005260406000206000915090505481565b610680610916565b610688610949565b610690610963565b610698610949565b8b8360000181815250508a83602001818152505060405180604001604052808b81526020018a81525082600001819052506040518060400160405280898152602001888152508260200181905250858160000181815250508481602001818152505082846000018190525081846020018190525080846040018190525050505098975050505050505050565b60006003600083815260200190815260200160002060009054906101000a900460ff16610786576040517f08c379a000000000000000000000000000000000000000000000000000000000815260040161077d90611158565b60405180910390fd5b60026000838152602001908152602001600020549050919050565b60015481565b60036020528060005260406000206000915054906101000a900460ff1681565b600660009054906101000a900460ff1681565b600081141561081e576040517f08c379a0000000000000000000000000000000000000000000000000000000008152600401610815906110f8565b60405180910390fd5b600660009054906101000a900460ff1661086d576040517f08c379a000000000000000000000000000000000000000000000000000000000815260040161086490611198565b60405180910390fd5b6005600082815260200190815260200160002060009054906101000a900460ff16156108ce576040517f08c379a00000000000000000000000000000000000000000000000000000000081526004016108c590611178565b60405180910390fd5b6000600460008381526020019081526020016000208190555060016005600083815260200190815260200160002060006101000a81548160ff02191690831515021790555050565b6040518060600160405280610929610949565b8152602001610936610963565b8152602001610943610949565b81525090565b604051806040016040528060008152602001600081525090565b6040518060400160405280610976610989565b8152602001610983610989565b81525090565b6040518060400160405280600290602082028036833780820191505090505090565b6000813590506109ba8161135f565b92915050565b6000815190506109cf8161135f565b92915050565b6000813590506109e481611376565b92915050565b6000602082840312156109fc57600080fd5b6000610a0a848285016109ab565b91505092915050565b600060208284031215610a2557600080fd5b6000610a33848285016109c0565b91505092915050565b600060208284031215610a4e57600080fd5b6000610a5c848285016109d5565b91505092915050565b600080600080600080600080610100898b031215610a8257600080fd5b6000610a908b828c016109d5565b9850506020610aa18b828c016109d5565b9750506040610ab28b828c016109d5565b9650506060610ac38b828c016109d5565b9550506080610ad48b828c016109d5565b94505060a0610ae58b828c016109d5565b93505060c0610af68b828c016109d5565b92505060e0610b078b828c016109d5565b9150509295985092959890939650565b6000806000806000806000806000806101408b8d031215610b3757600080fd5b6000610b458d828e016109d5565b9a50506020610b568d828e016109d5565b9950506040610b678d828e016109d5565b9850506060610b788d828e016109d5565b9750506080610b898d828e016109d5565b96505060a0610b9a8d828e016109d5565b95505060c0610bab8d828e016109d5565b94505060e0610bbc8d828e016109d5565b935050610100610bce8d828e016109d5565b925050610120610be08d828e016109d5565b9150509295989b9194979a5092959850565b6000610bfe8383611084565b60208301905092915050565b610c1381611259565b610c1d8184611271565b9250610c288261124f565b8060005b83811015610c59578151610c408782610bf2565b9650610c4b83611264565b925050600181019050610c2c565b505050505050565b610c6a8161128d565b82525050565b610c79816112c3565b82525050565b6000610c8c60308361127c565b91507f54686520656c656374696f6e206973207374696c6c207570636f6d696e672c2060008301527f796f752063616e6e6f7420766f746521000000000000000000000000000000006020830152604082019050919050565b6000610cf260188361127c565b91507f5468652063616e646964617465206964206973206e756c6c00000000000000006000830152602082019050919050565b6000610d32601b8361127c565b91507f54686520757365722063616e20766f7465206f6e6c79206f6e636500000000006000830152602082019050919050565b6000610d7260148361127c565b91507f54686520766f74657220697320696e76616c69640000000000000000000000006000830152602082019050919050565b6000610db2602b8361127c565b91507f4b657920646f6573206e6f74206578697374732e20546865207573657220686160008301527f73206e6f7420766f7465640000000000000000000000000000000000000000006020830152604082019050919050565b6000610e1860248361127c565b91507f5468652063616e6469646174652068617320616c7265616479206265656e206160008301527f64646564000000000000000000000000000000000000000000000000000000006020830152604082019050919050565b6000610e7e60368361127c565b91507f54686520656c656374696f6e2073686f756c64206265207570636f6d696e672060008301527f696e206f7264657220746f206265206368616e676564000000000000000000006020830152604082019050919050565b6000610ee460378361127c565b91507f5468652063616e6469646174652068617320746f20626520696e20746865206560008301527f6c656374696f6e2063616e64696461746573206c6973740000000000000000006020830152604082019050919050565b6000610f4a60388361127c565b91507f5468652063616e6469646174652068617320746f20626520696e20746865206360008301527f616e64696461746573566f746573436f756e74206c69737400000000000000006020830152604082019050919050565b6000610fb060178361127c565b91507f5468652063616e6469646174654964206973206e756c6c0000000000000000006000830152602082019050919050565b604082016000820151610ff96000850182611084565b50602082015161100c6020850182611084565b50505050565b6080820160008201516110286000850182610c0a565b50602082015161103b6040850182610c0a565b50505050565b610100820160008201516110586000850182610fe3565b50602082015161106b6040850182611012565b50604082015161107e60c0850182610fe3565b50505050565b61108d816112b9565b82525050565b61109c816112b9565b82525050565b60006020820190506110b76000830184610c61565b92915050565b60006020820190506110d26000830184610c70565b92915050565b600060208201905081810360008301526110f181610c7f565b9050919050565b6000602082019050818103600083015261111181610ce5565b9050919050565b6000602082019050818103600083015261113181610d25565b9050919050565b6000602082019050818103600083015261115181610d65565b9050919050565b6000602082019050818103600083015261117181610da5565b9050919050565b6000602082019050818103600083015261119181610e0b565b9050919050565b600060208201905081810360008301526111b181610e71565b9050919050565b600060208201905081810360008301526111d181610ed7565b9050919050565b600060208201905081810360008301526111f181610f3d565b9050919050565b6000602082019050818103600083015261121181610fa3565b9050919050565b60006101008201905061122e6000830184611041565b92915050565b60006020820190506112496000830184611093565b92915050565b6000819050919050565b600060029050919050565b6000602082019050919050565b600081905092915050565b600082825260208201905092915050565b60008115159050919050565b600073ffffffffffffffffffffffffffffffffffffffff82169050919050565b6000819050919050565b60006112ce826112d5565b9050919050565b60006112e082611299565b9050919050565b60006112f2826112b9565b91507fffffffffffffffffffffffffffffffffffffffffffffffffffffffffffffffff82141561132557611324611330565b5b600182019050919050565b7f4e487b7100000000000000000000000000000000000000000000000000000000600052601160045260246000fd5b6113688161128d565b811461137357600080fd5b50565b61137f816112b9565b811461138a57600080fd5b5056fea26469706673582212202e719180b53ef5017db72b8061ae9271f22b5903f2d0fd3d29eecf59f48f360b64736f6c63430008000033608060405234801561001057600080fd5b50611916806100206000396000f3fe608060405234801561001057600080fd5b506004361061002b5760003560e01c8063f6af031114610030575b600080fd5b61004a6004803603810190610045919061161d565b610060565b6040516100579190611656565b60405180910390f35b600080600067ffffffffffffffff8111156100a4577f4e487b7100000000000000000000000000000000000000000000000000000000600052604160045260246000fd5b6040519080825280602002602001820160405280156100d25781602001602082028036833780820191505090505b50905060006100e182856100fc565b14156100f15760019150506100f7565b60009150505b919050565b6000807f30644e72e131a029b85045b68181585d2833e84879b9709143e1f593f00000019050600061012c61032b565b90508060800151516001865161014291906116c8565b1461014c57600080fd5b60006040518060400160405280600081526020016000815250905060005b865181101561027757838782815181106101ad577f4e487b7100000000000000000000000000000000000000000000000000000000600052603260045260246000fd5b6020026020010151106101bf57600080fd5b6102628261025d85608001516001856101d891906116c8565b8151811061020f577f4e487b7100000000000000000000000000000000000000000000000000000000600052603260045260246000fd5b60200260200101518a8581518110610250577f4e487b7100000000000000000000000000000000000000000000000000000000600052603260045260246000fd5b6020026020010151610703565b61081c565b9150808061026f906117c2565b91505061016a565b506102c78183608001516000815181106102ba577f4e487b7100000000000000000000000000000000000000000000000000000000600052603260045260246000fd5b602002602001015161081c565b905061030d856000015186602001516102df84610981565b85604001516102f18a60400151610981565b87606001516103038960000151610981565b8960200151610a26565b61031d5760019350505050610325565b600093505050505b92915050565b610333611376565b60405180604001604052807f16ecfbef4a8fb00bcb613f867afa338c3970eb2a2def4862b518d011395e7d8781526020017f1ad9f1f0d51df097ab1837edc64082413b4b8db27ed3954efd556448bcc1296b8152508160000181905250604051806040016040528060405180604001604052807f194757964fca13a41e8dd7a0b669cf832843185cc06e38919c03c8b68d2dff4d81526020017f01a23519032a70d02b7ce84c75d7450831d71ebd75694ad6dc0fc53ffa719192815250815260200160405180604001604052807f2e214e12ac7a7727ea2f404ec079a6a5f08e399700e460c0f8be1900c5bf05fa81526020017f2aec3311e0d164f841ee3b16a778ddc35c072a947e1507eadc510c6a8aaf132f8152508152508160200181905250604051806040016040528060405180604001604052807f07216be91acd7307c74633636d792ece872b6aeebcbe0542ac88b362b51b8aee81526020017f04f0ce90f37a44046812d6f49b21febc339909163c38b3ddcafc701ff96b1348815250815260200160405180604001604052807f29114ad2164a425dbd1ee79624f3bf5d34f1aee89faa68d813f2e2184ddfc13381526020017f17d98a2c40c2958e16e40401285e2d39244f07af936d5d616bbb60feabba68348152508152508160400181905250604051806040016040528060405180604001604052807f1b9138df02f6a81a4e7a992ac7cfe427906295b447fa94dea87a8ed52365576d81526020017f13ec34e2720598c569c857bfc270dc044bdeaca21e211c9818193bb248a755d7815250815260200160405180604001604052807f0c20699c8df3c8f8b5d6e2e16bac8c9dc817eca14040a145ff6c6952c288f7a381526020017f2f6a327a823ce06bf8b32cefb2445bd4c449192adb0eee6362913e63612fe1c58152508152508160600181905250600167ffffffffffffffff811115610620577f4e487b7100000000000000000000000000000000000000000000000000000000600052604160045260246000fd5b60405190808252806020026020018201604052801561065957816020015b6106466113bd565b81526020019060019003908161063e5790505b50816080018190525060405180604001604052807f16b8f16974eddc3ebc5230fbeeb0e04abaf485ec0b3c30d025a644e56008c11281526020017f1ebaedb491b5f2d6c31f9c5fc1c7d085767b5eec4bb33854f8d078264c29782581525081608001516000815181106106f5577f4e487b7100000000000000000000000000000000000000000000000000000000600052603260045260246000fd5b602002602001018190525090565b61070b6113bd565b6107136113d7565b836000015181600060038110610752577f4e487b7100000000000000000000000000000000000000000000000000000000600052603260045260246000fd5b60200201818152505083602001518160016003811061079a577f4e487b7100000000000000000000000000000000000000000000000000000000600052603260045260246000fd5b60200201818152505082816002600381106107de577f4e487b7100000000000000000000000000000000000000000000000000000000600052603260045260246000fd5b602002018181525050600060608360808460076107d05a03fa9050806000811461080757610809565bfe5b508061081457600080fd5b505092915050565b6108246113bd565b61082c6113f9565b83600001518160006004811061086b577f4e487b7100000000000000000000000000000000000000000000000000000000600052603260045260246000fd5b6020020181815250508360200151816001600481106108b3577f4e487b7100000000000000000000000000000000000000000000000000000000600052603260045260246000fd5b6020020181815250508260000151816002600481106108fb577f4e487b7100000000000000000000000000000000000000000000000000000000600052603260045260246000fd5b602002018181525050826020015181600360048110610943577f4e487b7100000000000000000000000000000000000000000000000000000000600052603260045260246000fd5b602002018181525050600060608360c08460066107d05a03fa9050806000811461096c5761096e565bfe5b508061097957600080fd5b505092915050565b6109896113bd565b60007f30644e72e131a029b85045b68181585d97816a916871ca8d3c208c16d87cfd479050600083600001511480156109c6575060008360200151145b156109ea576040518060400160405280600081526020016000815250915050610a21565b604051806040016040528084600001518152602001828560200151610a0f919061180b565b83610a1a9190611778565b8152509150505b919050565b600080600467ffffffffffffffff811115610a6a577f4e487b7100000000000000000000000000000000000000000000000000000000600052604160045260246000fd5b604051908082528060200260200182016040528015610aa357816020015b610a906113bd565b815260200190600190039081610a885790505b5090506000600467ffffffffffffffff811115610ae9577f4e487b7100000000000000000000000000000000000000000000000000000000600052604160045260246000fd5b604051908082528060200260200182016040528015610b2257816020015b610b0f61141b565b815260200190600190039081610b075790505b5090508a82600081518110610b60577f4e487b7100000000000000000000000000000000000000000000000000000000600052603260045260246000fd5b60200260200101819052508882600181518110610ba6577f4e487b7100000000000000000000000000000000000000000000000000000000600052603260045260246000fd5b60200260200101819052508682600281518110610bec577f4e487b7100000000000000000000000000000000000000000000000000000000600052603260045260246000fd5b60200260200101819052508482600381518110610c32577f4e487b7100000000000000000000000000000000000000000000000000000000600052603260045260246000fd5b60200260200101819052508981600081518110610c78577f4e487b7100000000000000000000000000000000000000000000000000000000600052603260045260246000fd5b60200260200101819052508781600181518110610cbe577f4e487b7100000000000000000000000000000000000000000000000000000000600052603260045260246000fd5b60200260200101819052508581600281518110610d04577f4e487b7100000000000000000000000000000000000000000000000000000000600052603260045260246000fd5b60200260200101819052508381600381518110610d4a577f4e487b7100000000000000000000000000000000000000000000000000000000600052603260045260246000fd5b6020026020010181905250610d5f8282610d6f565b9250505098975050505050505050565b60008151835114610d7f57600080fd5b6000835190506000600682610d94919061171e565b905060008167ffffffffffffffff811115610dd8577f4e487b7100000000000000000000000000000000000000000000000000000000600052604160045260246000fd5b604051908082528060200260200182016040528015610e065781602001602082028036833780820191505090505b50905060005b838110156112eb57868181518110610e4d577f4e487b7100000000000000000000000000000000000000000000000000000000600052603260045260246000fd5b602002602001015160000151826000600684610e69919061171e565b610e7391906116c8565b81518110610eaa577f4e487b7100000000000000000000000000000000000000000000000000000000600052603260045260246000fd5b602002602001018181525050868181518110610eef577f4e487b7100000000000000000000000000000000000000000000000000000000600052603260045260246000fd5b602002602001015160200151826001600684610f0b919061171e565b610f1591906116c8565b81518110610f4c577f4e487b7100000000000000000000000000000000000000000000000000000000600052603260045260246000fd5b602002602001018181525050858181518110610f91577f4e487b7100000000000000000000000000000000000000000000000000000000600052603260045260246000fd5b602002602001015160000151600160028110610fd6577f4e487b7100000000000000000000000000000000000000000000000000000000600052603260045260246000fd5b6020020151826002600684610feb919061171e565b610ff591906116c8565b8151811061102c577f4e487b7100000000000000000000000000000000000000000000000000000000600052603260045260246000fd5b602002602001018181525050858181518110611071577f4e487b7100000000000000000000000000000000000000000000000000000000600052603260045260246000fd5b6020026020010151600001516000600281106110b6577f4e487b7100000000000000000000000000000000000000000000000000000000600052603260045260246000fd5b60200201518260036006846110cb919061171e565b6110d591906116c8565b8151811061110c577f4e487b7100000000000000000000000000000000000000000000000000000000600052603260045260246000fd5b602002602001018181525050858181518110611151577f4e487b7100000000000000000000000000000000000000000000000000000000600052603260045260246000fd5b602002602001015160200151600160028110611196577f4e487b7100000000000000000000000000000000000000000000000000000000600052603260045260246000fd5b60200201518260046006846111ab919061171e565b6111b591906116c8565b815181106111ec577f4e487b7100000000000000000000000000000000000000000000000000000000600052603260045260246000fd5b602002602001018181525050858181518110611231577f4e487b7100000000000000000000000000000000000000000000000000000000600052603260045260246000fd5b602002602001015160200151600060028110611276577f4e487b7100000000000000000000000000000000000000000000000000000000600052603260045260246000fd5b602002015182600560068461128b919061171e565b61129591906116c8565b815181106112cc577f4e487b7100000000000000000000000000000000000000000000000000000000600052603260045260246000fd5b60200260200101818152505080806112e3906117c2565b915050610e0c565b506112f4611441565b6000602082602086026020860160086107d05a03fa905080600081146113195761131b565bfe5b508061132657600080fd5b600082600060018110611362577f4e487b7100000000000000000000000000000000000000000000000000000000600052603260045260246000fd5b602002015114159550505050505092915050565b6040518060a001604052806113896113bd565b815260200161139661141b565b81526020016113a361141b565b81526020016113b061141b565b8152602001606081525090565b604051806040016040528060008152602001600081525090565b6040518060600160405280600390602082028036833780820191505090505090565b6040518060800160405280600490602082028036833780820191505090505090565b604051806040016040528061142e611463565b815260200161143b611463565b81525090565b6040518060200160405280600190602082028036833780820191505090505090565b6040518060400160405280600290602082028036833780820191505090505090565b6000611498611493846116a2565b611671565b905080828560208602820111156114ae57600080fd5b60005b858110156114de57816114c48882611608565b8452602084019350602083019250506001810190506114b1565b5050509392505050565b600082601f8301126114f957600080fd5b6002611506848285611485565b91505092915050565b60006040828403121561152157600080fd5b61152b6040611671565b9050600061153b84828501611608565b600083015250602061154f84828501611608565b60208301525092915050565b60006080828403121561156d57600080fd5b6115776040611671565b90506000611587848285016114e8565b600083015250604061159b848285016114e8565b60208301525092915050565b600061010082840312156115ba57600080fd5b6115c46060611671565b905060006115d48482850161150f565b60008301525060406115e88482850161155b565b60208301525060c06115fc8482850161150f565b60408301525092915050565b600081359050611617816118c9565b92915050565b6000610100828403121561163057600080fd5b600061163e848285016115a7565b91505092915050565b611650816117ac565b82525050565b600060208201905061166b6000830184611647565b92915050565b6000604051905081810181811067ffffffffffffffff821117156116985761169761189a565b5b8060405250919050565b600067ffffffffffffffff8211156116bd576116bc61189a565b5b602082029050919050565b60006116d3826117b8565b91506116de836117b8565b9250827fffffffffffffffffffffffffffffffffffffffffffffffffffffffffffffffff038211156117135761171261183c565b5b828201905092915050565b6000611729826117b8565b9150611734836117b8565b9250817fffffffffffffffffffffffffffffffffffffffffffffffffffffffffffffffff048311821515161561176d5761176c61183c565b5b828202905092915050565b6000611783826117b8565b915061178e836117b8565b9250828210156117a1576117a061183c565b5b828203905092915050565b60008115159050919050565b6000819050919050565b60006117cd826117b8565b91507fffffffffffffffffffffffffffffffffffffffffffffffffffffffffffffffff821415611800576117ff61183c565b5b600182019050919050565b6000611816826117b8565b9150611821836117b8565b9250826118315761183061186b565b5b828206905092915050565b7f4e487b7100000000000000000000000000000000000000000000000000000000600052601160045260246000fd5b7f4e487b7100000000000000000000000000000000000000000000000000000000600052601260045260246000fd5b7f4e487b7100000000000000000000000000000000000000000000000000000000600052604160045260246000fd5b6118d2816117b8565b81146118dd57600080fd5b5056fea26469706673582212202ea8aa9e84c310236a569ffcbab2ad1212daa06f8b72b366a6c8b8334389fb1064736f6c63430008000033",
  "immutableReferences": {},
  "source": "//Because Ethereum is an open source project, the first line shows the contracts open source license.\r\n//The second line specifies the Solidity version necessary to execute this contract.\r\n\r\nimport './Verifier.sol';\r\n\r\n// SPDX-License-Identifier: GPL-3.0\r\npragma solidity >=0.8.0;\r\n\r\ncontract Election {\r\n    Verifier public verifier;\r\n\r\n    constructor(){\r\n        verifier = new Verifier();\r\n    }\r\n\r\n    uint public votesCount;\r\n    mapping(uint256 => uint) public votes;\r\n    mapping(uint256 => bool) public usersVoted;\r\n\r\n    mapping(uint => uint) public candidatesVotesCount;\r\n    mapping(uint => bool) public candidates;\r\n\r\n    //Is the election is ongoing, changes to the election must not be made (eg. description or candidates of the election)\r\n    bool public IsUpcomingElection = true;\r\n\r\n    function addCandidate(uint candidateId) public {\r\n        require(candidateId != 0, \"The candidate id is null\");\r\n\r\n        require(IsUpcomingElection, \"The election should be upcoming in order to be changed\");\r\n\r\n        require(!candidates[candidateId], \"The candidate has already been added\");\r\n        \r\n        candidatesVotesCount[candidateId] = 0;\r\n        candidates[candidateId] = true;\r\n    }\r\n\r\n    function castVote(uint256 ax, uint256 ay, uint256 bx0, uint256 bx1, uint256 by0, uint256 by1, uint256 cx, uint256 cy, uint256 proofSha, uint candidateId) public returns (bool){\r\n        //todo: check the other args\r\n        require(candidateId != 0, \"The candidateId is null\");\r\n\r\n        //The election should be ongoing in order to voter\r\n        require(!IsUpcomingElection, \"The election is still upcoming, you cannot vote!\");\r\n \r\n        //The candidate has to be in the candidates list for the current election\r\n        require(candidatesVotesCount[candidateId] >= 0, \"The candidate has to be in the candidatesVotesCount list\");\r\n        require(candidates[candidateId], \"The candidate has to be in the election candidates list\");\r\n\r\n        require(!usersVoted[proofSha], \"The user can vote only once\");\r\n\r\n        // Use ZKP to proove the voter is in the appropriate voters list\r\n        Verifier.Proof memory proof= getProof(ax, ay, bx0, bx1, by0, by1, cx, cy);\r\n            \r\n        try verifier.verifyTx(proof) \r\n        {        \r\n            votes[proofSha] = candidateId;\r\n            usersVoted[proofSha] = true;\r\n\r\n            candidatesVotesCount[candidateId]++;\r\n            votesCount++;\r\n            return true;\r\n        }\r\n        catch\r\n        {\r\n            require(false, \"The voter is invalid\");\r\n            return false;\r\n        }\r\n    }\r\n\r\n    //Get the votes of the user\r\n    function getUserVote(uint256 proofSha) public view returns (uint CandidateId){\r\n        require(usersVoted[proofSha], \"Key does not exists. The user has not voted\");\r\n        return votes[proofSha];\r\n    }\r\n\r\n    //Check if the user has already voted (the voter is in the votes mapping)\r\n    //The function returns true if the voter has already voted, than returns false\r\n    // the purpose of this function will be modified, the user has to introduce its proof in order to check if he has voted...\r\n    // function checkUserHasVoted(uint256 proofSha) public view returns (bool) {\r\n    //     require(proofSha != 0, \"The voterId is null\");\r\n\r\n    //     if(votes[proofSha] > 0 && usersVoted[proofSha])\r\n    //         return true;\r\n    //     else\r\n    //         return false;\r\n    // }\r\n\r\n    //If the election change the state from upcoming to ungoing, set the IsUpcomingElection to true and do not let the users to made any other changes to the contract\r\n    function changeElectionState(bool electionState) public{\r\n        IsUpcomingElection = electionState;\r\n    }\r\n\r\n    //private functions\r\n    function getProof(uint256 ax, uint256 ay, uint256 bx0, uint256 bx1, uint256 by0, uint256 by1, uint256 cx, uint256 cy) public pure returns (Verifier.Proof memory proof) {\r\n        Pairing.G1Point memory a;\r\n        Pairing.G2Point memory b;\r\n        Pairing.G1Point memory c;\r\n\r\n        a.X = ax;\r\n        a.Y = ay;\r\n\r\n        b.X = [bx0,bx1];\r\n        b.Y = [by0,by1];\r\n\r\n        c.X = cx;\r\n        c.Y = cy;\r\n\r\n        proof.a = a;\r\n        proof.b = b;\r\n        proof.c = c;\r\n\r\n        return proof;\r\n    }\r\n}",
  "sourcePath": "D:\\Master\\Dizertatie\\workspace\\BlockchainVotingApp\\SmartContracts\\23_Boom\\contracts\\Election.sol",
  "compiler": {
    "name": "solc",
    "version": "0.8.0+commit.c7dfd78e.Emscripten.clang"
  },
  "schemaVersion": "3.4.16",
  "updatedAt": "2024-01-27T18:36:17.831Z",
  "devdoc": {
    "kind": "dev",
    "methods": {},
    "version": 1
  },
  "userdoc": {
    "kind": "user",
    "methods": {},
    "version": 1
  }
}