{
  "contractName": "Registration",
  "abi": [
    {
      "inputs": [],
      "stateMutability": "nonpayable",
      "type": "constructor"
    },
    {
      "anonymous": false,
      "inputs": [
        {
          "indexed": false,
          "internalType": "address",
          "name": "sender",
          "type": "address"
        },
        {
          "indexed": false,
          "internalType": "uint256",
          "name": "registeredHash",
          "type": "uint256"
        }
      ],
      "name": "NewRegistration",
      "type": "event"
    },
    {
      "inputs": [
        {
          "internalType": "uint256",
          "name": "",
          "type": "uint256"
        }
      ],
      "name": "usersRegistered",
      "outputs": [
        {
          "internalType": "bool",
          "name": "",
          "type": "bool"
        }
      ],
      "stateMutability": "view",
      "type": "function",
      "constant": true
    },
    {
      "inputs": [],
      "name": "verifier",
      "outputs": [
        {
          "internalType": "contract Verifier",
          "name": "",
          "type": "address"
        }
      ],
      "stateMutability": "view",
      "type": "function",
      "constant": true
    },
    {
      "inputs": [
        {
          "internalType": "uint256",
          "name": "ax",
          "type": "uint256"
        },
        {
          "internalType": "uint256",
          "name": "ay",
          "type": "uint256"
        },
        {
          "internalType": "uint256",
          "name": "bx0",
          "type": "uint256"
        },
        {
          "internalType": "uint256",
          "name": "bx1",
          "type": "uint256"
        },
        {
          "internalType": "uint256",
          "name": "by0",
          "type": "uint256"
        },
        {
          "internalType": "uint256",
          "name": "by1",
          "type": "uint256"
        },
        {
          "internalType": "uint256",
          "name": "cx",
          "type": "uint256"
        },
        {
          "internalType": "uint256",
          "name": "cy",
          "type": "uint256"
        },
        {
          "internalType": "uint256",
          "name": "proofSha",
          "type": "uint256"
        }
      ],
      "name": "register",
      "outputs": [
        {
          "internalType": "bool",
          "name": "",
          "type": "bool"
        }
      ],
      "stateMutability": "nonpayable",
      "type": "function"
    },
    {
      "inputs": [
        {
          "internalType": "uint256",
          "name": "ax",
          "type": "uint256"
        },
        {
          "internalType": "uint256",
          "name": "ay",
          "type": "uint256"
        },
        {
          "internalType": "uint256",
          "name": "bx0",
          "type": "uint256"
        },
        {
          "internalType": "uint256",
          "name": "bx1",
          "type": "uint256"
        },
        {
          "internalType": "uint256",
          "name": "by0",
          "type": "uint256"
        },
        {
          "internalType": "uint256",
          "name": "by1",
          "type": "uint256"
        },
        {
          "internalType": "uint256",
          "name": "cx",
          "type": "uint256"
        },
        {
          "internalType": "uint256",
          "name": "cy",
          "type": "uint256"
        }
      ],
      "name": "getProof",
      "outputs": [
        {
          "components": [
            {
              "components": [
                {
                  "internalType": "uint256",
                  "name": "X",
                  "type": "uint256"
                },
                {
                  "internalType": "uint256",
                  "name": "Y",
                  "type": "uint256"
                }
              ],
              "internalType": "struct Pairing.G1Point",
              "name": "a",
              "type": "tuple"
            },
            {
              "components": [
                {
                  "internalType": "uint256[2]",
                  "name": "X",
                  "type": "uint256[2]"
                },
                {
                  "internalType": "uint256[2]",
                  "name": "Y",
                  "type": "uint256[2]"
                }
              ],
              "internalType": "struct Pairing.G2Point",
              "name": "b",
              "type": "tuple"
            },
            {
              "components": [
                {
                  "internalType": "uint256",
                  "name": "X",
                  "type": "uint256"
                },
                {
                  "internalType": "uint256",
                  "name": "Y",
                  "type": "uint256"
                }
              ],
              "internalType": "struct Pairing.G1Point",
              "name": "c",
              "type": "tuple"
            }
          ],
          "internalType": "struct Verifier.Proof",
          "name": "proof",
          "type": "tuple"
        }
      ],
      "stateMutability": "pure",
      "type": "function",
      "constant": true
    }
  ],
  "bytecode": "0x608060405234801561001057600080fd5b5060405161001d9061007e565b604051809103906000f080158015610039573d6000803e3d6000fd5b506000806101000a81548173ffffffffffffffffffffffffffffffffffffffff021916908373ffffffffffffffffffffffffffffffffffffffff16021790555061008b565b61193580610a9683390190565b6109fc8061009a6000396000f3fe608060405234801561001057600080fd5b506004361061004c5760003560e01c80632b7ac3f31461005157806384104be91461006f578063d93cbc541461009f578063eb40077d146100cf575b600080fd5b6100596100ff565b6040516100669190610877565b60405180910390f35b610089600480360381019061008491906104e0565b610123565b60405161009691906108d2565b60405180910390f35b6100b960048036038101906100b491906104b7565b6101cf565b6040516100c6919061085c565b60405180910390f35b6100e960048036038101906100e49190610592565b6101ef565b6040516100f6919061085c565b60405180910390f35b60008054906101000a900473ffffffffffffffffffffffffffffffffffffffff1681565b61012b6103cf565b610133610402565b61013b61041c565b610143610402565b8b8360000181815250508a83602001818152505060405180604001604052808b81526020018a81525082600001819052506040518060400160405280898152602001888152508260200181905250858160000181815250508481602001818152505082846000018190525081846020018190525080846040018190525050505098975050505050505050565b60016020528060005260406000206000915054906101000a900460ff1681565b60006001600083815260200190815260200160002060009054906101000a900460ff1615610252576040517f08c379a0000000000000000000000000000000000000000000000000000000008152600401610249906108b2565b60405180910390fd5b60006102648b8b8b8b8b8b8b8b610123565b905060008054906101000a900473ffffffffffffffffffffffffffffffffffffffff1673ffffffffffffffffffffffffffffffffffffffff1663f6af0311826040518263ffffffff1660e01b81526004016102bf91906108d2565b60206040518083038186803b1580156102d757600080fd5b505afa92505050801561030857506040513d601f19601f82011682018060405250810190610305919061048e565b60015b61035757600061034d576040517f08c379a000000000000000000000000000000000000000000000000000000000815260040161034490610892565b60405180910390fd5b60009150506103c2565b50600180600085815260200190815260200160002060006101000a81548160ff0219169083151502179055507f9fbb711049feda7761c841c23846f78a83d6526b886aa614aa55764a56ade57433846040516103b4929190610833565b60405180910390a160019150505b9998505050505050505050565b60405180606001604052806103e2610402565b81526020016103ef61041c565b81526020016103fc610402565b81525090565b604051806040016040528060008152602001600081525090565b604051806040016040528061042f610442565b815260200161043c610442565b81525090565b6040518060400160405280600290602082028036833780820191505090505090565b60008151905061047381610998565b92915050565b600081359050610488816109af565b92915050565b6000602082840312156104a057600080fd5b60006104ae84828501610464565b91505092915050565b6000602082840312156104c957600080fd5b60006104d784828501610479565b91505092915050565b600080600080600080600080610100898b0312156104fd57600080fd5b600061050b8b828c01610479565b985050602061051c8b828c01610479565b975050604061052d8b828c01610479565b965050606061053e8b828c01610479565b955050608061054f8b828c01610479565b94505060a06105608b828c01610479565b93505060c06105718b828c01610479565b92505060e06105828b828c01610479565b9150509295985092959890939650565b60008060008060008060008060006101208a8c0312156105b157600080fd5b60006105bf8c828d01610479565b99505060206105d08c828d01610479565b98505060406105e18c828d01610479565b97505060606105f28c828d01610479565b96505060806106038c828d01610479565b95505060a06106148c828d01610479565b94505060c06106258c828d01610479565b93505060e06106368c828d01610479565b9250506101006106488c828d01610479565b9150509295985092959850929598565b60006106648383610815565b60208301905092915050565b6106798161092c565b82525050565b610688816108f8565b6106928184610910565b925061069d826108ee565b8060005b838110156106ce5781516106b58782610658565b96506106c083610903565b9250506001810190506106a1565b505050505050565b6106df8161093e565b82525050565b6106ee81610974565b82525050565b600061070160148361091b565b91507f54686520766f74657220697320696e76616c69640000000000000000000000006000830152602082019050919050565b6000610741601f8361091b565b91507f54686520757365722068617320616c72656164792072656769737465726564006000830152602082019050919050565b60408201600082015161078a6000850182610815565b50602082015161079d6020850182610815565b50505050565b6080820160008201516107b9600085018261067f565b5060208201516107cc604085018261067f565b50505050565b610100820160008201516107e96000850182610774565b5060208201516107fc60408501826107a3565b50604082015161080f60c0850182610774565b50505050565b61081e8161096a565b82525050565b61082d8161096a565b82525050565b60006040820190506108486000830185610670565b6108556020830184610824565b9392505050565b600060208201905061087160008301846106d6565b92915050565b600060208201905061088c60008301846106e5565b92915050565b600060208201905081810360008301526108ab816106f4565b9050919050565b600060208201905081810360008301526108cb81610734565b9050919050565b6000610100820190506108e860008301846107d2565b92915050565b6000819050919050565b600060029050919050565b6000602082019050919050565b600081905092915050565b600082825260208201905092915050565b60006109378261094a565b9050919050565b60008115159050919050565b600073ffffffffffffffffffffffffffffffffffffffff82169050919050565b6000819050919050565b600061097f82610986565b9050919050565b60006109918261094a565b9050919050565b6109a18161093e565b81146109ac57600080fd5b50565b6109b88161096a565b81146109c357600080fd5b5056fea2646970667358221220d8043f1af7da63079fe508034e0fe6d5c08d6eab2a34df0706727ce5872ebf6464736f6c63430008000033608060405234801561001057600080fd5b50611915806100206000396000f3fe608060405234801561001057600080fd5b506004361061002b5760003560e01c8063f6af031114610030575b600080fd5b61004a6004803603810190610045919061161c565b610060565b6040516100579190611655565b60405180910390f35b600080600067ffffffffffffffff8111156100a4577f4e487b7100000000000000000000000000000000000000000000000000000000600052604160045260246000fd5b6040519080825280602002602001820160405280156100d25781602001602082028036833780820191505090505b50905060006100e182856100fc565b14156100f15760019150506100f7565b60009150505b919050565b6000807f30644e72e131a029b85045b68181585d2833e84879b9709143e1f593f00000019050600061012c61032b565b90508060800151516001865161014291906116c7565b1461014c57600080fd5b60006040518060400160405280600081526020016000815250905060005b865181101561027757838782815181106101ad577f4e487b7100000000000000000000000000000000000000000000000000000000600052603260045260246000fd5b6020026020010151106101bf57600080fd5b6102628261025d85608001516001856101d891906116c7565b8151811061020f577f4e487b7100000000000000000000000000000000000000000000000000000000600052603260045260246000fd5b60200260200101518a8581518110610250577f4e487b7100000000000000000000000000000000000000000000000000000000600052603260045260246000fd5b6020026020010151610702565b61081b565b9150808061026f906117c1565b91505061016a565b506102c78183608001516000815181106102ba577f4e487b7100000000000000000000000000000000000000000000000000000000600052603260045260246000fd5b602002602001015161081b565b905061030d856000015186602001516102df84610980565b85604001516102f18a60400151610980565b87606001516103038960000151610980565b8960200151610a25565b61031d5760019350505050610325565b600093505050505b92915050565b610333611375565b60405180604001604052807f0e5607dc4f5c9ae2a1375326fc148b201eb953ec0ba24b5812648af67c12d63281526020017f24ecf7e0a2b0f741bb7d5d34a4318e123ef0064128f32c27784c3cf9c5e518338152508160000181905250604051806040016040528060405180604001604052807f2efa4d06fb37afc70d387aaf0106d999afd43404b19f0fd91beeef038181716981526020017f2a871b14ed3e9f83754d0db92d0e5af5026e9933561f2f4d7288606f773c85d8815250815260200160405180604001604052807f05d83806a749766217093aee60b0739f0afc0a2ddf1997277ac09ff3503b758981526020017f0b89a9734df9d9f854b85209136f653499f30008c1e5badee95fc6674a18e2018152508152508160200181905250604051806040016040528060405180604001604052807f0f77e874b86b1a4a9a2ddc0088f1a136c37d986f8ef5b71c7d7f367ae831c0c381526020017f27d4002fe46e4e6f8c617a273849a83c473eca23c677fa80e271953e3ed8e1d5815250815260200160405180604001604052807f0f589342f28b3ebe020253d374b81f82612ea2e025c7e3773dd0d881fe9c834d81526020017f21f6ba87e7b3464fcc98bcf9f9931a53d6be135afbf8e38ec329e682bf5637eb8152508152508160400181905250604051806040016040528060405180604001604052807f05c8f05a767b54b8093c57f687b00943c6377958855595cb0b88c478f866a71681526020017f01d3c78b8e9e2f5f11cb375e4bf6ae46d37c7e9d91c1fcbf23fe4d39f053938d815250815260200160405180604001604052807f1e2fe661841e66c7d445d49756b37e95b64e234cc4110a819fdcc57193a4e69781526020017e17f5e90905db4ff2420db4d54be1619bb1895f5d2f3a8fe12565e00834374c8152508152508160600181905250600167ffffffffffffffff81111561061f577f4e487b7100000000000000000000000000000000000000000000000000000000600052604160045260246000fd5b60405190808252806020026020018201604052801561065857816020015b6106456113bc565b81526020019060019003908161063d5790505b50816080018190525060405180604001604052807f125097d7f799c3732fa10ab0e0699587f5b0d475a73f6b9c140f54f0ef35736c81526020017f21000c343136c5bdfc03293a64171c591686de535e4c344ccf1b9d9b88b2595781525081608001516000815181106106f4577f4e487b7100000000000000000000000000000000000000000000000000000000600052603260045260246000fd5b602002602001018190525090565b61070a6113bc565b6107126113d6565b836000015181600060038110610751577f4e487b7100000000000000000000000000000000000000000000000000000000600052603260045260246000fd5b602002018181525050836020015181600160038110610799577f4e487b7100000000000000000000000000000000000000000000000000000000600052603260045260246000fd5b60200201818152505082816002600381106107dd577f4e487b7100000000000000000000000000000000000000000000000000000000600052603260045260246000fd5b602002018181525050600060608360808460076107d05a03fa9050806000811461080657610808565bfe5b508061081357600080fd5b505092915050565b6108236113bc565b61082b6113f8565b83600001518160006004811061086a577f4e487b7100000000000000000000000000000000000000000000000000000000600052603260045260246000fd5b6020020181815250508360200151816001600481106108b2577f4e487b7100000000000000000000000000000000000000000000000000000000600052603260045260246000fd5b6020020181815250508260000151816002600481106108fa577f4e487b7100000000000000000000000000000000000000000000000000000000600052603260045260246000fd5b602002018181525050826020015181600360048110610942577f4e487b7100000000000000000000000000000000000000000000000000000000600052603260045260246000fd5b602002018181525050600060608360c08460066107d05a03fa9050806000811461096b5761096d565bfe5b508061097857600080fd5b505092915050565b6109886113bc565b60007f30644e72e131a029b85045b68181585d97816a916871ca8d3c208c16d87cfd479050600083600001511480156109c5575060008360200151145b156109e9576040518060400160405280600081526020016000815250915050610a20565b604051806040016040528084600001518152602001828560200151610a0e919061180a565b83610a199190611777565b8152509150505b919050565b600080600467ffffffffffffffff811115610a69577f4e487b7100000000000000000000000000000000000000000000000000000000600052604160045260246000fd5b604051908082528060200260200182016040528015610aa257816020015b610a8f6113bc565b815260200190600190039081610a875790505b5090506000600467ffffffffffffffff811115610ae8577f4e487b7100000000000000000000000000000000000000000000000000000000600052604160045260246000fd5b604051908082528060200260200182016040528015610b2157816020015b610b0e61141a565b815260200190600190039081610b065790505b5090508a82600081518110610b5f577f4e487b7100000000000000000000000000000000000000000000000000000000600052603260045260246000fd5b60200260200101819052508882600181518110610ba5577f4e487b7100000000000000000000000000000000000000000000000000000000600052603260045260246000fd5b60200260200101819052508682600281518110610beb577f4e487b7100000000000000000000000000000000000000000000000000000000600052603260045260246000fd5b60200260200101819052508482600381518110610c31577f4e487b7100000000000000000000000000000000000000000000000000000000600052603260045260246000fd5b60200260200101819052508981600081518110610c77577f4e487b7100000000000000000000000000000000000000000000000000000000600052603260045260246000fd5b60200260200101819052508781600181518110610cbd577f4e487b7100000000000000000000000000000000000000000000000000000000600052603260045260246000fd5b60200260200101819052508581600281518110610d03577f4e487b7100000000000000000000000000000000000000000000000000000000600052603260045260246000fd5b60200260200101819052508381600381518110610d49577f4e487b7100000000000000000000000000000000000000000000000000000000600052603260045260246000fd5b6020026020010181905250610d5e8282610d6e565b9250505098975050505050505050565b60008151835114610d7e57600080fd5b6000835190506000600682610d93919061171d565b905060008167ffffffffffffffff811115610dd7577f4e487b7100000000000000000000000000000000000000000000000000000000600052604160045260246000fd5b604051908082528060200260200182016040528015610e055781602001602082028036833780820191505090505b50905060005b838110156112ea57868181518110610e4c577f4e487b7100000000000000000000000000000000000000000000000000000000600052603260045260246000fd5b602002602001015160000151826000600684610e68919061171d565b610e7291906116c7565b81518110610ea9577f4e487b7100000000000000000000000000000000000000000000000000000000600052603260045260246000fd5b602002602001018181525050868181518110610eee577f4e487b7100000000000000000000000000000000000000000000000000000000600052603260045260246000fd5b602002602001015160200151826001600684610f0a919061171d565b610f1491906116c7565b81518110610f4b577f4e487b7100000000000000000000000000000000000000000000000000000000600052603260045260246000fd5b602002602001018181525050858181518110610f90577f4e487b7100000000000000000000000000000000000000000000000000000000600052603260045260246000fd5b602002602001015160000151600160028110610fd5577f4e487b7100000000000000000000000000000000000000000000000000000000600052603260045260246000fd5b6020020151826002600684610fea919061171d565b610ff491906116c7565b8151811061102b577f4e487b7100000000000000000000000000000000000000000000000000000000600052603260045260246000fd5b602002602001018181525050858181518110611070577f4e487b7100000000000000000000000000000000000000000000000000000000600052603260045260246000fd5b6020026020010151600001516000600281106110b5577f4e487b7100000000000000000000000000000000000000000000000000000000600052603260045260246000fd5b60200201518260036006846110ca919061171d565b6110d491906116c7565b8151811061110b577f4e487b7100000000000000000000000000000000000000000000000000000000600052603260045260246000fd5b602002602001018181525050858181518110611150577f4e487b7100000000000000000000000000000000000000000000000000000000600052603260045260246000fd5b602002602001015160200151600160028110611195577f4e487b7100000000000000000000000000000000000000000000000000000000600052603260045260246000fd5b60200201518260046006846111aa919061171d565b6111b491906116c7565b815181106111eb577f4e487b7100000000000000000000000000000000000000000000000000000000600052603260045260246000fd5b602002602001018181525050858181518110611230577f4e487b7100000000000000000000000000000000000000000000000000000000600052603260045260246000fd5b602002602001015160200151600060028110611275577f4e487b7100000000000000000000000000000000000000000000000000000000600052603260045260246000fd5b602002015182600560068461128a919061171d565b61129491906116c7565b815181106112cb577f4e487b7100000000000000000000000000000000000000000000000000000000600052603260045260246000fd5b60200260200101818152505080806112e2906117c1565b915050610e0b565b506112f3611440565b6000602082602086026020860160086107d05a03fa905080600081146113185761131a565bfe5b508061132557600080fd5b600082600060018110611361577f4e487b7100000000000000000000000000000000000000000000000000000000600052603260045260246000fd5b602002015114159550505050505092915050565b6040518060a001604052806113886113bc565b815260200161139561141a565b81526020016113a261141a565b81526020016113af61141a565b8152602001606081525090565b604051806040016040528060008152602001600081525090565b6040518060600160405280600390602082028036833780820191505090505090565b6040518060800160405280600490602082028036833780820191505090505090565b604051806040016040528061142d611462565b815260200161143a611462565b81525090565b6040518060200160405280600190602082028036833780820191505090505090565b6040518060400160405280600290602082028036833780820191505090505090565b6000611497611492846116a1565b611670565b905080828560208602820111156114ad57600080fd5b60005b858110156114dd57816114c38882611607565b8452602084019350602083019250506001810190506114b0565b5050509392505050565b600082601f8301126114f857600080fd5b6002611505848285611484565b91505092915050565b60006040828403121561152057600080fd5b61152a6040611670565b9050600061153a84828501611607565b600083015250602061154e84828501611607565b60208301525092915050565b60006080828403121561156c57600080fd5b6115766040611670565b90506000611586848285016114e7565b600083015250604061159a848285016114e7565b60208301525092915050565b600061010082840312156115b957600080fd5b6115c36060611670565b905060006115d38482850161150e565b60008301525060406115e78482850161155a565b60208301525060c06115fb8482850161150e565b60408301525092915050565b600081359050611616816118c8565b92915050565b6000610100828403121561162f57600080fd5b600061163d848285016115a6565b91505092915050565b61164f816117ab565b82525050565b600060208201905061166a6000830184611646565b92915050565b6000604051905081810181811067ffffffffffffffff8211171561169757611696611899565b5b8060405250919050565b600067ffffffffffffffff8211156116bc576116bb611899565b5b602082029050919050565b60006116d2826117b7565b91506116dd836117b7565b9250827fffffffffffffffffffffffffffffffffffffffffffffffffffffffffffffffff038211156117125761171161183b565b5b828201905092915050565b6000611728826117b7565b9150611733836117b7565b9250817fffffffffffffffffffffffffffffffffffffffffffffffffffffffffffffffff048311821515161561176c5761176b61183b565b5b828202905092915050565b6000611782826117b7565b915061178d836117b7565b9250828210156117a05761179f61183b565b5b828203905092915050565b60008115159050919050565b6000819050919050565b60006117cc826117b7565b91507fffffffffffffffffffffffffffffffffffffffffffffffffffffffffffffffff8214156117ff576117fe61183b565b5b600182019050919050565b6000611815826117b7565b9150611820836117b7565b9250826118305761182f61186a565b5b828206905092915050565b7f4e487b7100000000000000000000000000000000000000000000000000000000600052601160045260246000fd5b7f4e487b7100000000000000000000000000000000000000000000000000000000600052601260045260246000fd5b7f4e487b7100000000000000000000000000000000000000000000000000000000600052604160045260246000fd5b6118d1816117b7565b81146118dc57600080fd5b5056fea2646970667358221220040b09f2f1f15fb3b3b3276b14aa0c175edba85f4531b12bfcd56d00e4c47e0d64736f6c63430008000033",
  "immutableReferences": {},
  "source": "//Because Ethereum is an open source project, the first line shows the contracts open source license.\r\n//The second line specifies the Solidity version necessary to execute this contract.\r\n\r\nimport './Verifier.sol';\r\n\r\n// SPDX-License-Identifier: GPL-3.0\r\npragma solidity >=0.8.0;\r\n\r\ncontract Registration {\r\n    Verifier public verifier;\r\n\r\n    // add a new Event\r\n    event NewRegistration(address sender, uint registeredHash);\r\n\r\n    mapping(uint256 => bool) public usersRegistered;\r\n\r\n    constructor(){\r\n        verifier = new Verifier();\r\n    }\r\n \r\n    function register(uint256 ax, uint256 ay, uint256 bx0, uint256 bx1, uint256 by0, uint256 by1, uint256 cx, uint256 cy, uint256 proofSha) public returns (bool){\r\n        //todo: check the args\r\n        require(!usersRegistered[proofSha], \"The user has already registered\");\r\n\r\n        // Use ZKP to proove the voter is in the appropriate voters list\r\n        Verifier.Proof memory proof= getProof(ax, ay, bx0, bx1, by0, by1, cx, cy);\r\n            \r\n        try verifier.verifyTx(proof) \r\n        {\r\n            usersRegistered[proofSha] = true;\r\n\r\n            emit NewRegistration(msg.sender, proofSha);\r\n\r\n            return true;\r\n        }\r\n        catch\r\n        {\r\n            require(false, \"The voter is invalid\");\r\n            return false;\r\n        }\r\n    }\r\n \r\n    //private functions\r\n    function getProof(uint256 ax, uint256 ay, uint256 bx0, uint256 bx1, uint256 by0, uint256 by1, uint256 cx, uint256 cy) public pure returns (Verifier.Proof memory proof) {\r\n        Pairing.G1Point memory a;\r\n        Pairing.G2Point memory b;\r\n        Pairing.G1Point memory c;\r\n\r\n        a.X = ax;\r\n        a.Y = ay;\r\n\r\n        b.X = [bx0,bx1];\r\n        b.Y = [by0,by1];\r\n\r\n        c.X = cx;\r\n        c.Y = cy;\r\n\r\n        proof.a = a;\r\n        proof.b = b;\r\n        proof.c = c;\r\n\r\n        return proof;\r\n    }\r\n}",
  "sourcePath": "D:\\Master\\Dizertatie\\workspace\\BlockchainVotingApp\\SmartContracts\\5_Teest\\registration\\contracts\\Registration.sol",
  "compiler": {
    "name": "solc",
    "version": "0.8.0+commit.c7dfd78e.Emscripten.clang"
  },
  "schemaVersion": "3.4.16",
  "updatedAt": "2024-02-05T11:50:23.669Z",
  "networkType": "ethereum",
  "devdoc": {
    "kind": "dev",
    "methods": {},
    "version": 1
  },
  "userdoc": {
    "kind": "user",
    "methods": {},
    "version": 1
  }
}