{
  "contractName": "Election",
  "abi": [
    {
      "inputs": [],
      "stateMutability": "nonpayable",
      "type": "constructor"
    },
    {
      "inputs": [],
      "name": "IsUpcomingElection",
      "outputs": [
        {
          "internalType": "bool",
          "name": "",
          "type": "bool"
        }
      ],
      "stateMutability": "view",
      "type": "function"
    },
    {
      "inputs": [
        {
          "internalType": "uint256",
          "name": "",
          "type": "uint256"
        }
      ],
      "name": "candidates",
      "outputs": [
        {
          "internalType": "bool",
          "name": "",
          "type": "bool"
        }
      ],
      "stateMutability": "view",
      "type": "function"
    },
    {
      "inputs": [
        {
          "internalType": "uint256",
          "name": "",
          "type": "uint256"
        }
      ],
      "name": "candidatesVotesCount",
      "outputs": [
        {
          "internalType": "uint256",
          "name": "",
          "type": "uint256"
        }
      ],
      "stateMutability": "view",
      "type": "function"
    },
    {
      "inputs": [
        {
          "internalType": "bytes32",
          "name": "",
          "type": "bytes32"
        }
      ],
      "name": "usersVoted",
      "outputs": [
        {
          "internalType": "bool",
          "name": "",
          "type": "bool"
        }
      ],
      "stateMutability": "view",
      "type": "function"
    },
    {
      "inputs": [],
      "name": "verifier",
      "outputs": [
        {
          "internalType": "contract Verifier",
          "name": "",
          "type": "address"
        }
      ],
      "stateMutability": "view",
      "type": "function"
    },
    {
      "inputs": [
        {
          "internalType": "bytes32",
          "name": "",
          "type": "bytes32"
        }
      ],
      "name": "votes",
      "outputs": [
        {
          "internalType": "uint256",
          "name": "",
          "type": "uint256"
        }
      ],
      "stateMutability": "view",
      "type": "function"
    },
    {
      "inputs": [],
      "name": "votesCount",
      "outputs": [
        {
          "internalType": "uint256",
          "name": "",
          "type": "uint256"
        }
      ],
      "stateMutability": "view",
      "type": "function"
    },
    {
      "inputs": [
        {
          "internalType": "uint256",
          "name": "candidateId",
          "type": "uint256"
        }
      ],
      "name": "addCandidate",
      "outputs": [],
      "stateMutability": "nonpayable",
      "type": "function"
    },
    {
      "inputs": [
        {
          "internalType": "uint256",
          "name": "ax",
          "type": "uint256"
        },
        {
          "internalType": "uint256",
          "name": "ay",
          "type": "uint256"
        },
        {
          "internalType": "uint256",
          "name": "bx0",
          "type": "uint256"
        },
        {
          "internalType": "uint256",
          "name": "bx1",
          "type": "uint256"
        },
        {
          "internalType": "uint256",
          "name": "by0",
          "type": "uint256"
        },
        {
          "internalType": "uint256",
          "name": "by1",
          "type": "uint256"
        },
        {
          "internalType": "uint256",
          "name": "cx",
          "type": "uint256"
        },
        {
          "internalType": "uint256",
          "name": "cy",
          "type": "uint256"
        },
        {
          "internalType": "uint256",
          "name": "candidateId",
          "type": "uint256"
        }
      ],
      "name": "castVote",
      "outputs": [
        {
          "internalType": "bool",
          "name": "",
          "type": "bool"
        }
      ],
      "stateMutability": "nonpayable",
      "type": "function"
    },
    {
      "inputs": [
        {
          "internalType": "uint256",
          "name": "ax",
          "type": "uint256"
        },
        {
          "internalType": "uint256",
          "name": "ay",
          "type": "uint256"
        },
        {
          "internalType": "uint256",
          "name": "bx0",
          "type": "uint256"
        },
        {
          "internalType": "uint256",
          "name": "bx1",
          "type": "uint256"
        },
        {
          "internalType": "uint256",
          "name": "by0",
          "type": "uint256"
        },
        {
          "internalType": "uint256",
          "name": "by1",
          "type": "uint256"
        },
        {
          "internalType": "uint256",
          "name": "cx",
          "type": "uint256"
        },
        {
          "internalType": "uint256",
          "name": "cy",
          "type": "uint256"
        }
      ],
      "name": "getUserVote",
      "outputs": [
        {
          "internalType": "uint256",
          "name": "CandidateId",
          "type": "uint256"
        }
      ],
      "stateMutability": "view",
      "type": "function"
    },
    {
      "inputs": [
        {
          "internalType": "bool",
          "name": "electionState",
          "type": "bool"
        }
      ],
      "name": "changeElectionState",
      "outputs": [],
      "stateMutability": "nonpayable",
      "type": "function"
    }
  ],
  "bytecode": "0x60806040526001600660006101000a81548160ff02191690831515021790555034801561002b57600080fd5b5060405161003890610099565b604051809103906000f080158015610054573d6000803e3d6000fd5b506000806101000a81548173ffffffffffffffffffffffffffffffffffffffff021916908373ffffffffffffffffffffffffffffffffffffffff1602179055506100a6565b6119368061172283390190565b61166d806100b56000396000f3fe608060405234801561001057600080fd5b50600436106100a95760003560e01c80634140be86116100715780634140be861461018c57806354c6c4b8146101a857806365c2b2bc146101d85780638778b27d14610208578063aa95124f14610226578063e844d09714610244576100a9565b806301fb5d6f146100ae5780630bd4dec1146100de5780632b38cd961461010e5780632b7ac3f31461013e5780633477ee2e1461015c575b600080fd5b6100c860048036038101906100c39190610d24565b610260565b6040516100d591906112e2565b60405180910390f35b6100f860048036038101906100f39190610c49565b6105de565b6040516101059190611474565b60405180910390f35b61012860048036038101906101239190610bf7565b6105f6565b6040516101359190611474565b60405180910390f35b61014661060e565b60405161015391906112fd565b60405180910390f35b61017660048036038101906101719190610c49565b610632565b60405161018391906112e2565b60405180910390f35b6101a660048036038101906101a19190610ba5565b610652565b005b6101c260048036038101906101bd9190610bf7565b61066f565b6040516101cf91906112e2565b60405180910390f35b6101f260048036038101906101ed9190610c72565b61068f565b6040516101ff9190611474565b60405180910390f35b61021061084d565b60405161021d9190611474565b60405180910390f35b61022e610853565b60405161023b91906112e2565b60405180910390f35b61025e60048036038101906102599190610c49565b610866565b005b6000808214156102a5576040517f08c379a000000000000000000000000000000000000000000000000000000000815260040161029c90611438565b60405180910390fd5b600660009054906101000a900460ff16156102f5576040517f08c379a00000000000000000000000000000000000000000000000000000000081526004016102ec90611318565b60405180910390fd5b60006004600084815260200190815260200160002054101561034c576040517f08c379a000000000000000000000000000000000000000000000000000000000815260040161034390611418565b60405180910390fd5b6005600083815260200190815260200160002060009054906101000a900460ff166103ac576040517f08c379a00000000000000000000000000000000000000000000000000000000081526004016103a3906113f8565b60405180910390fd5b60006103be8b8b8b8b8b8b8b8b6109a2565b905060008054906101000a900473ffffffffffffffffffffffffffffffffffffffff1673ffffffffffffffffffffffffffffffffffffffff1663f6af0311826040518263ffffffff1660e01b81526004016104199190611458565b60206040518083038186803b15801561043157600080fd5b505afa92505050801561046257506040513d601f19601f8201168201806040525081019061045f9190610bce565b60015b6104b15760006104a7576040517f08c379a000000000000000000000000000000000000000000000000000000000815260040161049e90611378565b60405180910390fd5b60009150506105d1565b506000816040516020016104c59190611458565b604051602081830303815290604052905060006104e182610a4e565b90506003600082815260200190815260200160002060009054906101000a900460ff1615610544576040517f08c379a000000000000000000000000000000000000000000000000000000000815260040161053b90611358565b60405180910390fd5b84600260008381526020019081526020016000208190555060016003600083815260200190815260200160002060006101000a81548160ff0219169083151502179055506004600086815260200190815260200160002060008154809291906105ac9061157a565b9190505550600160008154809291906105c49061157a565b9190505550600193505050505b9998505050505050505050565b60046020528060005260406000206000915090505481565b60026020528060005260406000206000915090505481565b60008054906101000a900473ffffffffffffffffffffffffffffffffffffffff1681565b60056020528060005260406000206000915054906101000a900460ff1681565b80600660006101000a81548160ff02191690831515021790555050565b60036020528060005260406000206000915054906101000a900460ff1681565b6000806106a28a8a8a8a8a8a8a8a6109a2565b905060008054906101000a900473ffffffffffffffffffffffffffffffffffffffff1673ffffffffffffffffffffffffffffffffffffffff1663f6af0311826040518263ffffffff1660e01b81526004016106fd9190611458565b60206040518083038186803b15801561071557600080fd5b505afa92505050801561074657506040513d601f19601f820116820180604052508101906107439190610bce565b60015b61079557600061078b576040517f08c379a000000000000000000000000000000000000000000000000000000000815260040161078290611378565b60405180910390fd5b6000915050610841565b506000816040516020016107a99190611458565b604051602081830303815290604052905060006107c582610a4e565b90506003600082815260200190815260200160002060009054906101000a900460ff16610827576040517f08c379a000000000000000000000000000000000000000000000000000000000815260040161081e90611398565b60405180910390fd5b600260008281526020019081526020016000205493505050505b98975050505050505050565b60015481565b600660009054906101000a900460ff1681565b60008114156108aa576040517f08c379a00000000000000000000000000000000000000000000000000000000081526004016108a190611338565b60405180910390fd5b600660009054906101000a900460ff166108f9576040517f08c379a00000000000000000000000000000000000000000000000000000000081526004016108f0906113d8565b60405180910390fd5b6005600082815260200190815260200160002060009054906101000a900460ff161561095a576040517f08c379a0000000000000000000000000000000000000000000000000000000008152600401610951906113b8565b60405180910390fd5b6000600460008381526020019081526020016000208190555060016005600083815260200190815260200160002060006101000a81548160ff02191690831515021790555050565b6109aa610aa7565b6109b2610ada565b6109ba610af4565b6109c2610ada565b8b8360000181815250508a83602001818152505060405180604001604052808b81526020018a81525082600001819052506040518060400160405280898152602001888152508260200181905250858160000181815250508481602001818152505082846000018190525081846020018190525080846040018190525050505098975050505050505050565b6000600282604051610a6091906112cb565b602060405180830381855afa158015610a7d573d6000803e3d6000fd5b5050506040513d601f19601f82011682018060405250810190610aa09190610c20565b9050919050565b6040518060600160405280610aba610ada565b8152602001610ac7610af4565b8152602001610ad4610ada565b81525090565b604051806040016040528060008152602001600081525090565b6040518060400160405280610b07610b1a565b8152602001610b14610b1a565b81525090565b6040518060400160405280600290602082028036833780820191505090505090565b600081359050610b4b816115f2565b92915050565b600081519050610b60816115f2565b92915050565b600081359050610b7581611609565b92915050565b600081519050610b8a81611609565b92915050565b600081359050610b9f81611620565b92915050565b600060208284031215610bb757600080fd5b6000610bc584828501610b3c565b91505092915050565b600060208284031215610be057600080fd5b6000610bee84828501610b51565b91505092915050565b600060208284031215610c0957600080fd5b6000610c1784828501610b66565b91505092915050565b600060208284031215610c3257600080fd5b6000610c4084828501610b7b565b91505092915050565b600060208284031215610c5b57600080fd5b6000610c6984828501610b90565b91505092915050565b600080600080600080600080610100898b031215610c8f57600080fd5b6000610c9d8b828c01610b90565b9850506020610cae8b828c01610b90565b9750506040610cbf8b828c01610b90565b9650506060610cd08b828c01610b90565b9550506080610ce18b828c01610b90565b94505060a0610cf28b828c01610b90565b93505060c0610d038b828c01610b90565b92505060e0610d148b828c01610b90565b9150509295985092959890939650565b60008060008060008060008060006101208a8c031215610d4357600080fd5b6000610d518c828d01610b90565b9950506020610d628c828d01610b90565b9850506040610d738c828d01610b90565b9750506060610d848c828d01610b90565b9650506080610d958c828d01610b90565b95505060a0610da68c828d01610b90565b94505060c0610db78c828d01610b90565b93505060e0610dc88c828d01610b90565b925050610100610dda8c828d01610b90565b9150509295985092959850929598565b6000610df683836112ad565b60208301905092915050565b610e0b81611499565b610e1581846114bc565b9250610e208261148f565b8060005b83811015610e51578151610e388782610dea565b9650610e43836114af565b925050600181019050610e24565b505050505050565b610e62816114e3565b82525050565b6000610e73826114a4565b610e7d81856114c7565b9350610e8d818560208601611547565b80840191505092915050565b610ea281611523565b82525050565b6000610eb56030836114d2565b91507f54686520656c656374696f6e206973207374696c6c207570636f6d696e672c2060008301527f796f752063616e6e6f7420766f746521000000000000000000000000000000006020830152604082019050919050565b6000610f1b6018836114d2565b91507f5468652063616e646964617465206964206973206e756c6c00000000000000006000830152602082019050919050565b6000610f5b601b836114d2565b91507f54686520757365722063616e20766f7465206f6e6c79206f6e636500000000006000830152602082019050919050565b6000610f9b6014836114d2565b91507f54686520766f74657220697320696e76616c69640000000000000000000000006000830152602082019050919050565b6000610fdb602b836114d2565b91507f4b657920646f6573206e6f74206578697374732e20546865207573657220686160008301527f73206e6f7420766f7465640000000000000000000000000000000000000000006020830152604082019050919050565b60006110416024836114d2565b91507f5468652063616e6469646174652068617320616c7265616479206265656e206160008301527f64646564000000000000000000000000000000000000000000000000000000006020830152604082019050919050565b60006110a76036836114d2565b91507f54686520656c656374696f6e2073686f756c64206265207570636f6d696e672060008301527f696e206f7264657220746f206265206368616e676564000000000000000000006020830152604082019050919050565b600061110d6037836114d2565b91507f5468652063616e6469646174652068617320746f20626520696e20746865206560008301527f6c656374696f6e2063616e64696461746573206c6973740000000000000000006020830152604082019050919050565b60006111736038836114d2565b91507f5468652063616e6469646174652068617320746f20626520696e20746865206360008301527f616e64696461746573566f746573436f756e74206c69737400000000000000006020830152604082019050919050565b60006111d96017836114d2565b91507f5468652063616e6469646174654964206973206e756c6c0000000000000000006000830152602082019050919050565b60408201600082015161122260008501826112ad565b50602082015161123560208501826112ad565b50505050565b6080820160008201516112516000850182610e02565b5060208201516112646040850182610e02565b50505050565b61010082016000820151611281600085018261120c565b506020820151611294604085018261123b565b5060408201516112a760c085018261120c565b50505050565b6112b681611519565b82525050565b6112c581611519565b82525050565b60006112d78284610e68565b915081905092915050565b60006020820190506112f76000830184610e59565b92915050565b60006020820190506113126000830184610e99565b92915050565b6000602082019050818103600083015261133181610ea8565b9050919050565b6000602082019050818103600083015261135181610f0e565b9050919050565b6000602082019050818103600083015261137181610f4e565b9050919050565b6000602082019050818103600083015261139181610f8e565b9050919050565b600060208201905081810360008301526113b181610fce565b9050919050565b600060208201905081810360008301526113d181611034565b9050919050565b600060208201905081810360008301526113f18161109a565b9050919050565b6000602082019050818103600083015261141181611100565b9050919050565b6000602082019050818103600083015261143181611166565b9050919050565b60006020820190508181036000830152611451816111cc565b9050919050565b60006101008201905061146e600083018461126a565b92915050565b600060208201905061148960008301846112bc565b92915050565b6000819050919050565b600060029050919050565b600081519050919050565b6000602082019050919050565b600081905092915050565b600081905092915050565b600082825260208201905092915050565b60008115159050919050565b6000819050919050565b600073ffffffffffffffffffffffffffffffffffffffff82169050919050565b6000819050919050565b600061152e82611535565b9050919050565b6000611540826114f9565b9050919050565b60005b8381101561156557808201518184015260208101905061154a565b83811115611574576000848401525b50505050565b600061158582611519565b91507fffffffffffffffffffffffffffffffffffffffffffffffffffffffffffffffff8214156115b8576115b76115c3565b5b600182019050919050565b7f4e487b7100000000000000000000000000000000000000000000000000000000600052601160045260246000fd5b6115fb816114e3565b811461160657600080fd5b50565b611612816114ef565b811461161d57600080fd5b50565b61162981611519565b811461163457600080fd5b5056fea2646970667358221220a844a5ceddb30c5e7017897cdb9d8747db3c626155db4a5457e19cd46cd65fd964736f6c63430008000033608060405234801561001057600080fd5b50611916806100206000396000f3fe608060405234801561001057600080fd5b506004361061002b5760003560e01c8063f6af031114610030575b600080fd5b61004a6004803603810190610045919061161d565b610060565b6040516100579190611656565b60405180910390f35b600080600067ffffffffffffffff8111156100a4577f4e487b7100000000000000000000000000000000000000000000000000000000600052604160045260246000fd5b6040519080825280602002602001820160405280156100d25781602001602082028036833780820191505090505b50905060006100e182856100fc565b14156100f15760019150506100f7565b60009150505b919050565b6000807f30644e72e131a029b85045b68181585d2833e84879b9709143e1f593f00000019050600061012c61032b565b90508060800151516001865161014291906116c8565b1461014c57600080fd5b60006040518060400160405280600081526020016000815250905060005b865181101561027757838782815181106101ad577f4e487b7100000000000000000000000000000000000000000000000000000000600052603260045260246000fd5b6020026020010151106101bf57600080fd5b6102628261025d85608001516001856101d891906116c8565b8151811061020f577f4e487b7100000000000000000000000000000000000000000000000000000000600052603260045260246000fd5b60200260200101518a8581518110610250577f4e487b7100000000000000000000000000000000000000000000000000000000600052603260045260246000fd5b6020026020010151610703565b61081c565b9150808061026f906117c2565b91505061016a565b506102c78183608001516000815181106102ba577f4e487b7100000000000000000000000000000000000000000000000000000000600052603260045260246000fd5b602002602001015161081c565b905061030d856000015186602001516102df84610981565b85604001516102f18a60400151610981565b87606001516103038960000151610981565b8960200151610a26565b61031d5760019350505050610325565b600093505050505b92915050565b610333611376565b60405180604001604052807f2d07e7e8d414ad547c89e0bdd8c2a8d247a6f966d2387641afca3497cc54f6bd81526020017f1978d244b4a115cd732cf1e9ee9f7f54ee2205c6565f48a42d9369af3a04d2b88152508160000181905250604051806040016040528060405180604001604052807f2ac0c1711c81e4fae27e2f02f62433f41d8ae3af3735f147343525d1ee5aa99081526020017f23e06032cda831493c9356dfd4aa8538fd7f561294f5406f6bb201c477c098b6815250815260200160405180604001604052807f02b116dc35b18e5994101580a99aba3f5fc9d86cec0fbfdc65e3b5d0b86721f881526020017f11a53bcdb64fa7789be13dc7d827ff65f2369f5bd6495133109a69ca15e775918152508152508160200181905250604051806040016040528060405180604001604052807f2d8b860286a8a79634c63e3bd63ddedb22febf324e92822e83940262eb4ed3eb81526020017f186e9997a48fc57e65a2bc29b87afb46c94458cc2e1fe7585924e430ef11e17c815250815260200160405180604001604052807f01cd0cff7bb72688fec5d479347f62532d935249679e49f0e703f641f838262281526020017f1b027dfcdf295f020233977ff82d8ba751d434622324abc9636a407f73cdf1aa8152508152508160400181905250604051806040016040528060405180604001604052807f27ea6428725da4881a4ef30225869f033f730fbf98ab4c169526abcaa063cdd681526020017f28d2e22cbb24233f84bfe35705f6e2afce7f3447b93fccbce4ecc2a7b91e4505815250815260200160405180604001604052807f064c7168430e49a53f69ce00a7d66ad33a32a61e31a927f2a5e94cdf3923498881526020017f15ce03a8441d073ed943041b2037fb0b75ceb8ed7411f7da81c0f8517a4317518152508152508160600181905250600167ffffffffffffffff811115610620577f4e487b7100000000000000000000000000000000000000000000000000000000600052604160045260246000fd5b60405190808252806020026020018201604052801561065957816020015b6106466113bd565b81526020019060019003908161063e5790505b50816080018190525060405180604001604052807f01104696ecbafa13ac83f42c7d8f709922ad5bc71553cd24506323f4d7c4d3e581526020017f0a935c58fb088c5573891073bcb7f3aee24dd48ba6cfe90e6f15c30fa620bf5a81525081608001516000815181106106f5577f4e487b7100000000000000000000000000000000000000000000000000000000600052603260045260246000fd5b602002602001018190525090565b61070b6113bd565b6107136113d7565b836000015181600060038110610752577f4e487b7100000000000000000000000000000000000000000000000000000000600052603260045260246000fd5b60200201818152505083602001518160016003811061079a577f4e487b7100000000000000000000000000000000000000000000000000000000600052603260045260246000fd5b60200201818152505082816002600381106107de577f4e487b7100000000000000000000000000000000000000000000000000000000600052603260045260246000fd5b602002018181525050600060608360808460076107d05a03fa9050806000811461080757610809565bfe5b508061081457600080fd5b505092915050565b6108246113bd565b61082c6113f9565b83600001518160006004811061086b577f4e487b7100000000000000000000000000000000000000000000000000000000600052603260045260246000fd5b6020020181815250508360200151816001600481106108b3577f4e487b7100000000000000000000000000000000000000000000000000000000600052603260045260246000fd5b6020020181815250508260000151816002600481106108fb577f4e487b7100000000000000000000000000000000000000000000000000000000600052603260045260246000fd5b602002018181525050826020015181600360048110610943577f4e487b7100000000000000000000000000000000000000000000000000000000600052603260045260246000fd5b602002018181525050600060608360c08460066107d05a03fa9050806000811461096c5761096e565bfe5b508061097957600080fd5b505092915050565b6109896113bd565b60007f30644e72e131a029b85045b68181585d97816a916871ca8d3c208c16d87cfd479050600083600001511480156109c6575060008360200151145b156109ea576040518060400160405280600081526020016000815250915050610a21565b604051806040016040528084600001518152602001828560200151610a0f919061180b565b83610a1a9190611778565b8152509150505b919050565b600080600467ffffffffffffffff811115610a6a577f4e487b7100000000000000000000000000000000000000000000000000000000600052604160045260246000fd5b604051908082528060200260200182016040528015610aa357816020015b610a906113bd565b815260200190600190039081610a885790505b5090506000600467ffffffffffffffff811115610ae9577f4e487b7100000000000000000000000000000000000000000000000000000000600052604160045260246000fd5b604051908082528060200260200182016040528015610b2257816020015b610b0f61141b565b815260200190600190039081610b075790505b5090508a82600081518110610b60577f4e487b7100000000000000000000000000000000000000000000000000000000600052603260045260246000fd5b60200260200101819052508882600181518110610ba6577f4e487b7100000000000000000000000000000000000000000000000000000000600052603260045260246000fd5b60200260200101819052508682600281518110610bec577f4e487b7100000000000000000000000000000000000000000000000000000000600052603260045260246000fd5b60200260200101819052508482600381518110610c32577f4e487b7100000000000000000000000000000000000000000000000000000000600052603260045260246000fd5b60200260200101819052508981600081518110610c78577f4e487b7100000000000000000000000000000000000000000000000000000000600052603260045260246000fd5b60200260200101819052508781600181518110610cbe577f4e487b7100000000000000000000000000000000000000000000000000000000600052603260045260246000fd5b60200260200101819052508581600281518110610d04577f4e487b7100000000000000000000000000000000000000000000000000000000600052603260045260246000fd5b60200260200101819052508381600381518110610d4a577f4e487b7100000000000000000000000000000000000000000000000000000000600052603260045260246000fd5b6020026020010181905250610d5f8282610d6f565b9250505098975050505050505050565b60008151835114610d7f57600080fd5b6000835190506000600682610d94919061171e565b905060008167ffffffffffffffff811115610dd8577f4e487b7100000000000000000000000000000000000000000000000000000000600052604160045260246000fd5b604051908082528060200260200182016040528015610e065781602001602082028036833780820191505090505b50905060005b838110156112eb57868181518110610e4d577f4e487b7100000000000000000000000000000000000000000000000000000000600052603260045260246000fd5b602002602001015160000151826000600684610e69919061171e565b610e7391906116c8565b81518110610eaa577f4e487b7100000000000000000000000000000000000000000000000000000000600052603260045260246000fd5b602002602001018181525050868181518110610eef577f4e487b7100000000000000000000000000000000000000000000000000000000600052603260045260246000fd5b602002602001015160200151826001600684610f0b919061171e565b610f1591906116c8565b81518110610f4c577f4e487b7100000000000000000000000000000000000000000000000000000000600052603260045260246000fd5b602002602001018181525050858181518110610f91577f4e487b7100000000000000000000000000000000000000000000000000000000600052603260045260246000fd5b602002602001015160000151600160028110610fd6577f4e487b7100000000000000000000000000000000000000000000000000000000600052603260045260246000fd5b6020020151826002600684610feb919061171e565b610ff591906116c8565b8151811061102c577f4e487b7100000000000000000000000000000000000000000000000000000000600052603260045260246000fd5b602002602001018181525050858181518110611071577f4e487b7100000000000000000000000000000000000000000000000000000000600052603260045260246000fd5b6020026020010151600001516000600281106110b6577f4e487b7100000000000000000000000000000000000000000000000000000000600052603260045260246000fd5b60200201518260036006846110cb919061171e565b6110d591906116c8565b8151811061110c577f4e487b7100000000000000000000000000000000000000000000000000000000600052603260045260246000fd5b602002602001018181525050858181518110611151577f4e487b7100000000000000000000000000000000000000000000000000000000600052603260045260246000fd5b602002602001015160200151600160028110611196577f4e487b7100000000000000000000000000000000000000000000000000000000600052603260045260246000fd5b60200201518260046006846111ab919061171e565b6111b591906116c8565b815181106111ec577f4e487b7100000000000000000000000000000000000000000000000000000000600052603260045260246000fd5b602002602001018181525050858181518110611231577f4e487b7100000000000000000000000000000000000000000000000000000000600052603260045260246000fd5b602002602001015160200151600060028110611276577f4e487b7100000000000000000000000000000000000000000000000000000000600052603260045260246000fd5b602002015182600560068461128b919061171e565b61129591906116c8565b815181106112cc577f4e487b7100000000000000000000000000000000000000000000000000000000600052603260045260246000fd5b60200260200101818152505080806112e3906117c2565b915050610e0c565b506112f4611441565b6000602082602086026020860160086107d05a03fa905080600081146113195761131b565bfe5b508061132657600080fd5b600082600060018110611362577f4e487b7100000000000000000000000000000000000000000000000000000000600052603260045260246000fd5b602002015114159550505050505092915050565b6040518060a001604052806113896113bd565b815260200161139661141b565b81526020016113a361141b565b81526020016113b061141b565b8152602001606081525090565b604051806040016040528060008152602001600081525090565b6040518060600160405280600390602082028036833780820191505090505090565b6040518060800160405280600490602082028036833780820191505090505090565b604051806040016040528061142e611463565b815260200161143b611463565b81525090565b6040518060200160405280600190602082028036833780820191505090505090565b6040518060400160405280600290602082028036833780820191505090505090565b6000611498611493846116a2565b611671565b905080828560208602820111156114ae57600080fd5b60005b858110156114de57816114c48882611608565b8452602084019350602083019250506001810190506114b1565b5050509392505050565b600082601f8301126114f957600080fd5b6002611506848285611485565b91505092915050565b60006040828403121561152157600080fd5b61152b6040611671565b9050600061153b84828501611608565b600083015250602061154f84828501611608565b60208301525092915050565b60006080828403121561156d57600080fd5b6115776040611671565b90506000611587848285016114e8565b600083015250604061159b848285016114e8565b60208301525092915050565b600061010082840312156115ba57600080fd5b6115c46060611671565b905060006115d48482850161150f565b60008301525060406115e88482850161155b565b60208301525060c06115fc8482850161150f565b60408301525092915050565b600081359050611617816118c9565b92915050565b6000610100828403121561163057600080fd5b600061163e848285016115a7565b91505092915050565b611650816117ac565b82525050565b600060208201905061166b6000830184611647565b92915050565b6000604051905081810181811067ffffffffffffffff821117156116985761169761189a565b5b8060405250919050565b600067ffffffffffffffff8211156116bd576116bc61189a565b5b602082029050919050565b60006116d3826117b8565b91506116de836117b8565b9250827fffffffffffffffffffffffffffffffffffffffffffffffffffffffffffffffff038211156117135761171261183c565b5b828201905092915050565b6000611729826117b8565b9150611734836117b8565b9250817fffffffffffffffffffffffffffffffffffffffffffffffffffffffffffffffff048311821515161561176d5761176c61183c565b5b828202905092915050565b6000611783826117b8565b915061178e836117b8565b9250828210156117a1576117a061183c565b5b828203905092915050565b60008115159050919050565b6000819050919050565b60006117cd826117b8565b91507fffffffffffffffffffffffffffffffffffffffffffffffffffffffffffffffff821415611800576117ff61183c565b5b600182019050919050565b6000611816826117b8565b9150611821836117b8565b9250826118315761183061186b565b5b828206905092915050565b7f4e487b7100000000000000000000000000000000000000000000000000000000600052601160045260246000fd5b7f4e487b7100000000000000000000000000000000000000000000000000000000600052601260045260246000fd5b7f4e487b7100000000000000000000000000000000000000000000000000000000600052604160045260246000fd5b6118d2816117b8565b81146118dd57600080fd5b5056fea2646970667358221220fc42e380fec35751efd1d885a6ce8f01c65d8758f83ba5b54c34a8205af264c064736f6c63430008000033",
  "immutableReferences": {},
  "source": "//Because Ethereum is an open source project, the first line shows the contracts open source license.\r\n//The second line specifies the Solidity version necessary to execute this contract.\r\n\r\nimport './Verifier.sol';\r\n\r\n// SPDX-License-Identifier: GPL-3.0\r\npragma solidity >=0.8.0;\r\n\r\ncontract Election {\r\n    Verifier public verifier;\r\n\r\n    constructor(){\r\n        verifier = new Verifier();\r\n    }\r\n\r\n    uint public votesCount;\r\n    mapping(bytes32 => uint) public votes;\r\n    mapping(bytes32 => bool) public usersVoted;\r\n\r\n    mapping(uint => uint) public candidatesVotesCount;\r\n    mapping(uint => bool) public candidates;\r\n\r\n    //Is the election is ongoing, changes to the election must not be made (eg. description or candidates of the election)\r\n    bool public IsUpcomingElection = true;\r\n\r\n    function addCandidate(uint candidateId) public {\r\n        require(candidateId != 0, \"The candidate id is null\");\r\n\r\n        require(IsUpcomingElection, \"The election should be upcoming in order to be changed\");\r\n\r\n        require(!candidates[candidateId], \"The candidate has already been added\");\r\n        \r\n        candidatesVotesCount[candidateId] = 0;\r\n        candidates[candidateId] = true;\r\n    }\r\n\r\n    function castVote(uint256 ax, uint256 ay, uint256 bx0, uint256 bx1, uint256 by0, uint256 by1, uint256 cx, uint256 cy, uint candidateId) public returns (bool){\r\n        //todo: check the other args\r\n        require(candidateId != 0, \"The candidateId is null\");\r\n\r\n        //The election should be ongoing in order to voter\r\n        require(!IsUpcomingElection, \"The election is still upcoming, you cannot vote!\");\r\n \r\n        //The candidate has to be in the candidates list for the current election\r\n        require(candidatesVotesCount[candidateId] >= 0, \"The candidate has to be in the candidatesVotesCount list\");\r\n        require(candidates[candidateId], \"The candidate has to be in the election candidates list\");\r\n\r\n        // Use ZKP to proove the voter is in the appropriate voters list\r\n        Verifier.Proof memory proof= getProof(ax, ay, bx0, bx1, by0, by1, cx, cy);\r\n            \r\n        try verifier.verifyTx(proof) \r\n        {\r\n            bytes memory encodedProof = abi.encode(proof);\r\n            bytes32 proofSha = getHash(encodedProof);\r\n\r\n            require(!usersVoted[proofSha], \"The user can vote only once\");\r\n        \r\n            votes[proofSha] = candidateId;\r\n            usersVoted[proofSha] = true;\r\n\r\n            candidatesVotesCount[candidateId]++;\r\n            votesCount++;\r\n            return true;\r\n        }\r\n        catch\r\n        {\r\n            require(false, \"The voter is invalid\");\r\n            return false;\r\n        }\r\n    }\r\n\r\n    //Get the votes of the user\r\n    function getUserVote(uint256 ax, uint256 ay, uint256 bx0, uint256 bx1, uint256 by0, uint256 by1, uint256 cx, uint256 cy) public view returns (uint CandidateId){\r\n        //Get Proof\r\n        Verifier.Proof memory proof= getProof(ax, ay, bx0, bx1, by0, by1, cx, cy);\r\n\r\n        try verifier.verifyTx(proof) \r\n        {\r\n            //Compute sha256 on proof\r\n            bytes memory encodedProof = abi.encode(proof);\r\n            bytes32 proofSha = getHash(encodedProof);\r\n\r\n            require(usersVoted[proofSha], \"Key does not exists. The user has not voted\");\r\n            return votes[proofSha];\r\n        }\r\n        catch\r\n        {\r\n            require(false, \"The voter is invalid\");\r\n            return 0;\r\n        } \r\n    }\r\n\r\n    //Check if the user has already voted (the voter is in the votes mapping)\r\n    //The function returns true if the voter has already voted, than returns false\r\n    // function checkUserHasVoted(uint voterId) public view returns (bool) {\r\n    //     require(voterId != 0, \"The voterId is null\");\r\n\r\n    //     if(votes[voterId] > 0 && usersVoted[voterId])\r\n    //         return true;\r\n    //     else\r\n    //         return false;\r\n    // }\r\n\r\n    //If the election change the state from upcoming to ungoing, set the IsUpcomingElection to true and do not let the users to made any other changes to the contract\r\n    function changeElectionState(bool electionState) public{\r\n        IsUpcomingElection = electionState;\r\n    }\r\n\r\n    //private functions\r\n    function getProof(uint256 ax, uint256 ay, uint256 bx0, uint256 bx1, uint256 by0, uint256 by1, uint256 cx, uint256 cy) internal pure returns (Verifier.Proof memory proof) {\r\n        Pairing.G1Point memory a;\r\n        Pairing.G2Point memory b;\r\n        Pairing.G1Point memory c;\r\n\r\n        a.X = ax;\r\n        a.Y = ay;\r\n\r\n        b.X = [bx0,bx1];\r\n        b.Y = [by0,by1];\r\n\r\n        c.X = cx;\r\n        c.Y = cy;\r\n\r\n        proof.a = a;\r\n        proof.b = b;\r\n        proof.c = c;\r\n\r\n        return proof;\r\n    }\r\n\r\n    function getHash(bytes memory data) internal pure returns (bytes32) {\r\n        return sha256(data);\r\n    }\r\n}",
  "sourcePath": "D:\\Master\\Dizertatie\\workspace\\BlockchainVotingApp\\SmartContracts\\18_Tucano\\contracts\\Election.sol",
  "compiler": {
    "name": "solc",
    "version": "0.8.0+commit.c7dfd78e.Emscripten.clang"
  },
  "schemaVersion": "3.4.16",
  "updatedAt": "2024-01-21T14:28:21.388Z",
  "devdoc": {
    "kind": "dev",
    "methods": {},
    "version": 1
  },
  "userdoc": {
    "kind": "user",
    "methods": {},
    "version": 1
  }
}