{
  "contractName": "Election",
  "abi": [
    {
      "inputs": [],
      "stateMutability": "nonpayable",
      "type": "constructor"
    },
    {
      "inputs": [],
      "name": "IsUpcomingElection",
      "outputs": [
        {
          "internalType": "bool",
          "name": "",
          "type": "bool"
        }
      ],
      "stateMutability": "view",
      "type": "function"
    },
    {
      "inputs": [
        {
          "internalType": "uint256",
          "name": "",
          "type": "uint256"
        }
      ],
      "name": "candidates",
      "outputs": [
        {
          "internalType": "bool",
          "name": "",
          "type": "bool"
        }
      ],
      "stateMutability": "view",
      "type": "function"
    },
    {
      "inputs": [
        {
          "internalType": "uint256",
          "name": "",
          "type": "uint256"
        }
      ],
      "name": "candidatesVotesCount",
      "outputs": [
        {
          "internalType": "uint256",
          "name": "",
          "type": "uint256"
        }
      ],
      "stateMutability": "view",
      "type": "function"
    },
    {
      "inputs": [
        {
          "internalType": "uint256",
          "name": "",
          "type": "uint256"
        }
      ],
      "name": "usersVoted",
      "outputs": [
        {
          "internalType": "bool",
          "name": "",
          "type": "bool"
        }
      ],
      "stateMutability": "view",
      "type": "function"
    },
    {
      "inputs": [],
      "name": "verifier",
      "outputs": [
        {
          "internalType": "contract Verifier",
          "name": "",
          "type": "address"
        }
      ],
      "stateMutability": "view",
      "type": "function"
    },
    {
      "inputs": [
        {
          "internalType": "uint256",
          "name": "",
          "type": "uint256"
        }
      ],
      "name": "votes",
      "outputs": [
        {
          "internalType": "uint256",
          "name": "",
          "type": "uint256"
        }
      ],
      "stateMutability": "view",
      "type": "function"
    },
    {
      "inputs": [],
      "name": "votesCount",
      "outputs": [
        {
          "internalType": "uint256",
          "name": "",
          "type": "uint256"
        }
      ],
      "stateMutability": "view",
      "type": "function"
    },
    {
      "inputs": [
        {
          "internalType": "uint256",
          "name": "candidateId",
          "type": "uint256"
        }
      ],
      "name": "addCandidate",
      "outputs": [],
      "stateMutability": "nonpayable",
      "type": "function"
    },
    {
      "inputs": [
        {
          "internalType": "uint256",
          "name": "ax",
          "type": "uint256"
        },
        {
          "internalType": "uint256",
          "name": "ay",
          "type": "uint256"
        },
        {
          "internalType": "uint256",
          "name": "bx0",
          "type": "uint256"
        },
        {
          "internalType": "uint256",
          "name": "bx1",
          "type": "uint256"
        },
        {
          "internalType": "uint256",
          "name": "by0",
          "type": "uint256"
        },
        {
          "internalType": "uint256",
          "name": "by1",
          "type": "uint256"
        },
        {
          "internalType": "uint256",
          "name": "cx",
          "type": "uint256"
        },
        {
          "internalType": "uint256",
          "name": "cy",
          "type": "uint256"
        },
        {
          "internalType": "uint256",
          "name": "proofSha",
          "type": "uint256"
        },
        {
          "internalType": "uint256",
          "name": "candidateId",
          "type": "uint256"
        }
      ],
      "name": "castVote",
      "outputs": [
        {
          "internalType": "bool",
          "name": "",
          "type": "bool"
        }
      ],
      "stateMutability": "nonpayable",
      "type": "function"
    },
    {
      "inputs": [
        {
          "internalType": "uint256",
          "name": "proofSha",
          "type": "uint256"
        }
      ],
      "name": "getUserVote",
      "outputs": [
        {
          "internalType": "uint256",
          "name": "CandidateId",
          "type": "uint256"
        }
      ],
      "stateMutability": "view",
      "type": "function"
    },
    {
      "inputs": [
        {
          "internalType": "uint256",
          "name": "proofSha",
          "type": "uint256"
        }
      ],
      "name": "checkUserHasVoted",
      "outputs": [
        {
          "internalType": "bool",
          "name": "",
          "type": "bool"
        }
      ],
      "stateMutability": "view",
      "type": "function"
    },
    {
      "inputs": [
        {
          "internalType": "bool",
          "name": "electionState",
          "type": "bool"
        }
      ],
      "name": "changeElectionState",
      "outputs": [],
      "stateMutability": "nonpayable",
      "type": "function"
    },
    {
      "inputs": [
        {
          "internalType": "uint256",
          "name": "ax",
          "type": "uint256"
        },
        {
          "internalType": "uint256",
          "name": "ay",
          "type": "uint256"
        },
        {
          "internalType": "uint256",
          "name": "bx0",
          "type": "uint256"
        },
        {
          "internalType": "uint256",
          "name": "bx1",
          "type": "uint256"
        },
        {
          "internalType": "uint256",
          "name": "by0",
          "type": "uint256"
        },
        {
          "internalType": "uint256",
          "name": "by1",
          "type": "uint256"
        },
        {
          "internalType": "uint256",
          "name": "cx",
          "type": "uint256"
        },
        {
          "internalType": "uint256",
          "name": "cy",
          "type": "uint256"
        }
      ],
      "name": "getProof",
      "outputs": [
        {
          "components": [
            {
              "components": [
                {
                  "internalType": "uint256",
                  "name": "X",
                  "type": "uint256"
                },
                {
                  "internalType": "uint256",
                  "name": "Y",
                  "type": "uint256"
                }
              ],
              "internalType": "struct Pairing.G1Point",
              "name": "a",
              "type": "tuple"
            },
            {
              "components": [
                {
                  "internalType": "uint256[2]",
                  "name": "X",
                  "type": "uint256[2]"
                },
                {
                  "internalType": "uint256[2]",
                  "name": "Y",
                  "type": "uint256[2]"
                }
              ],
              "internalType": "struct Pairing.G2Point",
              "name": "b",
              "type": "tuple"
            },
            {
              "components": [
                {
                  "internalType": "uint256",
                  "name": "X",
                  "type": "uint256"
                },
                {
                  "internalType": "uint256",
                  "name": "Y",
                  "type": "uint256"
                }
              ],
              "internalType": "struct Pairing.G1Point",
              "name": "c",
              "type": "tuple"
            }
          ],
          "internalType": "struct Verifier.Proof",
          "name": "proof",
          "type": "tuple"
        }
      ],
      "stateMutability": "pure",
      "type": "function"
    }
  ],
  "bytecode": "0x60806040526001600660006101000a81548160ff02191690831515021790555034801561002b57600080fd5b5060405161003890610099565b604051809103906000f080158015610054573d6000803e3d6000fd5b506000806101000a81548173ffffffffffffffffffffffffffffffffffffffff021916908373ffffffffffffffffffffffffffffffffffffffff1602179055506100a6565b611935806115c083390190565b61150b806100b56000396000f3fe608060405234801561001057600080fd5b50600436106100cf5760003560e01c80635df813301161008c5780638778b27d116100665780638778b27d1461025e5780639c85af6f1461027c578063aa95124f146102ac578063e844d097146102ca576100cf565b80635df81330146101ce57806384104be9146101fe57806386194c191461022e576100cf565b80630bd4dec1146100d457806316a47c6d146101045780632b7ac3f3146101345780633477ee2e146101525780633f4cd184146101825780634140be86146101b2575b600080fd5b6100ee60048036038101906100e99190610b24565b6102e6565b6040516100fb919061137c565b60405180910390f35b61011e60048036038101906101199190610bff565b6102fe565b60405161012b91906111ca565b60405180910390f35b61013c61064a565b60405161014991906111e5565b60405180910390f35b61016c60048036038101906101679190610b24565b61066e565b60405161017991906111ca565b60405180910390f35b61019c60048036038101906101979190610b24565b61068e565b6040516101a991906111ca565b60405180910390f35b6101cc60048036038101906101c79190610ad2565b61072b565b005b6101e860048036038101906101e39190610b24565b610748565b6040516101f5919061137c565b60405180910390f35b61021860048036038101906102139190610b4d565b610760565b6040516102259190611360565b60405180910390f35b61024860048036038101906102439190610b24565b61080c565b604051610255919061137c565b60405180910390f35b610266610889565b604051610273919061137c565b60405180910390f35b61029660048036038101906102919190610b24565b61088f565b6040516102a391906111ca565b60405180910390f35b6102b46108af565b6040516102c191906111ca565b60405180910390f35b6102e460048036038101906102df9190610b24565b6108c2565b005b60046020528060005260406000206000915090505481565b600080821415610343576040517f08c379a000000000000000000000000000000000000000000000000000000000815260040161033a90611340565b60405180910390fd5b600660009054906101000a900460ff1615610393576040517f08c379a000000000000000000000000000000000000000000000000000000000815260040161038a90611200565b60405180910390fd5b6000600460008481526020019081526020016000205410156103ea576040517f08c379a00000000000000000000000000000000000000000000000000000000081526004016103e190611300565b60405180910390fd5b6005600083815260200190815260200160002060009054906101000a900460ff1661044a576040517f08c379a0000000000000000000000000000000000000000000000000000000008152600401610441906112e0565b60405180910390fd5b6003600084815260200190815260200160002060009054906101000a900460ff16156104ab576040517f08c379a00000000000000000000000000000000000000000000000000000000081526004016104a290611240565b60405180910390fd5b60006104bd8c8c8c8c8c8c8c8c610760565b905060008054906101000a900473ffffffffffffffffffffffffffffffffffffffff1673ffffffffffffffffffffffffffffffffffffffff1663f6af0311826040518263ffffffff1660e01b81526004016105189190611360565b60206040518083038186803b15801561053057600080fd5b505afa92505050801561056157506040513d601f19601f8201168201806040525081019061055e9190610afb565b60015b6105b05760006105a6576040517f08c379a000000000000000000000000000000000000000000000000000000000815260040161059d90611260565b60405180910390fd5b600091505061063c565b5082600260008681526020019081526020016000208190555060016003600086815260200190815260200160002060006101000a81548160ff0219169083151502179055506004600084815260200190815260200160002060008154809291906106199061142f565b9190505550600160008154809291906106319061142f565b919050555060019150505b9a9950505050505050505050565b60008054906101000a900473ffffffffffffffffffffffffffffffffffffffff1681565b60056020528060005260406000206000915054906101000a900460ff1681565b6000808214156106d3576040517f08c379a00000000000000000000000000000000000000000000000000000000081526004016106ca90611320565b60405180910390fd5b6000600260008481526020019081526020016000205411801561071357506003600083815260200190815260200160002060009054906101000a900460ff165b156107215760019050610726565b600090505b919050565b80600660006101000a81548160ff02191690831515021790555050565b60026020528060005260406000206000915090505481565b6107686109fe565b610770610a31565b610778610a4b565b610780610a31565b8b8360000181815250508a83602001818152505060405180604001604052808b81526020018a81525082600001819052506040518060400160405280898152602001888152508260200181905250858160000181815250508481602001818152505082846000018190525081846020018190525080846040018190525050505098975050505050505050565b60006003600083815260200190815260200160002060009054906101000a900460ff1661086e576040517f08c379a000000000000000000000000000000000000000000000000000000000815260040161086590611280565b60405180910390fd5b60026000838152602001908152602001600020549050919050565b60015481565b60036020528060005260406000206000915054906101000a900460ff1681565b600660009054906101000a900460ff1681565b6000811415610906576040517f08c379a00000000000000000000000000000000000000000000000000000000081526004016108fd90611220565b60405180910390fd5b600660009054906101000a900460ff16610955576040517f08c379a000000000000000000000000000000000000000000000000000000000815260040161094c906112c0565b60405180910390fd5b6005600082815260200190815260200160002060009054906101000a900460ff16156109b6576040517f08c379a00000000000000000000000000000000000000000000000000000000081526004016109ad906112a0565b60405180910390fd5b6000600460008381526020019081526020016000208190555060016005600083815260200190815260200160002060006101000a81548160ff02191690831515021790555050565b6040518060600160405280610a11610a31565b8152602001610a1e610a4b565b8152602001610a2b610a31565b81525090565b604051806040016040528060008152602001600081525090565b6040518060400160405280610a5e610a71565b8152602001610a6b610a71565b81525090565b6040518060400160405280600290602082028036833780820191505090505090565b600081359050610aa2816114a7565b92915050565b600081519050610ab7816114a7565b92915050565b600081359050610acc816114be565b92915050565b600060208284031215610ae457600080fd5b6000610af284828501610a93565b91505092915050565b600060208284031215610b0d57600080fd5b6000610b1b84828501610aa8565b91505092915050565b600060208284031215610b3657600080fd5b6000610b4484828501610abd565b91505092915050565b600080600080600080600080610100898b031215610b6a57600080fd5b6000610b788b828c01610abd565b9850506020610b898b828c01610abd565b9750506040610b9a8b828c01610abd565b9650506060610bab8b828c01610abd565b9550506080610bbc8b828c01610abd565b94505060a0610bcd8b828c01610abd565b93505060c0610bde8b828c01610abd565b92505060e0610bef8b828c01610abd565b9150509295985092959890939650565b6000806000806000806000806000806101408b8d031215610c1f57600080fd5b6000610c2d8d828e01610abd565b9a50506020610c3e8d828e01610abd565b9950506040610c4f8d828e01610abd565b9850506060610c608d828e01610abd565b9750506080610c718d828e01610abd565b96505060a0610c828d828e01610abd565b95505060c0610c938d828e01610abd565b94505060e0610ca48d828e01610abd565b935050610100610cb68d828e01610abd565b925050610120610cc88d828e01610abd565b9150509295989b9194979a5092959850565b6000610ce683836111ac565b60208301905092915050565b610cfb816113a1565b610d0581846113b9565b9250610d1082611397565b8060005b83811015610d41578151610d288782610cda565b9650610d33836113ac565b925050600181019050610d14565b505050505050565b610d52816113d5565b82525050565b610d618161140b565b82525050565b6000610d746030836113c4565b91507f54686520656c656374696f6e206973207374696c6c207570636f6d696e672c2060008301527f796f752063616e6e6f7420766f746521000000000000000000000000000000006020830152604082019050919050565b6000610dda6018836113c4565b91507f5468652063616e646964617465206964206973206e756c6c00000000000000006000830152602082019050919050565b6000610e1a601b836113c4565b91507f54686520757365722063616e20766f7465206f6e6c79206f6e636500000000006000830152602082019050919050565b6000610e5a6014836113c4565b91507f54686520766f74657220697320696e76616c69640000000000000000000000006000830152602082019050919050565b6000610e9a602b836113c4565b91507f4b657920646f6573206e6f74206578697374732e20546865207573657220686160008301527f73206e6f7420766f7465640000000000000000000000000000000000000000006020830152604082019050919050565b6000610f006024836113c4565b91507f5468652063616e6469646174652068617320616c7265616479206265656e206160008301527f64646564000000000000000000000000000000000000000000000000000000006020830152604082019050919050565b6000610f666036836113c4565b91507f54686520656c656374696f6e2073686f756c64206265207570636f6d696e672060008301527f696e206f7264657220746f206265206368616e676564000000000000000000006020830152604082019050919050565b6000610fcc6037836113c4565b91507f5468652063616e6469646174652068617320746f20626520696e20746865206560008301527f6c656374696f6e2063616e64696461746573206c6973740000000000000000006020830152604082019050919050565b60006110326038836113c4565b91507f5468652063616e6469646174652068617320746f20626520696e20746865206360008301527f616e64696461746573566f746573436f756e74206c69737400000000000000006020830152604082019050919050565b60006110986013836113c4565b91507f54686520766f7465724964206973206e756c6c000000000000000000000000006000830152602082019050919050565b60006110d86017836113c4565b91507f5468652063616e6469646174654964206973206e756c6c0000000000000000006000830152602082019050919050565b60408201600082015161112160008501826111ac565b50602082015161113460208501826111ac565b50505050565b6080820160008201516111506000850182610cf2565b5060208201516111636040850182610cf2565b50505050565b61010082016000820151611180600085018261110b565b506020820151611193604085018261113a565b5060408201516111a660c085018261110b565b50505050565b6111b581611401565b82525050565b6111c481611401565b82525050565b60006020820190506111df6000830184610d49565b92915050565b60006020820190506111fa6000830184610d58565b92915050565b6000602082019050818103600083015261121981610d67565b9050919050565b6000602082019050818103600083015261123981610dcd565b9050919050565b6000602082019050818103600083015261125981610e0d565b9050919050565b6000602082019050818103600083015261127981610e4d565b9050919050565b6000602082019050818103600083015261129981610e8d565b9050919050565b600060208201905081810360008301526112b981610ef3565b9050919050565b600060208201905081810360008301526112d981610f59565b9050919050565b600060208201905081810360008301526112f981610fbf565b9050919050565b6000602082019050818103600083015261131981611025565b9050919050565b600060208201905081810360008301526113398161108b565b9050919050565b60006020820190508181036000830152611359816110cb565b9050919050565b6000610100820190506113766000830184611169565b92915050565b600060208201905061139160008301846111bb565b92915050565b6000819050919050565b600060029050919050565b6000602082019050919050565b600081905092915050565b600082825260208201905092915050565b60008115159050919050565b600073ffffffffffffffffffffffffffffffffffffffff82169050919050565b6000819050919050565b60006114168261141d565b9050919050565b6000611428826113e1565b9050919050565b600061143a82611401565b91507fffffffffffffffffffffffffffffffffffffffffffffffffffffffffffffffff82141561146d5761146c611478565b5b600182019050919050565b7f4e487b7100000000000000000000000000000000000000000000000000000000600052601160045260246000fd5b6114b0816113d5565b81146114bb57600080fd5b50565b6114c781611401565b81146114d257600080fd5b5056fea26469706673582212201424a7ec00d053e0cd423bb5a18a199a30102be797e13b37513b3cbe585a5e9764736f6c63430008000033608060405234801561001057600080fd5b50611915806100206000396000f3fe608060405234801561001057600080fd5b506004361061002b5760003560e01c8063f6af031114610030575b600080fd5b61004a6004803603810190610045919061161c565b610060565b6040516100579190611655565b60405180910390f35b600080600067ffffffffffffffff8111156100a4577f4e487b7100000000000000000000000000000000000000000000000000000000600052604160045260246000fd5b6040519080825280602002602001820160405280156100d25781602001602082028036833780820191505090505b50905060006100e182856100fc565b14156100f15760019150506100f7565b60009150505b919050565b6000807f30644e72e131a029b85045b68181585d2833e84879b9709143e1f593f00000019050600061012c61032b565b90508060800151516001865161014291906116c7565b1461014c57600080fd5b60006040518060400160405280600081526020016000815250905060005b865181101561027757838782815181106101ad577f4e487b7100000000000000000000000000000000000000000000000000000000600052603260045260246000fd5b6020026020010151106101bf57600080fd5b6102628261025d85608001516001856101d891906116c7565b8151811061020f577f4e487b7100000000000000000000000000000000000000000000000000000000600052603260045260246000fd5b60200260200101518a8581518110610250577f4e487b7100000000000000000000000000000000000000000000000000000000600052603260045260246000fd5b6020026020010151610702565b61081b565b9150808061026f906117c1565b91505061016a565b506102c78183608001516000815181106102ba577f4e487b7100000000000000000000000000000000000000000000000000000000600052603260045260246000fd5b602002602001015161081b565b905061030d856000015186602001516102df84610980565b85604001516102f18a60400151610980565b87606001516103038960000151610980565b8960200151610a25565b61031d5760019350505050610325565b600093505050505b92915050565b610333611375565b60405180604001604052807e0a51db21b42d394e0cf3ec8d40a58d1d20805fa0d1eb24d4a7dbd77f4b826781526020017f05c0cd10a089b9c33ed6072e045d5530789a39ac1c08f0115a43cc0bad3c2e258152508160000181905250604051806040016040528060405180604001604052807f1178adae8c1146e1745b68848b16308557e4fcf2ffd93e6d811959bd8cd864eb81526020017f24772c955eefed6c0c7db7f30385641ad2f15fccf4c9ade344012c02ad493d60815250815260200160405180604001604052807f2acac425b9ebbf35e9ba552bb28e1f0b4499985d2bea1053ca65f947cf12a0e881526020017f282be1549e27d450fc1ffd3778a4dd06af61f8281af21f437460d7a2c406248c8152508152508160200181905250604051806040016040528060405180604001604052807f03f06ea241ce0f87a334aa3b6bcf630e9a00ab4e1714ebdbc01f2c681106261a81526020017f0d436746fe5935ce346b91837342eb0173cb07ba392852e28c08a066fe6ee509815250815260200160405180604001604052807f1de41024e082c6a1e6c153b9f67771371d27d794f8187ad227b4133f99b6df8b81526020017f016ebc671a46028f1953d0ae2f550d70785e32cc36c1302bdf525fc06b32c7188152508152508160400181905250604051806040016040528060405180604001604052807f23188faf4200fe81c162e3b6ee42e906538597a4fda43b8b3454c8b538f6ff5e81526020017f065bfd459b6e9debc739f697dfe056cf15a47ba2421401bed29a1f4eedbc764c815250815260200160405180604001604052807f13d703f6a138c8119a42fa95feb464530fd69572b013a027928909a2823d6ae881526020017f0f6aeaaee922e93c33ed15b235352100126010b44671e937db1fbc4896fed3738152508152508160600181905250600167ffffffffffffffff81111561061f577f4e487b7100000000000000000000000000000000000000000000000000000000600052604160045260246000fd5b60405190808252806020026020018201604052801561065857816020015b6106456113bc565b81526020019060019003908161063d5790505b50816080018190525060405180604001604052807f1a3f4783430c19d22685f57159277968ffb01a372ae2b5aca3608ea74f41492681526020017f2bec8bffaed39a381dbfbb55bd1913140c9511baf7b8f28d05e0425dcd65e16281525081608001516000815181106106f4577f4e487b7100000000000000000000000000000000000000000000000000000000600052603260045260246000fd5b602002602001018190525090565b61070a6113bc565b6107126113d6565b836000015181600060038110610751577f4e487b7100000000000000000000000000000000000000000000000000000000600052603260045260246000fd5b602002018181525050836020015181600160038110610799577f4e487b7100000000000000000000000000000000000000000000000000000000600052603260045260246000fd5b60200201818152505082816002600381106107dd577f4e487b7100000000000000000000000000000000000000000000000000000000600052603260045260246000fd5b602002018181525050600060608360808460076107d05a03fa9050806000811461080657610808565bfe5b508061081357600080fd5b505092915050565b6108236113bc565b61082b6113f8565b83600001518160006004811061086a577f4e487b7100000000000000000000000000000000000000000000000000000000600052603260045260246000fd5b6020020181815250508360200151816001600481106108b2577f4e487b7100000000000000000000000000000000000000000000000000000000600052603260045260246000fd5b6020020181815250508260000151816002600481106108fa577f4e487b7100000000000000000000000000000000000000000000000000000000600052603260045260246000fd5b602002018181525050826020015181600360048110610942577f4e487b7100000000000000000000000000000000000000000000000000000000600052603260045260246000fd5b602002018181525050600060608360c08460066107d05a03fa9050806000811461096b5761096d565bfe5b508061097857600080fd5b505092915050565b6109886113bc565b60007f30644e72e131a029b85045b68181585d97816a916871ca8d3c208c16d87cfd479050600083600001511480156109c5575060008360200151145b156109e9576040518060400160405280600081526020016000815250915050610a20565b604051806040016040528084600001518152602001828560200151610a0e919061180a565b83610a199190611777565b8152509150505b919050565b600080600467ffffffffffffffff811115610a69577f4e487b7100000000000000000000000000000000000000000000000000000000600052604160045260246000fd5b604051908082528060200260200182016040528015610aa257816020015b610a8f6113bc565b815260200190600190039081610a875790505b5090506000600467ffffffffffffffff811115610ae8577f4e487b7100000000000000000000000000000000000000000000000000000000600052604160045260246000fd5b604051908082528060200260200182016040528015610b2157816020015b610b0e61141a565b815260200190600190039081610b065790505b5090508a82600081518110610b5f577f4e487b7100000000000000000000000000000000000000000000000000000000600052603260045260246000fd5b60200260200101819052508882600181518110610ba5577f4e487b7100000000000000000000000000000000000000000000000000000000600052603260045260246000fd5b60200260200101819052508682600281518110610beb577f4e487b7100000000000000000000000000000000000000000000000000000000600052603260045260246000fd5b60200260200101819052508482600381518110610c31577f4e487b7100000000000000000000000000000000000000000000000000000000600052603260045260246000fd5b60200260200101819052508981600081518110610c77577f4e487b7100000000000000000000000000000000000000000000000000000000600052603260045260246000fd5b60200260200101819052508781600181518110610cbd577f4e487b7100000000000000000000000000000000000000000000000000000000600052603260045260246000fd5b60200260200101819052508581600281518110610d03577f4e487b7100000000000000000000000000000000000000000000000000000000600052603260045260246000fd5b60200260200101819052508381600381518110610d49577f4e487b7100000000000000000000000000000000000000000000000000000000600052603260045260246000fd5b6020026020010181905250610d5e8282610d6e565b9250505098975050505050505050565b60008151835114610d7e57600080fd5b6000835190506000600682610d93919061171d565b905060008167ffffffffffffffff811115610dd7577f4e487b7100000000000000000000000000000000000000000000000000000000600052604160045260246000fd5b604051908082528060200260200182016040528015610e055781602001602082028036833780820191505090505b50905060005b838110156112ea57868181518110610e4c577f4e487b7100000000000000000000000000000000000000000000000000000000600052603260045260246000fd5b602002602001015160000151826000600684610e68919061171d565b610e7291906116c7565b81518110610ea9577f4e487b7100000000000000000000000000000000000000000000000000000000600052603260045260246000fd5b602002602001018181525050868181518110610eee577f4e487b7100000000000000000000000000000000000000000000000000000000600052603260045260246000fd5b602002602001015160200151826001600684610f0a919061171d565b610f1491906116c7565b81518110610f4b577f4e487b7100000000000000000000000000000000000000000000000000000000600052603260045260246000fd5b602002602001018181525050858181518110610f90577f4e487b7100000000000000000000000000000000000000000000000000000000600052603260045260246000fd5b602002602001015160000151600160028110610fd5577f4e487b7100000000000000000000000000000000000000000000000000000000600052603260045260246000fd5b6020020151826002600684610fea919061171d565b610ff491906116c7565b8151811061102b577f4e487b7100000000000000000000000000000000000000000000000000000000600052603260045260246000fd5b602002602001018181525050858181518110611070577f4e487b7100000000000000000000000000000000000000000000000000000000600052603260045260246000fd5b6020026020010151600001516000600281106110b5577f4e487b7100000000000000000000000000000000000000000000000000000000600052603260045260246000fd5b60200201518260036006846110ca919061171d565b6110d491906116c7565b8151811061110b577f4e487b7100000000000000000000000000000000000000000000000000000000600052603260045260246000fd5b602002602001018181525050858181518110611150577f4e487b7100000000000000000000000000000000000000000000000000000000600052603260045260246000fd5b602002602001015160200151600160028110611195577f4e487b7100000000000000000000000000000000000000000000000000000000600052603260045260246000fd5b60200201518260046006846111aa919061171d565b6111b491906116c7565b815181106111eb577f4e487b7100000000000000000000000000000000000000000000000000000000600052603260045260246000fd5b602002602001018181525050858181518110611230577f4e487b7100000000000000000000000000000000000000000000000000000000600052603260045260246000fd5b602002602001015160200151600060028110611275577f4e487b7100000000000000000000000000000000000000000000000000000000600052603260045260246000fd5b602002015182600560068461128a919061171d565b61129491906116c7565b815181106112cb577f4e487b7100000000000000000000000000000000000000000000000000000000600052603260045260246000fd5b60200260200101818152505080806112e2906117c1565b915050610e0b565b506112f3611440565b6000602082602086026020860160086107d05a03fa905080600081146113185761131a565bfe5b508061132557600080fd5b600082600060018110611361577f4e487b7100000000000000000000000000000000000000000000000000000000600052603260045260246000fd5b602002015114159550505050505092915050565b6040518060a001604052806113886113bc565b815260200161139561141a565b81526020016113a261141a565b81526020016113af61141a565b8152602001606081525090565b604051806040016040528060008152602001600081525090565b6040518060600160405280600390602082028036833780820191505090505090565b6040518060800160405280600490602082028036833780820191505090505090565b604051806040016040528061142d611462565b815260200161143a611462565b81525090565b6040518060200160405280600190602082028036833780820191505090505090565b6040518060400160405280600290602082028036833780820191505090505090565b6000611497611492846116a1565b611670565b905080828560208602820111156114ad57600080fd5b60005b858110156114dd57816114c38882611607565b8452602084019350602083019250506001810190506114b0565b5050509392505050565b600082601f8301126114f857600080fd5b6002611505848285611484565b91505092915050565b60006040828403121561152057600080fd5b61152a6040611670565b9050600061153a84828501611607565b600083015250602061154e84828501611607565b60208301525092915050565b60006080828403121561156c57600080fd5b6115766040611670565b90506000611586848285016114e7565b600083015250604061159a848285016114e7565b60208301525092915050565b600061010082840312156115b957600080fd5b6115c36060611670565b905060006115d38482850161150e565b60008301525060406115e78482850161155a565b60208301525060c06115fb8482850161150e565b60408301525092915050565b600081359050611616816118c8565b92915050565b6000610100828403121561162f57600080fd5b600061163d848285016115a6565b91505092915050565b61164f816117ab565b82525050565b600060208201905061166a6000830184611646565b92915050565b6000604051905081810181811067ffffffffffffffff8211171561169757611696611899565b5b8060405250919050565b600067ffffffffffffffff8211156116bc576116bb611899565b5b602082029050919050565b60006116d2826117b7565b91506116dd836117b7565b9250827fffffffffffffffffffffffffffffffffffffffffffffffffffffffffffffffff038211156117125761171161183b565b5b828201905092915050565b6000611728826117b7565b9150611733836117b7565b9250817fffffffffffffffffffffffffffffffffffffffffffffffffffffffffffffffff048311821515161561176c5761176b61183b565b5b828202905092915050565b6000611782826117b7565b915061178d836117b7565b9250828210156117a05761179f61183b565b5b828203905092915050565b60008115159050919050565b6000819050919050565b60006117cc826117b7565b91507fffffffffffffffffffffffffffffffffffffffffffffffffffffffffffffffff8214156117ff576117fe61183b565b5b600182019050919050565b6000611815826117b7565b9150611820836117b7565b9250826118305761182f61186a565b5b828206905092915050565b7f4e487b7100000000000000000000000000000000000000000000000000000000600052601160045260246000fd5b7f4e487b7100000000000000000000000000000000000000000000000000000000600052601260045260246000fd5b7f4e487b7100000000000000000000000000000000000000000000000000000000600052604160045260246000fd5b6118d1816117b7565b81146118dc57600080fd5b5056fea26469706673582212204de02c14fc876dc57b14ce2cf91421391d7c7b77407a8358585caa9f5647b0dd64736f6c63430008000033",
  "immutableReferences": {},
  "source": "//Because Ethereum is an open source project, the first line shows the contracts open source license.\r\n//The second line specifies the Solidity version necessary to execute this contract.\r\n\r\nimport './Verifier.sol';\r\n\r\n// SPDX-License-Identifier: GPL-3.0\r\npragma solidity >=0.8.0;\r\n\r\ncontract Election {\r\n    Verifier public verifier;\r\n\r\n    constructor(){\r\n        verifier = new Verifier();\r\n    }\r\n\r\n    uint public votesCount;\r\n    mapping(uint256 => uint) public votes;\r\n    mapping(uint256 => bool) public usersVoted;\r\n\r\n    mapping(uint => uint) public candidatesVotesCount;\r\n    mapping(uint => bool) public candidates;\r\n\r\n    //Is the election is ongoing, changes to the election must not be made (eg. description or candidates of the election)\r\n    bool public IsUpcomingElection = true;\r\n\r\n    function addCandidate(uint candidateId) public {\r\n        require(candidateId != 0, \"The candidate id is null\");\r\n\r\n        require(IsUpcomingElection, \"The election should be upcoming in order to be changed\");\r\n\r\n        require(!candidates[candidateId], \"The candidate has already been added\");\r\n        \r\n        candidatesVotesCount[candidateId] = 0;\r\n        candidates[candidateId] = true;\r\n    }\r\n\r\n    function castVote(uint256 ax, uint256 ay, uint256 bx0, uint256 bx1, uint256 by0, uint256 by1, uint256 cx, uint256 cy, uint256 proofSha, uint candidateId) public returns (bool){\r\n        //todo: check the other args\r\n        require(candidateId != 0, \"The candidateId is null\");\r\n\r\n        //The election should be ongoing in order to voter\r\n        require(!IsUpcomingElection, \"The election is still upcoming, you cannot vote!\");\r\n \r\n        //The candidate has to be in the candidates list for the current election\r\n        require(candidatesVotesCount[candidateId] >= 0, \"The candidate has to be in the candidatesVotesCount list\");\r\n        require(candidates[candidateId], \"The candidate has to be in the election candidates list\");\r\n\r\n        require(!usersVoted[proofSha], \"The user can vote only once\");\r\n\r\n        // Use ZKP to proove the voter is in the appropriate voters list\r\n        Verifier.Proof memory proof= getProof(ax, ay, bx0, bx1, by0, by1, cx, cy);\r\n            \r\n        try verifier.verifyTx(proof) \r\n        {        \r\n            votes[proofSha] = candidateId;\r\n            usersVoted[proofSha] = true;\r\n\r\n            candidatesVotesCount[candidateId]++;\r\n            votesCount++;\r\n            return true;\r\n        }\r\n        catch\r\n        {\r\n            require(false, \"The voter is invalid\");\r\n            return false;\r\n        }\r\n    }\r\n\r\n    //Get the votes of the user\r\n    function getUserVote(uint256 proofSha) public view returns (uint CandidateId){\r\n        require(usersVoted[proofSha], \"Key does not exists. The user has not voted\");\r\n        return votes[proofSha];\r\n    }\r\n\r\n    //Check if the user has already voted (the voter is in the votes mapping)\r\n    //The function returns true if the voter has already voted, than returns false\r\n    function checkUserHasVoted(uint256 proofSha) public view returns (bool) {\r\n        require(proofSha != 0, \"The voterId is null\");\r\n\r\n        if(votes[proofSha] > 0 && usersVoted[proofSha])\r\n            return true;\r\n        else\r\n            return false;\r\n    }\r\n\r\n    //If the election change the state from upcoming to ungoing, set the IsUpcomingElection to true and do not let the users to made any other changes to the contract\r\n    function changeElectionState(bool electionState) public{\r\n        IsUpcomingElection = electionState;\r\n    }\r\n\r\n    //private functions\r\n    function getProof(uint256 ax, uint256 ay, uint256 bx0, uint256 bx1, uint256 by0, uint256 by1, uint256 cx, uint256 cy) public pure returns (Verifier.Proof memory proof) {\r\n        Pairing.G1Point memory a;\r\n        Pairing.G2Point memory b;\r\n        Pairing.G1Point memory c;\r\n\r\n        a.X = ax;\r\n        a.Y = ay;\r\n\r\n        b.X = [bx0,bx1];\r\n        b.Y = [by0,by1];\r\n\r\n        c.X = cx;\r\n        c.Y = cy;\r\n\r\n        proof.a = a;\r\n        proof.b = b;\r\n        proof.c = c;\r\n\r\n        return proof;\r\n    }\r\n}",
  "sourcePath": "D:\\Master\\Dizertatie\\workspace\\BlockchainVotingApp\\SmartContracts\\18_Tucano\\contracts\\Election.sol",
  "compiler": {
    "name": "solc",
    "version": "0.8.0+commit.c7dfd78e.Emscripten.clang"
  },
  "schemaVersion": "3.4.16",
  "updatedAt": "2024-01-24T12:14:35.103Z",
  "devdoc": {
    "kind": "dev",
    "methods": {},
    "version": 1
  },
  "userdoc": {
    "kind": "user",
    "methods": {},
    "version": 1
  }
}