{
  "contractName": "Election",
  "abi": [
    {
      "inputs": [],
      "stateMutability": "nonpayable",
      "type": "constructor"
    },
    {
      "anonymous": false,
      "inputs": [
        {
          "indexed": false,
          "internalType": "address",
          "name": "sender",
          "type": "address"
        },
        {
          "indexed": false,
          "internalType": "uint256",
          "name": "candidateId",
          "type": "uint256"
        }
      ],
      "name": "AddCandidateEvent",
      "type": "event"
    },
    {
      "anonymous": false,
      "inputs": [
        {
          "indexed": false,
          "internalType": "address",
          "name": "sender",
          "type": "address"
        },
        {
          "indexed": false,
          "internalType": "uint256",
          "name": "voterProof",
          "type": "uint256"
        },
        {
          "indexed": false,
          "internalType": "uint256",
          "name": "candidateId",
          "type": "uint256"
        }
      ],
      "name": "CastVoteEvent",
      "type": "event"
    },
    {
      "inputs": [],
      "name": "IsUpcomingElection",
      "outputs": [
        {
          "internalType": "bool",
          "name": "",
          "type": "bool"
        }
      ],
      "stateMutability": "view",
      "type": "function"
    },
    {
      "inputs": [
        {
          "internalType": "uint256",
          "name": "",
          "type": "uint256"
        }
      ],
      "name": "candidates",
      "outputs": [
        {
          "internalType": "bool",
          "name": "",
          "type": "bool"
        }
      ],
      "stateMutability": "view",
      "type": "function"
    },
    {
      "inputs": [
        {
          "internalType": "uint256",
          "name": "",
          "type": "uint256"
        }
      ],
      "name": "candidatesVotesCount",
      "outputs": [
        {
          "internalType": "uint256",
          "name": "",
          "type": "uint256"
        }
      ],
      "stateMutability": "view",
      "type": "function"
    },
    {
      "inputs": [
        {
          "internalType": "uint256",
          "name": "",
          "type": "uint256"
        }
      ],
      "name": "usersVoted",
      "outputs": [
        {
          "internalType": "bool",
          "name": "",
          "type": "bool"
        }
      ],
      "stateMutability": "view",
      "type": "function"
    },
    {
      "inputs": [],
      "name": "verifier",
      "outputs": [
        {
          "internalType": "contract Verifier",
          "name": "",
          "type": "address"
        }
      ],
      "stateMutability": "view",
      "type": "function"
    },
    {
      "inputs": [
        {
          "internalType": "uint256",
          "name": "",
          "type": "uint256"
        }
      ],
      "name": "votes",
      "outputs": [
        {
          "internalType": "uint256",
          "name": "",
          "type": "uint256"
        }
      ],
      "stateMutability": "view",
      "type": "function"
    },
    {
      "inputs": [],
      "name": "votesCount",
      "outputs": [
        {
          "internalType": "uint256",
          "name": "",
          "type": "uint256"
        }
      ],
      "stateMutability": "view",
      "type": "function"
    },
    {
      "inputs": [
        {
          "internalType": "uint256",
          "name": "candidateId",
          "type": "uint256"
        }
      ],
      "name": "addCandidate",
      "outputs": [],
      "stateMutability": "nonpayable",
      "type": "function"
    },
    {
      "inputs": [
        {
          "internalType": "uint256",
          "name": "candidateId",
          "type": "uint256"
        }
      ],
      "name": "getCandidateResults",
      "outputs": [
        {
          "internalType": "uint256",
          "name": "result",
          "type": "uint256"
        }
      ],
      "stateMutability": "view",
      "type": "function"
    },
    {
      "inputs": [
        {
          "internalType": "uint256",
          "name": "ax",
          "type": "uint256"
        },
        {
          "internalType": "uint256",
          "name": "ay",
          "type": "uint256"
        },
        {
          "internalType": "uint256",
          "name": "bx0",
          "type": "uint256"
        },
        {
          "internalType": "uint256",
          "name": "bx1",
          "type": "uint256"
        },
        {
          "internalType": "uint256",
          "name": "by0",
          "type": "uint256"
        },
        {
          "internalType": "uint256",
          "name": "by1",
          "type": "uint256"
        },
        {
          "internalType": "uint256",
          "name": "cx",
          "type": "uint256"
        },
        {
          "internalType": "uint256",
          "name": "cy",
          "type": "uint256"
        },
        {
          "internalType": "uint256",
          "name": "proofSha",
          "type": "uint256"
        },
        {
          "internalType": "uint256",
          "name": "candidateId",
          "type": "uint256"
        }
      ],
      "name": "castVote",
      "outputs": [
        {
          "internalType": "bool",
          "name": "",
          "type": "bool"
        }
      ],
      "stateMutability": "nonpayable",
      "type": "function"
    },
    {
      "inputs": [
        {
          "internalType": "uint256",
          "name": "proofSha",
          "type": "uint256"
        }
      ],
      "name": "getUserVote",
      "outputs": [
        {
          "internalType": "uint256",
          "name": "CandidateId",
          "type": "uint256"
        }
      ],
      "stateMutability": "view",
      "type": "function"
    },
    {
      "inputs": [
        {
          "internalType": "bool",
          "name": "electionState",
          "type": "bool"
        }
      ],
      "name": "changeElectionState",
      "outputs": [],
      "stateMutability": "nonpayable",
      "type": "function"
    },
    {
      "inputs": [
        {
          "internalType": "uint256",
          "name": "ax",
          "type": "uint256"
        },
        {
          "internalType": "uint256",
          "name": "ay",
          "type": "uint256"
        },
        {
          "internalType": "uint256",
          "name": "bx0",
          "type": "uint256"
        },
        {
          "internalType": "uint256",
          "name": "bx1",
          "type": "uint256"
        },
        {
          "internalType": "uint256",
          "name": "by0",
          "type": "uint256"
        },
        {
          "internalType": "uint256",
          "name": "by1",
          "type": "uint256"
        },
        {
          "internalType": "uint256",
          "name": "cx",
          "type": "uint256"
        },
        {
          "internalType": "uint256",
          "name": "cy",
          "type": "uint256"
        }
      ],
      "name": "getProof",
      "outputs": [
        {
          "components": [
            {
              "components": [
                {
                  "internalType": "uint256",
                  "name": "X",
                  "type": "uint256"
                },
                {
                  "internalType": "uint256",
                  "name": "Y",
                  "type": "uint256"
                }
              ],
              "internalType": "struct Pairing.G1Point",
              "name": "a",
              "type": "tuple"
            },
            {
              "components": [
                {
                  "internalType": "uint256[2]",
                  "name": "X",
                  "type": "uint256[2]"
                },
                {
                  "internalType": "uint256[2]",
                  "name": "Y",
                  "type": "uint256[2]"
                }
              ],
              "internalType": "struct Pairing.G2Point",
              "name": "b",
              "type": "tuple"
            },
            {
              "components": [
                {
                  "internalType": "uint256",
                  "name": "X",
                  "type": "uint256"
                },
                {
                  "internalType": "uint256",
                  "name": "Y",
                  "type": "uint256"
                }
              ],
              "internalType": "struct Pairing.G1Point",
              "name": "c",
              "type": "tuple"
            }
          ],
          "internalType": "struct Verifier.Proof",
          "name": "proof",
          "type": "tuple"
        }
      ],
      "stateMutability": "pure",
      "type": "function"
    }
  ],
  "bytecode": "0x60806040526001600660006101000a81548160ff02191690831515021790555034801561002b57600080fd5b5060405161003890610099565b604051809103906000f080158015610054573d6000803e3d6000fd5b506000806101000a81548173ffffffffffffffffffffffffffffffffffffffff021916908373ffffffffffffffffffffffffffffffffffffffff1602179055506100a6565b611936806116cf83390190565b61161a806100b56000396000f3fe608060405234801561001057600080fd5b50600436106100cf5760003560e01c806384104be91161008c5780639c85af6f116100665780639c85af6f1461024c578063aa95124f1461027c578063e844d0971461029a578063ee45e782146102b6576100cf565b806384104be9146101ce57806386194c19146101fe5780638778b27d1461022e576100cf565b80630bd4dec1146100d457806316a47c6d146101045780632b7ac3f3146101345780633477ee2e146101525780634140be86146101825780635df813301461019e575b600080fd5b6100ee60048036038101906100e99190610c12565b6102e6565b6040516100fb9190611479565b60405180910390f35b61011e60048036038101906101199190610ced565b6102fe565b60405161012b91906112e7565b60405180910390f35b61013c610685565b6040516101499190611302565b60405180910390f35b61016c60048036038101906101679190610c12565b6106a9565b60405161017991906112e7565b60405180910390f35b61019c60048036038101906101979190610bc0565b6106c9565b005b6101b860048036038101906101b39190610c12565b6106e6565b6040516101c59190611479565b60405180910390f35b6101e860048036038101906101e39190610c3b565b6106fe565b6040516101f5919061145d565b60405180910390f35b61021860048036038101906102139190610c12565b6107aa565b6040516102259190611479565b60405180910390f35b610236610827565b6040516102439190611479565b60405180910390f35b61026660048036038101906102619190610c12565b61082d565b60405161027391906112e7565b60405180910390f35b61028461084d565b60405161029191906112e7565b60405180910390f35b6102b460048036038101906102af9190610c12565b610860565b005b6102d060048036038101906102cb9190610c12565b6109d5565b6040516102dd9190611479565b60405180910390f35b60046020528060005260406000206000915090505481565b600080821415610343576040517f08c379a000000000000000000000000000000000000000000000000000000000815260040161033a9061143d565b60405180910390fd5b600660009054906101000a900460ff1615610393576040517f08c379a000000000000000000000000000000000000000000000000000000000815260040161038a9061131d565b60405180910390fd5b6000600460008481526020019081526020016000205410156103ea576040517f08c379a00000000000000000000000000000000000000000000000000000000081526004016103e19061141d565b60405180910390fd5b6005600083815260200190815260200160002060009054906101000a900460ff1661044a576040517f08c379a0000000000000000000000000000000000000000000000000000000008152600401610441906113fd565b60405180910390fd5b6003600084815260200190815260200160002060009054906101000a900460ff16156104ab576040517f08c379a00000000000000000000000000000000000000000000000000000000081526004016104a29061135d565b60405180910390fd5b60006104bd8c8c8c8c8c8c8c8c6106fe565b905060008054906101000a900473ffffffffffffffffffffffffffffffffffffffff1673ffffffffffffffffffffffffffffffffffffffff1663f6af0311826040518263ffffffff1660e01b8152600401610518919061145d565b60206040518083038186803b15801561053057600080fd5b505afa92505050801561056157506040513d601f19601f8201168201806040525081019061055e9190610be9565b60015b6105b05760006105a6576040517f08c379a000000000000000000000000000000000000000000000000000000000815260040161059d9061137d565b60405180910390fd5b6000915050610677565b5082600260008681526020019081526020016000208190555060016003600086815260200190815260200160002060006101000a81548160ff0219169083151502179055506004600084815260200190815260200160002060008154809291906106199061153e565b9190505550600160008154809291906106319061153e565b91905055507fe1ce397387e41b11488278a05d327e3fe828784c2d1dab4346dfaf6d11eac885338585604051610669939291906112b0565b60405180910390a160019150505b9a9950505050505050505050565b60008054906101000a900473ffffffffffffffffffffffffffffffffffffffff1681565b60056020528060005260406000206000915054906101000a900460ff1681565b80600660006101000a81548160ff02191690831515021790555050565b60026020528060005260406000206000915090505481565b610706610aec565b61070e610b1f565b610716610b39565b61071e610b1f565b8b8360000181815250508a83602001818152505060405180604001604052808b81526020018a81525082600001819052506040518060400160405280898152602001888152508260200181905250858160000181815250508481602001818152505082846000018190525081846020018190525080846040018190525050505098975050505050505050565b60006003600083815260200190815260200160002060009054906101000a900460ff1661080c576040517f08c379a00000000000000000000000000000000000000000000000000000000081526004016108039061139d565b60405180910390fd5b60026000838152602001908152602001600020549050919050565b60015481565b60036020528060005260406000206000915054906101000a900460ff1681565b600660009054906101000a900460ff1681565b60008114156108a4576040517f08c379a000000000000000000000000000000000000000000000000000000000815260040161089b9061133d565b60405180910390fd5b600660009054906101000a900460ff166108f3576040517f08c379a00000000000000000000000000000000000000000000000000000000081526004016108ea906113dd565b60405180910390fd5b6005600082815260200190815260200160002060009054906101000a900460ff1615610954576040517f08c379a000000000000000000000000000000000000000000000000000000000815260040161094b906113bd565b60405180910390fd5b6000600460008381526020019081526020016000208190555060016005600083815260200190815260200160002060006101000a81548160ff0219169083151502179055507f8ae526184d6e40fd909697af41f94b8891d428e4c19650a5a6e14c7685a5626d33826040516109ca929190611287565b60405180910390a150565b600080821415610a1a576040517f08c379a0000000000000000000000000000000000000000000000000000000008152600401610a119061133d565b60405180910390fd5b600060046000848152602001908152602001600020541015610a71576040517f08c379a0000000000000000000000000000000000000000000000000000000008152600401610a689061141d565b60405180910390fd5b6005600083815260200190815260200160002060009054906101000a900460ff16610ad1576040517f08c379a0000000000000000000000000000000000000000000000000000000008152600401610ac8906113fd565b60405180910390fd5b60046000838152602001908152602001600020549050919050565b6040518060600160405280610aff610b1f565b8152602001610b0c610b39565b8152602001610b19610b1f565b81525090565b604051806040016040528060008152602001600081525090565b6040518060400160405280610b4c610b5f565b8152602001610b59610b5f565b81525090565b6040518060400160405280600290602082028036833780820191505090505090565b600081359050610b90816115b6565b92915050565b600081519050610ba5816115b6565b92915050565b600081359050610bba816115cd565b92915050565b600060208284031215610bd257600080fd5b6000610be084828501610b81565b91505092915050565b600060208284031215610bfb57600080fd5b6000610c0984828501610b96565b91505092915050565b600060208284031215610c2457600080fd5b6000610c3284828501610bab565b91505092915050565b600080600080600080600080610100898b031215610c5857600080fd5b6000610c668b828c01610bab565b9850506020610c778b828c01610bab565b9750506040610c888b828c01610bab565b9650506060610c998b828c01610bab565b9550506080610caa8b828c01610bab565b94505060a0610cbb8b828c01610bab565b93505060c0610ccc8b828c01610bab565b92505060e0610cdd8b828c01610bab565b9150509295985092959890939650565b6000806000806000806000806000806101408b8d031215610d0d57600080fd5b6000610d1b8d828e01610bab565b9a50506020610d2c8d828e01610bab565b9950506040610d3d8d828e01610bab565b9850506060610d4e8d828e01610bab565b9750506080610d5f8d828e01610bab565b96505060a0610d708d828e01610bab565b95505060c0610d818d828e01610bab565b94505060e0610d928d828e01610bab565b935050610100610da48d828e01610bab565b925050610120610db68d828e01610bab565b9150509295989b9194979a5092959850565b6000610dd48383611269565b60208301905092915050565b610de9816114d2565b82525050565b610df88161149e565b610e0281846114b6565b9250610e0d82611494565b8060005b83811015610e3e578151610e258782610dc8565b9650610e30836114a9565b925050600181019050610e11565b505050505050565b610e4f816114e4565b82525050565b610e5e8161151a565b82525050565b6000610e716030836114c1565b91507f54686520656c656374696f6e206973207374696c6c207570636f6d696e672c2060008301527f796f752063616e6e6f7420766f746521000000000000000000000000000000006020830152604082019050919050565b6000610ed76018836114c1565b91507f5468652063616e646964617465206964206973206e756c6c00000000000000006000830152602082019050919050565b6000610f17601b836114c1565b91507f54686520757365722063616e20766f7465206f6e6c79206f6e636500000000006000830152602082019050919050565b6000610f576014836114c1565b91507f54686520766f74657220697320696e76616c69640000000000000000000000006000830152602082019050919050565b6000610f97602b836114c1565b91507f4b657920646f6573206e6f74206578697374732e20546865207573657220686160008301527f73206e6f7420766f7465640000000000000000000000000000000000000000006020830152604082019050919050565b6000610ffd6024836114c1565b91507f5468652063616e6469646174652068617320616c7265616479206265656e206160008301527f64646564000000000000000000000000000000000000000000000000000000006020830152604082019050919050565b60006110636036836114c1565b91507f54686520656c656374696f6e2073686f756c64206265207570636f6d696e672060008301527f696e206f7264657220746f206265206368616e676564000000000000000000006020830152604082019050919050565b60006110c96037836114c1565b91507f5468652063616e6469646174652068617320746f20626520696e20746865206560008301527f6c656374696f6e2063616e64696461746573206c6973740000000000000000006020830152604082019050919050565b600061112f6038836114c1565b91507f5468652063616e6469646174652068617320746f20626520696e20746865206360008301527f616e64696461746573566f746573436f756e74206c69737400000000000000006020830152604082019050919050565b60006111956017836114c1565b91507f5468652063616e6469646174654964206973206e756c6c0000000000000000006000830152602082019050919050565b6040820160008201516111de6000850182611269565b5060208201516111f16020850182611269565b50505050565b60808201600082015161120d6000850182610def565b5060208201516112206040850182610def565b50505050565b6101008201600082015161123d60008501826111c8565b50602082015161125060408501826111f7565b50604082015161126360c08501826111c8565b50505050565b61127281611510565b82525050565b61128181611510565b82525050565b600060408201905061129c6000830185610de0565b6112a96020830184611278565b9392505050565b60006060820190506112c56000830186610de0565b6112d26020830185611278565b6112df6040830184611278565b949350505050565b60006020820190506112fc6000830184610e46565b92915050565b60006020820190506113176000830184610e55565b92915050565b6000602082019050818103600083015261133681610e64565b9050919050565b6000602082019050818103600083015261135681610eca565b9050919050565b6000602082019050818103600083015261137681610f0a565b9050919050565b6000602082019050818103600083015261139681610f4a565b9050919050565b600060208201905081810360008301526113b681610f8a565b9050919050565b600060208201905081810360008301526113d681610ff0565b9050919050565b600060208201905081810360008301526113f681611056565b9050919050565b60006020820190508181036000830152611416816110bc565b9050919050565b6000602082019050818103600083015261143681611122565b9050919050565b6000602082019050818103600083015261145681611188565b9050919050565b6000610100820190506114736000830184611226565b92915050565b600060208201905061148e6000830184611278565b92915050565b6000819050919050565b600060029050919050565b6000602082019050919050565b600081905092915050565b600082825260208201905092915050565b60006114dd826114f0565b9050919050565b60008115159050919050565b600073ffffffffffffffffffffffffffffffffffffffff82169050919050565b6000819050919050565b60006115258261152c565b9050919050565b6000611537826114f0565b9050919050565b600061154982611510565b91507fffffffffffffffffffffffffffffffffffffffffffffffffffffffffffffffff82141561157c5761157b611587565b5b600182019050919050565b7f4e487b7100000000000000000000000000000000000000000000000000000000600052601160045260246000fd5b6115bf816114e4565b81146115ca57600080fd5b50565b6115d681611510565b81146115e157600080fd5b5056fea2646970667358221220e10955e4b17761689988d73c275391a46545e9f5f2ff6d433658d5154d98843564736f6c63430008000033608060405234801561001057600080fd5b50611916806100206000396000f3fe608060405234801561001057600080fd5b506004361061002b5760003560e01c8063f6af031114610030575b600080fd5b61004a6004803603810190610045919061161d565b610060565b6040516100579190611656565b60405180910390f35b600080600067ffffffffffffffff8111156100a4577f4e487b7100000000000000000000000000000000000000000000000000000000600052604160045260246000fd5b6040519080825280602002602001820160405280156100d25781602001602082028036833780820191505090505b50905060006100e182856100fc565b14156100f15760019150506100f7565b60009150505b919050565b6000807f30644e72e131a029b85045b68181585d2833e84879b9709143e1f593f00000019050600061012c61032b565b90508060800151516001865161014291906116c8565b1461014c57600080fd5b60006040518060400160405280600081526020016000815250905060005b865181101561027757838782815181106101ad577f4e487b7100000000000000000000000000000000000000000000000000000000600052603260045260246000fd5b6020026020010151106101bf57600080fd5b6102628261025d85608001516001856101d891906116c8565b8151811061020f577f4e487b7100000000000000000000000000000000000000000000000000000000600052603260045260246000fd5b60200260200101518a8581518110610250577f4e487b7100000000000000000000000000000000000000000000000000000000600052603260045260246000fd5b6020026020010151610703565b61081c565b9150808061026f906117c2565b91505061016a565b506102c78183608001516000815181106102ba577f4e487b7100000000000000000000000000000000000000000000000000000000600052603260045260246000fd5b602002602001015161081c565b905061030d856000015186602001516102df84610981565b85604001516102f18a60400151610981565b87606001516103038960000151610981565b8960200151610a26565b61031d5760019350505050610325565b600093505050505b92915050565b610333611376565b60405180604001604052807f02c724f91028e212042f75aae1e62e1654a652b95fea7eee63bd1ba9467288cd81526020017f06f8ef20dbf9b6d2ce79e4c0afb0e9f7ed4884c4aa39e097ba05db925658278a8152508160000181905250604051806040016040528060405180604001604052807f12f87d229f97ed6e134f515f94ac7a7b4e4cab4a3c917b42bba083d1207b2e5981526020017f128134f7e4a7622450fedf5ecf5a68c04e3b4e6f506ee6fc42226199438213ea815250815260200160405180604001604052807f0876cbfee53b52a3a2f92aadb377f57d00648aa93a3ea0d5bf868e5ea6cb274581526020017f14b5d7be442e1197529d55b0e2f8b9794d94e7b8ea059ae7e4cdf52a4bd40d7c8152508152508160200181905250604051806040016040528060405180604001604052807f1e64fe6a0e13615979f01e60de9dd6ce2e19c961a48be8a7d19c429c482f675481526020017f17512e93ab08c3fb2f8e33fa78e8a2ac878b53013ff83a48630ceded48ecda4f815250815260200160405180604001604052807f1eccb7384d0863cbca0cb6571dacd566a6b9a39a2c5756cf84a6908ca207663281526020017f13429f475e4bc23e57e07bea0898b521e01f57e7134a5f0b3051464cb7b11d298152508152508160400181905250604051806040016040528060405180604001604052807f031c1004abc8cc27c525c42e8706975a25675b774e4af5ab2b6ecc5fb6b6996381526020017f11dbaf3a52539a26600e717324d7c606bfd2395968548967484e2f089bd7e70d815250815260200160405180604001604052807f1d9314130c086187ab047639be91e50d478b81b1e4b3c3be059420cd4050462981526020017f114707cdfe9f19433d7835356a16080a7a4ae43bfe569e7dc0c8682292eaca388152508152508160600181905250600167ffffffffffffffff811115610620577f4e487b7100000000000000000000000000000000000000000000000000000000600052604160045260246000fd5b60405190808252806020026020018201604052801561065957816020015b6106466113bd565b81526020019060019003908161063e5790505b50816080018190525060405180604001604052807f27fa2d99d56d6003387665b4dd09b3904e83838b6ae931b6720daeee5ef73a5181526020017f018fb868c705b7c49de553be6d3da08092544a74ce806c07487b22d6d92de6a381525081608001516000815181106106f5577f4e487b7100000000000000000000000000000000000000000000000000000000600052603260045260246000fd5b602002602001018190525090565b61070b6113bd565b6107136113d7565b836000015181600060038110610752577f4e487b7100000000000000000000000000000000000000000000000000000000600052603260045260246000fd5b60200201818152505083602001518160016003811061079a577f4e487b7100000000000000000000000000000000000000000000000000000000600052603260045260246000fd5b60200201818152505082816002600381106107de577f4e487b7100000000000000000000000000000000000000000000000000000000600052603260045260246000fd5b602002018181525050600060608360808460076107d05a03fa9050806000811461080757610809565bfe5b508061081457600080fd5b505092915050565b6108246113bd565b61082c6113f9565b83600001518160006004811061086b577f4e487b7100000000000000000000000000000000000000000000000000000000600052603260045260246000fd5b6020020181815250508360200151816001600481106108b3577f4e487b7100000000000000000000000000000000000000000000000000000000600052603260045260246000fd5b6020020181815250508260000151816002600481106108fb577f4e487b7100000000000000000000000000000000000000000000000000000000600052603260045260246000fd5b602002018181525050826020015181600360048110610943577f4e487b7100000000000000000000000000000000000000000000000000000000600052603260045260246000fd5b602002018181525050600060608360c08460066107d05a03fa9050806000811461096c5761096e565bfe5b508061097957600080fd5b505092915050565b6109896113bd565b60007f30644e72e131a029b85045b68181585d97816a916871ca8d3c208c16d87cfd479050600083600001511480156109c6575060008360200151145b156109ea576040518060400160405280600081526020016000815250915050610a21565b604051806040016040528084600001518152602001828560200151610a0f919061180b565b83610a1a9190611778565b8152509150505b919050565b600080600467ffffffffffffffff811115610a6a577f4e487b7100000000000000000000000000000000000000000000000000000000600052604160045260246000fd5b604051908082528060200260200182016040528015610aa357816020015b610a906113bd565b815260200190600190039081610a885790505b5090506000600467ffffffffffffffff811115610ae9577f4e487b7100000000000000000000000000000000000000000000000000000000600052604160045260246000fd5b604051908082528060200260200182016040528015610b2257816020015b610b0f61141b565b815260200190600190039081610b075790505b5090508a82600081518110610b60577f4e487b7100000000000000000000000000000000000000000000000000000000600052603260045260246000fd5b60200260200101819052508882600181518110610ba6577f4e487b7100000000000000000000000000000000000000000000000000000000600052603260045260246000fd5b60200260200101819052508682600281518110610bec577f4e487b7100000000000000000000000000000000000000000000000000000000600052603260045260246000fd5b60200260200101819052508482600381518110610c32577f4e487b7100000000000000000000000000000000000000000000000000000000600052603260045260246000fd5b60200260200101819052508981600081518110610c78577f4e487b7100000000000000000000000000000000000000000000000000000000600052603260045260246000fd5b60200260200101819052508781600181518110610cbe577f4e487b7100000000000000000000000000000000000000000000000000000000600052603260045260246000fd5b60200260200101819052508581600281518110610d04577f4e487b7100000000000000000000000000000000000000000000000000000000600052603260045260246000fd5b60200260200101819052508381600381518110610d4a577f4e487b7100000000000000000000000000000000000000000000000000000000600052603260045260246000fd5b6020026020010181905250610d5f8282610d6f565b9250505098975050505050505050565b60008151835114610d7f57600080fd5b6000835190506000600682610d94919061171e565b905060008167ffffffffffffffff811115610dd8577f4e487b7100000000000000000000000000000000000000000000000000000000600052604160045260246000fd5b604051908082528060200260200182016040528015610e065781602001602082028036833780820191505090505b50905060005b838110156112eb57868181518110610e4d577f4e487b7100000000000000000000000000000000000000000000000000000000600052603260045260246000fd5b602002602001015160000151826000600684610e69919061171e565b610e7391906116c8565b81518110610eaa577f4e487b7100000000000000000000000000000000000000000000000000000000600052603260045260246000fd5b602002602001018181525050868181518110610eef577f4e487b7100000000000000000000000000000000000000000000000000000000600052603260045260246000fd5b602002602001015160200151826001600684610f0b919061171e565b610f1591906116c8565b81518110610f4c577f4e487b7100000000000000000000000000000000000000000000000000000000600052603260045260246000fd5b602002602001018181525050858181518110610f91577f4e487b7100000000000000000000000000000000000000000000000000000000600052603260045260246000fd5b602002602001015160000151600160028110610fd6577f4e487b7100000000000000000000000000000000000000000000000000000000600052603260045260246000fd5b6020020151826002600684610feb919061171e565b610ff591906116c8565b8151811061102c577f4e487b7100000000000000000000000000000000000000000000000000000000600052603260045260246000fd5b602002602001018181525050858181518110611071577f4e487b7100000000000000000000000000000000000000000000000000000000600052603260045260246000fd5b6020026020010151600001516000600281106110b6577f4e487b7100000000000000000000000000000000000000000000000000000000600052603260045260246000fd5b60200201518260036006846110cb919061171e565b6110d591906116c8565b8151811061110c577f4e487b7100000000000000000000000000000000000000000000000000000000600052603260045260246000fd5b602002602001018181525050858181518110611151577f4e487b7100000000000000000000000000000000000000000000000000000000600052603260045260246000fd5b602002602001015160200151600160028110611196577f4e487b7100000000000000000000000000000000000000000000000000000000600052603260045260246000fd5b60200201518260046006846111ab919061171e565b6111b591906116c8565b815181106111ec577f4e487b7100000000000000000000000000000000000000000000000000000000600052603260045260246000fd5b602002602001018181525050858181518110611231577f4e487b7100000000000000000000000000000000000000000000000000000000600052603260045260246000fd5b602002602001015160200151600060028110611276577f4e487b7100000000000000000000000000000000000000000000000000000000600052603260045260246000fd5b602002015182600560068461128b919061171e565b61129591906116c8565b815181106112cc577f4e487b7100000000000000000000000000000000000000000000000000000000600052603260045260246000fd5b60200260200101818152505080806112e3906117c2565b915050610e0c565b506112f4611441565b6000602082602086026020860160086107d05a03fa905080600081146113195761131b565bfe5b508061132657600080fd5b600082600060018110611362577f4e487b7100000000000000000000000000000000000000000000000000000000600052603260045260246000fd5b602002015114159550505050505092915050565b6040518060a001604052806113896113bd565b815260200161139661141b565b81526020016113a361141b565b81526020016113b061141b565b8152602001606081525090565b604051806040016040528060008152602001600081525090565b6040518060600160405280600390602082028036833780820191505090505090565b6040518060800160405280600490602082028036833780820191505090505090565b604051806040016040528061142e611463565b815260200161143b611463565b81525090565b6040518060200160405280600190602082028036833780820191505090505090565b6040518060400160405280600290602082028036833780820191505090505090565b6000611498611493846116a2565b611671565b905080828560208602820111156114ae57600080fd5b60005b858110156114de57816114c48882611608565b8452602084019350602083019250506001810190506114b1565b5050509392505050565b600082601f8301126114f957600080fd5b6002611506848285611485565b91505092915050565b60006040828403121561152157600080fd5b61152b6040611671565b9050600061153b84828501611608565b600083015250602061154f84828501611608565b60208301525092915050565b60006080828403121561156d57600080fd5b6115776040611671565b90506000611587848285016114e8565b600083015250604061159b848285016114e8565b60208301525092915050565b600061010082840312156115ba57600080fd5b6115c46060611671565b905060006115d48482850161150f565b60008301525060406115e88482850161155b565b60208301525060c06115fc8482850161150f565b60408301525092915050565b600081359050611617816118c9565b92915050565b6000610100828403121561163057600080fd5b600061163e848285016115a7565b91505092915050565b611650816117ac565b82525050565b600060208201905061166b6000830184611647565b92915050565b6000604051905081810181811067ffffffffffffffff821117156116985761169761189a565b5b8060405250919050565b600067ffffffffffffffff8211156116bd576116bc61189a565b5b602082029050919050565b60006116d3826117b8565b91506116de836117b8565b9250827fffffffffffffffffffffffffffffffffffffffffffffffffffffffffffffffff038211156117135761171261183c565b5b828201905092915050565b6000611729826117b8565b9150611734836117b8565b9250817fffffffffffffffffffffffffffffffffffffffffffffffffffffffffffffffff048311821515161561176d5761176c61183c565b5b828202905092915050565b6000611783826117b8565b915061178e836117b8565b9250828210156117a1576117a061183c565b5b828203905092915050565b60008115159050919050565b6000819050919050565b60006117cd826117b8565b91507fffffffffffffffffffffffffffffffffffffffffffffffffffffffffffffffff821415611800576117ff61183c565b5b600182019050919050565b6000611816826117b8565b9150611821836117b8565b9250826118315761183061186b565b5b828206905092915050565b7f4e487b7100000000000000000000000000000000000000000000000000000000600052601160045260246000fd5b7f4e487b7100000000000000000000000000000000000000000000000000000000600052601260045260246000fd5b7f4e487b7100000000000000000000000000000000000000000000000000000000600052604160045260246000fd5b6118d2816117b8565b81146118dd57600080fd5b5056fea2646970667358221220b366eee8251f653181e349b91671cd45d60267289e1ea36fb8577180083c0f5164736f6c63430008000033",
  "immutableReferences": {},
  "source": "//Because Ethereum is an open source project, the first line shows the contracts open source license.\r\n//The second line specifies the Solidity version necessary to execute this contract.\r\n\r\nimport './Verifier.sol';\r\n\r\n// SPDX-License-Identifier: GPL-3.0\r\npragma solidity >=0.8.0;\r\n\r\ncontract Election {\r\n    Verifier public verifier;\r\n\r\n    event AddCandidateEvent(address sender, uint candidateId);\r\n    event CastVoteEvent(address sender, uint voterProof, uint candidateId);\r\n\r\n    constructor(){\r\n        verifier = new Verifier();\r\n    }\r\n\r\n    uint public votesCount;\r\n    mapping(uint256 => uint) public votes;\r\n    mapping(uint256 => bool) public usersVoted;\r\n\r\n    mapping(uint => uint) public candidatesVotesCount;\r\n    mapping(uint => bool) public candidates;\r\n\r\n    //Is the election is ongoing, changes to the election must not be made (eg. description or candidates of the election)\r\n    bool public IsUpcomingElection = true;\r\n\r\n    function addCandidate(uint candidateId) public {\r\n        require(candidateId != 0, \"The candidate id is null\");\r\n\r\n        require(IsUpcomingElection, \"The election should be upcoming in order to be changed\");\r\n\r\n        require(!candidates[candidateId], \"The candidate has already been added\");\r\n        \r\n        candidatesVotesCount[candidateId] = 0;\r\n        candidates[candidateId] = true;\r\n\r\n        emit AddCandidateEvent(msg.sender, candidateId);\r\n    }\r\n\r\n    function getCandidateResults(uint candidateId) public view returns (uint result){\r\n        require(candidateId != 0, \"The candidate id is null\");\r\n        require(candidatesVotesCount[candidateId] >= 0, \"The candidate has to be in the candidatesVotesCount list\");\r\n        require(candidates[candidateId], \"The candidate has to be in the election candidates list\");\r\n        \r\n        return candidatesVotesCount[candidateId];\r\n    }\r\n\r\n    function castVote(uint256 ax, uint256 ay, uint256 bx0, uint256 bx1, uint256 by0, uint256 by1, uint256 cx, uint256 cy, uint256 proofSha, uint candidateId) public returns (bool){\r\n        //todo: check the other args\r\n        require(candidateId != 0, \"The candidateId is null\");\r\n\r\n        //The election should be ongoing in order to voter\r\n        require(!IsUpcomingElection, \"The election is still upcoming, you cannot vote!\");\r\n \r\n        //The candidate has to be in the candidates list for the current election\r\n        require(candidatesVotesCount[candidateId] >= 0, \"The candidate has to be in the candidatesVotesCount list\");\r\n        require(candidates[candidateId], \"The candidate has to be in the election candidates list\");\r\n\r\n        require(!usersVoted[proofSha], \"The user can vote only once\");\r\n\r\n        // Use ZKP to proove the voter is in the appropriate voters list\r\n        Verifier.Proof memory proof= getProof(ax, ay, bx0, bx1, by0, by1, cx, cy);\r\n            \r\n        try verifier.verifyTx(proof) \r\n        {        \r\n            votes[proofSha] = candidateId;\r\n            usersVoted[proofSha] = true;\r\n\r\n            candidatesVotesCount[candidateId]++;\r\n            votesCount++;\r\n\r\n            emit CastVoteEvent(msg.sender, proofSha, candidateId);\r\n\r\n            return true;\r\n        }\r\n        catch\r\n        {\r\n            require(false, \"The voter is invalid\");\r\n            return false;\r\n        }\r\n    }\r\n\r\n    //Get the votes of the user\r\n    function getUserVote(uint256 proofSha) public view returns (uint CandidateId){\r\n        require(usersVoted[proofSha], \"Key does not exists. The user has not voted\");\r\n        return votes[proofSha];\r\n    }\r\n\r\n    //Check if the user has already voted (the voter is in the votes mapping)\r\n    //The function returns true if the voter has already voted, than returns false\r\n    // the purpose of this function will be modified, the user has to introduce its proof in order to check if he has voted...\r\n    // function checkUserHasVoted(uint256 proofSha) public view returns (bool) {\r\n    //     require(proofSha != 0, \"The voterId is null\");\r\n\r\n    //     if(votes[proofSha] > 0 && usersVoted[proofSha])\r\n    //         return true;\r\n    //     else\r\n    //         return false;\r\n    // }\r\n\r\n    //If the election change the state from upcoming to ungoing, set the IsUpcomingElection to true and do not let the users to made any other changes to the contract\r\n    function changeElectionState(bool electionState) public{\r\n        IsUpcomingElection = electionState;\r\n    }\r\n\r\n    //private functions\r\n    function getProof(uint256 ax, uint256 ay, uint256 bx0, uint256 bx1, uint256 by0, uint256 by1, uint256 cx, uint256 cy) public pure returns (Verifier.Proof memory proof) {\r\n        Pairing.G1Point memory a;\r\n        Pairing.G2Point memory b;\r\n        Pairing.G1Point memory c;\r\n\r\n        a.X = ax;\r\n        a.Y = ay;\r\n\r\n        b.X = [bx0,bx1];\r\n        b.Y = [by0,by1];\r\n\r\n        c.X = cx;\r\n        c.Y = cy;\r\n\r\n        proof.a = a;\r\n        proof.b = b;\r\n        proof.c = c;\r\n\r\n        return proof;\r\n    }\r\n}",
  "sourcePath": "D:\\Master\\Dizertatie\\workspace\\BlockchainVotingApp\\SmartContracts\\5_Teest\\voting\\contracts\\Election.sol",
  "compiler": {
    "name": "solc",
    "version": "0.8.0+commit.c7dfd78e.Emscripten.clang"
  },
  "schemaVersion": "3.4.16",
  "updatedAt": "2024-02-05T12:00:51.806Z",
  "devdoc": {
    "kind": "dev",
    "methods": {},
    "version": 1
  },
  "userdoc": {
    "kind": "user",
    "methods": {},
    "version": 1
  }
}