{
  "contractName": "Election",
  "abi": [
    {
      "inputs": [],
      "name": "IsUpcomingElection",
      "outputs": [
        {
          "internalType": "bool",
          "name": "",
          "type": "bool"
        }
      ],
      "stateMutability": "view",
      "type": "function"
    },
    {
      "inputs": [
        {
          "internalType": "uint256",
          "name": "",
          "type": "uint256"
        }
      ],
      "name": "candidates",
      "outputs": [
        {
          "internalType": "bool",
          "name": "",
          "type": "bool"
        }
      ],
      "stateMutability": "view",
      "type": "function"
    },
    {
      "inputs": [
        {
          "internalType": "uint256",
          "name": "",
          "type": "uint256"
        }
      ],
      "name": "candidatesVotesCount",
      "outputs": [
        {
          "internalType": "uint256",
          "name": "",
          "type": "uint256"
        }
      ],
      "stateMutability": "view",
      "type": "function"
    },
    {
      "inputs": [
        {
          "internalType": "uint256",
          "name": "",
          "type": "uint256"
        }
      ],
      "name": "usersVoted",
      "outputs": [
        {
          "internalType": "bool",
          "name": "",
          "type": "bool"
        }
      ],
      "stateMutability": "view",
      "type": "function"
    },
    {
      "inputs": [
        {
          "internalType": "uint256",
          "name": "",
          "type": "uint256"
        }
      ],
      "name": "voters",
      "outputs": [
        {
          "internalType": "bool",
          "name": "",
          "type": "bool"
        }
      ],
      "stateMutability": "view",
      "type": "function"
    },
    {
      "inputs": [
        {
          "internalType": "uint256",
          "name": "",
          "type": "uint256"
        }
      ],
      "name": "votes",
      "outputs": [
        {
          "internalType": "uint256",
          "name": "",
          "type": "uint256"
        }
      ],
      "stateMutability": "view",
      "type": "function"
    },
    {
      "inputs": [],
      "name": "votesCount",
      "outputs": [
        {
          "internalType": "uint256",
          "name": "",
          "type": "uint256"
        }
      ],
      "stateMutability": "view",
      "type": "function"
    },
    {
      "inputs": [
        {
          "internalType": "uint256",
          "name": "voterId",
          "type": "uint256"
        }
      ],
      "name": "addVoter",
      "outputs": [],
      "stateMutability": "nonpayable",
      "type": "function"
    },
    {
      "inputs": [
        {
          "internalType": "uint256[]",
          "name": "votersList",
          "type": "uint256[]"
        }
      ],
      "name": "addVoters",
      "outputs": [],
      "stateMutability": "nonpayable",
      "type": "function"
    },
    {
      "inputs": [
        {
          "internalType": "uint256",
          "name": "candidateId",
          "type": "uint256"
        }
      ],
      "name": "addCandidate",
      "outputs": [],
      "stateMutability": "nonpayable",
      "type": "function"
    },
    {
      "inputs": [
        {
          "internalType": "uint256",
          "name": "voterId",
          "type": "uint256"
        },
        {
          "internalType": "uint256",
          "name": "candidateId",
          "type": "uint256"
        }
      ],
      "name": "castVote",
      "outputs": [],
      "stateMutability": "nonpayable",
      "type": "function"
    },
    {
      "inputs": [
        {
          "internalType": "uint256",
          "name": "voterId",
          "type": "uint256"
        }
      ],
      "name": "getUserVote",
      "outputs": [
        {
          "internalType": "uint256",
          "name": "VoterId",
          "type": "uint256"
        },
        {
          "internalType": "uint256",
          "name": "CandidateId",
          "type": "uint256"
        }
      ],
      "stateMutability": "view",
      "type": "function"
    },
    {
      "inputs": [
        {
          "internalType": "uint256",
          "name": "voterId",
          "type": "uint256"
        }
      ],
      "name": "checkUserHasVoted",
      "outputs": [
        {
          "internalType": "bool",
          "name": "",
          "type": "bool"
        }
      ],
      "stateMutability": "view",
      "type": "function"
    },
    {
      "inputs": [
        {
          "internalType": "bool",
          "name": "electionState",
          "type": "bool"
        }
      ],
      "name": "changeElectionState",
      "outputs": [],
      "stateMutability": "nonpayable",
      "type": "function"
    }
  ],
  "bytecode": "0x60806040526001600660006101000a81548160ff02191690831515021790555034801561002b57600080fd5b506114158061003b6000396000f3fe608060405234801561001057600080fd5b50600436106100ea5760003560e01c80638778b27d1161008c578063c9b26db411610066578063c9b26db414610284578063d8f7a0bb146102a0578063da58c7d9146102bc578063e844d097146102ec576100ea565b80638778b27d146102185780639c85af6f14610236578063aa95124f14610266576100ea565b80633f4cd184116100c85780633f4cd1841461016b5780634140be861461019b5780635df81330146101b757806386194c19146101e7576100ea565b80630bd4dec1146100ef5780632c0a3f891461011f5780633477ee2e1461013b575b600080fd5b61010960048036038101906101049190610c1a565b610308565b6040516101169190611242565b60405180910390f35b61013960048036038101906101349190610c43565b610320565b005b61015560048036038101906101509190610c1a565b6105f8565b60405161016291906110a7565b60405180910390f35b61018560048036038101906101809190610c1a565b610618565b60405161019291906110a7565b60405180910390f35b6101b560048036038101906101b09190610bf1565b6106b5565b005b6101d160048036038101906101cc9190610c1a565b6106d2565b6040516101de9190611242565b60405180910390f35b61020160048036038101906101fc9190610c1a565b6106ea565b60405161020f92919061125d565b60405180910390f35b6102206107af565b60405161022d9190611242565b60405180910390f35b610250600480360381019061024b9190610c1a565b6107b5565b60405161025d91906110a7565b60405180910390f35b61026e6107d5565b60405161027b91906110a7565b60405180910390f35b61029e60048036038101906102999190610bb0565b6107e8565b005b6102ba60048036038101906102b59190610c1a565b610873565b005b6102d660048036038101906102d19190610c1a565b610994565b6040516102e391906110a7565b60405180910390f35b61030660048036038101906103019190610c1a565b6109b4565b005b60046020528060005260406000206000915090505481565b6000821415610364576040517f08c379a000000000000000000000000000000000000000000000000000000000815260040161035b906111e2565b60405180910390fd5b60008114156103a8576040517f08c379a000000000000000000000000000000000000000000000000000000000815260040161039f90611202565b60405180910390fd5b600660009054906101000a900460ff16156103f8576040517f08c379a00000000000000000000000000000000000000000000000000000000081526004016103ef906110c2565b60405180910390fd5b60008083815260200190815260200160002060009054906101000a900460ff16610457576040517f08c379a000000000000000000000000000000000000000000000000000000000815260040161044e90611222565b60405180910390fd5b6000600460008381526020019081526020016000205410156104ae576040517f08c379a00000000000000000000000000000000000000000000000000000000081526004016104a5906111c2565b60405180910390fd5b6005600082815260200190815260200160002060009054906101000a900460ff1661050e576040517f08c379a0000000000000000000000000000000000000000000000000000000008152600401610505906111a2565b60405180910390fd5b6003600083815260200190815260200160002060009054906101000a900460ff161561056f576040517f08c379a000000000000000000000000000000000000000000000000000000000815260040161056690611122565b60405180910390fd5b80600260008481526020019081526020016000208190555060016003600084815260200190815260200160002060006101000a81548160ff0219169083151502179055506004600082815260200190815260200160002060008154809291906105d79061130a565b9190505550600160008154809291906105ef9061130a565b91905055505050565b60056020528060005260406000206000915054906101000a900460ff1681565b60008082141561065d576040517f08c379a0000000000000000000000000000000000000000000000000000000008152600401610654906111e2565b60405180910390fd5b6000600260008481526020019081526020016000205411801561069d57506003600083815260200190815260200160002060009054906101000a900460ff165b156106ab57600190506106b0565b600090505b919050565b80600660006101000a81548160ff02191690831515021790555050565b60026020528060005260406000206000915090505481565b6000806000831415610731576040517f08c379a0000000000000000000000000000000000000000000000000000000008152600401610728906111e2565b60405180910390fd5b6003600084815260200190815260200160002060009054906101000a900460ff16610791576040517f08c379a000000000000000000000000000000000000000000000000000000000815260040161078890611142565b60405180910390fd5b82600260008581526020019081526020016000205491509150915091565b60015481565b60036020528060005260406000206000915054906101000a900460ff1681565b600660009054906101000a900460ff1681565b600660009054906101000a900460ff1661080157600080fd5b60008151905060005b8181101561086e5761085b83828151811061084e577f4e487b7100000000000000000000000000000000000000000000000000000000600052603260045260246000fd5b6020026020010151610873565b80806108669061130a565b91505061080a565b505050565b60008114156108b7576040517f08c379a00000000000000000000000000000000000000000000000000000000081526004016108ae906111e2565b60405180910390fd5b600660009054906101000a900460ff16610906576040517f08c379a00000000000000000000000000000000000000000000000000000000081526004016108fd90611182565b60405180910390fd5b60008082815260200190815260200160002060009054906101000a900460ff1615610966576040517f08c379a000000000000000000000000000000000000000000000000000000000815260040161095d90611102565b60405180910390fd5b600160008083815260200190815260200160002060006101000a81548160ff02191690831515021790555050565b60006020528060005260406000206000915054906101000a900460ff1681565b60008114156109f8576040517f08c379a00000000000000000000000000000000000000000000000000000000081526004016109ef906110e2565b60405180910390fd5b600660009054906101000a900460ff16610a47576040517f08c379a0000000000000000000000000000000000000000000000000000000008152600401610a3e90611182565b60405180910390fd5b6005600082815260200190815260200160002060009054906101000a900460ff1615610aa8576040517f08c379a0000000000000000000000000000000000000000000000000000000008152600401610a9f90611162565b60405180910390fd5b6000600460008381526020019081526020016000208190555060016005600083815260200190815260200160002060006101000a81548160ff02191690831515021790555050565b6000610b03610afe846112b7565b611286565b90508083825260208201905082856020860282011115610b2257600080fd5b60005b85811015610b525781610b388882610b9b565b845260208401935060208301925050600181019050610b25565b5050509392505050565b600082601f830112610b6d57600080fd5b8135610b7d848260208601610af0565b91505092915050565b600081359050610b95816113b1565b92915050565b600081359050610baa816113c8565b92915050565b600060208284031215610bc257600080fd5b600082013567ffffffffffffffff811115610bdc57600080fd5b610be884828501610b5c565b91505092915050565b600060208284031215610c0357600080fd5b6000610c1184828501610b86565b91505092915050565b600060208284031215610c2c57600080fd5b6000610c3a84828501610b9b565b91505092915050565b60008060408385031215610c5657600080fd5b6000610c6485828601610b9b565b9250506020610c7585828601610b9b565b9150509250929050565b610c88816112f4565b82525050565b6000610c9b6030836112e3565b91507f54686520656c656374696f6e206973207374696c6c207570636f6d696e672c2060008301527f796f752063616e6e6f7420766f746521000000000000000000000000000000006020830152604082019050919050565b6000610d016018836112e3565b91507f5468652063616e646964617465206964206973206e756c6c00000000000000006000830152602082019050919050565b6000610d416020836112e3565b91507f54686520766f7465722068617320616c7265616479206265656e2061646465646000830152602082019050919050565b6000610d81601b836112e3565b91507f54686520757365722063616e20766f7465206f6e6c79206f6e636500000000006000830152602082019050919050565b6000610dc1602b836112e3565b91507f4b657920646f6573206e6f74206578697374732e20546865207573657220686160008301527f73206e6f7420766f7465640000000000000000000000000000000000000000006020830152604082019050919050565b6000610e276024836112e3565b91507f5468652063616e6469646174652068617320616c7265616479206265656e206160008301527f64646564000000000000000000000000000000000000000000000000000000006020830152604082019050919050565b6000610e8d6036836112e3565b91507f54686520656c656374696f6e2073686f756c64206265207570636f6d696e672060008301527f696e206f7264657220746f206265206368616e676564000000000000000000006020830152604082019050919050565b6000610ef36037836112e3565b91507f5468652063616e6469646174652068617320746f20626520696e20746865206560008301527f6c656374696f6e2063616e64696461746573206c6973740000000000000000006020830152604082019050919050565b6000610f596038836112e3565b91507f5468652063616e6469646174652068617320746f20626520696e20746865206360008301527f616e64696461746573566f746573436f756e74206c69737400000000000000006020830152604082019050919050565b6000610fbf6013836112e3565b91507f54686520766f7465724964206973206e756c6c000000000000000000000000006000830152602082019050919050565b6000610fff6017836112e3565b91507f5468652063616e6469646174654964206973206e756c6c0000000000000000006000830152602082019050919050565b600061103f6028836112e3565b91507f54686520766f7465722068617320746f20626520696e2074686520656c65637460008301527f696f6e206c6973740000000000000000000000000000000000000000000000006020830152604082019050919050565b6110a181611300565b82525050565b60006020820190506110bc6000830184610c7f565b92915050565b600060208201905081810360008301526110db81610c8e565b9050919050565b600060208201905081810360008301526110fb81610cf4565b9050919050565b6000602082019050818103600083015261111b81610d34565b9050919050565b6000602082019050818103600083015261113b81610d74565b9050919050565b6000602082019050818103600083015261115b81610db4565b9050919050565b6000602082019050818103600083015261117b81610e1a565b9050919050565b6000602082019050818103600083015261119b81610e80565b9050919050565b600060208201905081810360008301526111bb81610ee6565b9050919050565b600060208201905081810360008301526111db81610f4c565b9050919050565b600060208201905081810360008301526111fb81610fb2565b9050919050565b6000602082019050818103600083015261121b81610ff2565b9050919050565b6000602082019050818103600083015261123b81611032565b9050919050565b60006020820190506112576000830184611098565b92915050565b60006040820190506112726000830185611098565b61127f6020830184611098565b9392505050565b6000604051905081810181811067ffffffffffffffff821117156112ad576112ac611382565b5b8060405250919050565b600067ffffffffffffffff8211156112d2576112d1611382565b5b602082029050602081019050919050565b600082825260208201905092915050565b60008115159050919050565b6000819050919050565b600061131582611300565b91507fffffffffffffffffffffffffffffffffffffffffffffffffffffffffffffffff82141561134857611347611353565b5b600182019050919050565b7f4e487b7100000000000000000000000000000000000000000000000000000000600052601160045260246000fd5b7f4e487b7100000000000000000000000000000000000000000000000000000000600052604160045260246000fd5b6113ba816112f4565b81146113c557600080fd5b50565b6113d181611300565b81146113dc57600080fd5b5056fea2646970667358221220c2d35f5c107f20ec02bf142fb80630a53f0c90898649bc33a479f98195bed78b64736f6c63430008000033",
  "immutableReferences": {},
  "source": "//Because Ethereum is an open source project, the first line shows the contracts open source license.\r\n//The second line specifies the Solidity version necessary to execute this contract.\r\n\r\nimport './Verifier.sol';\r\n\r\n// SPDX-License-Identifier: GPL-3.0\r\npragma solidity >=0.8.0;\r\n\r\ncontract Election {\r\n    //Election properties\r\n    mapping(uint => bool) public voters;\r\n\r\n    uint public votesCount;\r\n    mapping(uint => uint) public votes;\r\n    mapping(uint => bool) public usersVoted;\r\n\r\n    mapping(uint => uint) public candidatesVotesCount;\r\n    mapping(uint => bool) public candidates;\r\n\r\n    //Is the election is ongoing, changes to the election must not be made (eg. description or candidates of the election)\r\n    bool public IsUpcomingElection = true;\r\n\r\n    //Test to see if is cheaper to use a list of voters as a parameters and a loop to add the voters \r\n    //instead using a single voterId and made too many transactions\r\n    function addVoter(uint voterId) public {\r\n        require(voterId != 0, \"The voterId is null\");\r\n\r\n        require(IsUpcomingElection, \"The election should be upcoming in order to be changed\");\r\n\r\n        //Do not add a voter if he has been already added\r\n        require(!voters[voterId], \"The voter has already been added\");\r\n        \r\n        voters[voterId] = true;\r\n    }\r\n\r\n    function addVoters(uint[] memory votersList) public {\r\n        require(IsUpcomingElection);\r\n\r\n        uint lenght = votersList.length;\r\n\r\n        for(uint i = 0; i < lenght; i++)\r\n        {\r\n            addVoter(votersList[i]);\r\n        }\r\n    }\r\n\r\n    function addCandidate(uint candidateId) public {\r\n        require(candidateId != 0, \"The candidate id is null\");\r\n\r\n        require(IsUpcomingElection, \"The election should be upcoming in order to be changed\");\r\n\r\n        require(!candidates[candidateId], \"The candidate has already been added\");\r\n        \r\n        candidatesVotesCount[candidateId] = 0;\r\n        candidates[candidateId] = true;\r\n    }\r\n\r\n    function castVote(uint voterId, uint candidateId) public {\r\n        require(voterId != 0, \"The voterId is null\");\r\n        require(candidateId != 0, \"The candidateId is null\");\r\n\r\n        //The election should be ongoing in order to voter\r\n        require(!IsUpcomingElection, \"The election is still upcoming, you cannot vote!\");\r\n\r\n        //The voter has to be in the appropriate voters list\r\n        require(voters[voterId], \"The voter has to be in the election list\");\r\n\r\n        //The candidate has to be in the candidates list for the current election\r\n        require(candidatesVotesCount[candidateId] >= 0, \"The candidate has to be in the candidatesVotesCount list\");\r\n        require(candidates[candidateId], \"The candidate has to be in the election candidates list\");\r\n\r\n        //If the voter has already voted, he cannot vote again\r\n        require(!usersVoted[voterId], \"The user can vote only once\");\r\n        \r\n        votes[voterId] = candidateId;\r\n\r\n        usersVoted[voterId] = true;\r\n\r\n        candidatesVotesCount[candidateId]++;\r\n\r\n        votesCount++;\r\n    }\r\n\r\n    //Get the votes of the user\r\n    function getUserVote(uint voterId) public view returns (uint VoterId, uint CandidateId){\r\n        //Check if user exists\r\n        require(voterId != 0, \"The voterId is null\");\r\n        \r\n        require(usersVoted[voterId], \"Key does not exists. The user has not voted\");\r\n\r\n        return (voterId, votes[voterId]);\r\n    }\r\n\r\n    //Check if the user has already voted (the voter is in the votes mapping)\r\n    //The function returns true if the voter has already voted, than returns false\r\n    function checkUserHasVoted(uint voterId) public view returns (bool) {\r\n        require(voterId != 0, \"The voterId is null\");\r\n\r\n        if(votes[voterId] > 0 && usersVoted[voterId])\r\n            return true;\r\n        else\r\n            return false;\r\n    }\r\n\r\n    //If the election change the state from upcoming to ungoing, set the IsUpcomingElection to true and do not let the users to made any other changes to the contract\r\n    function changeElectionState(bool electionState) public{\r\n        IsUpcomingElection = electionState;\r\n    }\r\n}",
  "sourcePath": "D:\\Master\\Dizertatie\\workspace\\BlockchainVotingApp\\SmartContracts\\16_BombTest\\contracts\\Election.sol",
  "compiler": {
    "name": "solc",
    "version": "0.8.0+commit.c7dfd78e.Emscripten.clang"
  },
  "schemaVersion": "3.4.16",
  "updatedAt": "2024-01-18T17:30:45.915Z",
  "devdoc": {
    "kind": "dev",
    "methods": {},
    "version": 1
  },
  "userdoc": {
    "kind": "user",
    "methods": {},
    "version": 1
  }
}