{
  "contractName": "Election",
  "abi": [
    {
      "inputs": [],
      "stateMutability": "nonpayable",
      "type": "constructor"
    },
    {
      "inputs": [],
      "name": "IsUpcomingElection",
      "outputs": [
        {
          "internalType": "bool",
          "name": "",
          "type": "bool"
        }
      ],
      "stateMutability": "view",
      "type": "function"
    },
    {
      "inputs": [
        {
          "internalType": "uint256",
          "name": "",
          "type": "uint256"
        }
      ],
      "name": "candidates",
      "outputs": [
        {
          "internalType": "bool",
          "name": "",
          "type": "bool"
        }
      ],
      "stateMutability": "view",
      "type": "function"
    },
    {
      "inputs": [
        {
          "internalType": "uint256",
          "name": "",
          "type": "uint256"
        }
      ],
      "name": "candidatesVotesCount",
      "outputs": [
        {
          "internalType": "uint256",
          "name": "",
          "type": "uint256"
        }
      ],
      "stateMutability": "view",
      "type": "function"
    },
    {
      "inputs": [
        {
          "internalType": "uint256",
          "name": "",
          "type": "uint256"
        }
      ],
      "name": "usersVoted",
      "outputs": [
        {
          "internalType": "bool",
          "name": "",
          "type": "bool"
        }
      ],
      "stateMutability": "view",
      "type": "function"
    },
    {
      "inputs": [],
      "name": "verifier",
      "outputs": [
        {
          "internalType": "contract Verifier",
          "name": "",
          "type": "address"
        }
      ],
      "stateMutability": "view",
      "type": "function"
    },
    {
      "inputs": [
        {
          "internalType": "uint256",
          "name": "",
          "type": "uint256"
        }
      ],
      "name": "votes",
      "outputs": [
        {
          "internalType": "uint256",
          "name": "",
          "type": "uint256"
        }
      ],
      "stateMutability": "view",
      "type": "function"
    },
    {
      "inputs": [],
      "name": "votesCount",
      "outputs": [
        {
          "internalType": "uint256",
          "name": "",
          "type": "uint256"
        }
      ],
      "stateMutability": "view",
      "type": "function"
    },
    {
      "inputs": [
        {
          "internalType": "uint256",
          "name": "candidateId",
          "type": "uint256"
        }
      ],
      "name": "addCandidate",
      "outputs": [],
      "stateMutability": "nonpayable",
      "type": "function"
    },
    {
      "inputs": [
        {
          "internalType": "uint256",
          "name": "ax",
          "type": "uint256"
        },
        {
          "internalType": "uint256",
          "name": "ay",
          "type": "uint256"
        },
        {
          "internalType": "uint256",
          "name": "bx0",
          "type": "uint256"
        },
        {
          "internalType": "uint256",
          "name": "bx1",
          "type": "uint256"
        },
        {
          "internalType": "uint256",
          "name": "by0",
          "type": "uint256"
        },
        {
          "internalType": "uint256",
          "name": "by1",
          "type": "uint256"
        },
        {
          "internalType": "uint256",
          "name": "cx",
          "type": "uint256"
        },
        {
          "internalType": "uint256",
          "name": "cy",
          "type": "uint256"
        },
        {
          "internalType": "uint256",
          "name": "candidateId",
          "type": "uint256"
        }
      ],
      "name": "castVote",
      "outputs": [
        {
          "internalType": "bool",
          "name": "",
          "type": "bool"
        }
      ],
      "stateMutability": "nonpayable",
      "type": "function"
    },
    {
      "inputs": [
        {
          "internalType": "uint256",
          "name": "voterId",
          "type": "uint256"
        }
      ],
      "name": "getUserVote",
      "outputs": [
        {
          "internalType": "uint256",
          "name": "VoterId",
          "type": "uint256"
        },
        {
          "internalType": "uint256",
          "name": "CandidateId",
          "type": "uint256"
        }
      ],
      "stateMutability": "view",
      "type": "function"
    },
    {
      "inputs": [
        {
          "internalType": "uint256",
          "name": "voterId",
          "type": "uint256"
        }
      ],
      "name": "checkUserHasVoted",
      "outputs": [
        {
          "internalType": "bool",
          "name": "",
          "type": "bool"
        }
      ],
      "stateMutability": "view",
      "type": "function"
    },
    {
      "inputs": [
        {
          "internalType": "bool",
          "name": "electionState",
          "type": "bool"
        }
      ],
      "name": "changeElectionState",
      "outputs": [],
      "stateMutability": "nonpayable",
      "type": "function"
    }
  ],
  "bytecode": "0x60806040526001600660006101000a81548160ff02191690831515021790555034801561002b57600080fd5b5060405161003890610099565b604051809103906000f080158015610054573d6000803e3d6000fd5b506000806101000a81548173ffffffffffffffffffffffffffffffffffffffff021916908373ffffffffffffffffffffffffffffffffffffffff1602179055506100a6565b6119368061141a83390190565b611365806100b56000396000f3fe608060405234801561001057600080fd5b50600436106100b45760003560e01c80635df81330116100715780635df81330146101b357806386194c19146101e35780638778b27d146102145780639c85af6f14610232578063aa95124f14610262578063e844d09714610280576100b4565b806301fb5d6f146100b95780630bd4dec1146100e95780632b7ac3f3146101195780633477ee2e146101375780633f4cd184146101675780634140be8614610197575b600080fd5b6100d360048036038101906100ce9190610aa5565b61029c565b6040516100e0919061101b565b60405180910390f35b61010360048036038101906100fe9190610a7c565b610542565b60405161011091906111ad565b60405180910390f35b61012161055a565b60405161012e9190611036565b60405180910390f35b610151600480360381019061014c9190610a7c565b61057e565b60405161015e919061101b565b60405180910390f35b610181600480360381019061017c9190610a7c565b61059e565b60405161018e919061101b565b60405180910390f35b6101b160048036038101906101ac9190610a2a565b61063b565b005b6101cd60048036038101906101c89190610a7c565b610658565b6040516101da91906111ad565b60405180910390f35b6101fd60048036038101906101f89190610a7c565b610670565b60405161020b9291906111c8565b60405180910390f35b61021c610735565b60405161022991906111ad565b60405180910390f35b61024c60048036038101906102479190610a7c565b61073b565b604051610259919061101b565b60405180910390f35b61026a61075b565b604051610277919061101b565b60405180910390f35b61029a60048036038101906102959190610a7c565b61076e565b005b6000808214156102e1576040517f08c379a00000000000000000000000000000000000000000000000000000000081526004016102d890611171565b60405180910390fd5b600660009054906101000a900460ff1615610331576040517f08c379a000000000000000000000000000000000000000000000000000000000815260040161032890611051565b60405180910390fd5b600060046000848152602001908152602001600020541015610388576040517f08c379a000000000000000000000000000000000000000000000000000000000815260040161037f90611131565b60405180910390fd5b6005600083815260200190815260200160002060009054906101000a900460ff166103e8576040517f08c379a00000000000000000000000000000000000000000000000000000000081526004016103df90611111565b60405180910390fd5b60006103fa8b8b8b8b8b8b8b8b6108aa565b905060008054906101000a900473ffffffffffffffffffffffffffffffffffffffff1673ffffffffffffffffffffffffffffffffffffffff1663f6af0311826040518263ffffffff1660e01b81526004016104559190611191565b60206040518083038186803b15801561046d57600080fd5b505afa92505050801561049e57506040513d601f19601f8201168201806040525081019061049b9190610a53565b60015b6104ed5760006104e3576040517f08c379a00000000000000000000000000000000000000000000000000000000081526004016104da90611091565b60405180910390fd5b6000915050610535565b5060046000848152602001908152602001600020600081548092919061051290611289565b91905055506001600081548092919061052a90611289565b919050555060019150505b9998505050505050505050565b60046020528060005260406000206000915090505481565b60008054906101000a900473ffffffffffffffffffffffffffffffffffffffff1681565b60056020528060005260406000206000915054906101000a900460ff1681565b6000808214156105e3576040517f08c379a00000000000000000000000000000000000000000000000000000000081526004016105da90611151565b60405180910390fd5b6000600260008481526020019081526020016000205411801561062357506003600083815260200190815260200160002060009054906101000a900460ff165b156106315760019050610636565b600090505b919050565b80600660006101000a81548160ff02191690831515021790555050565b60026020528060005260406000206000915090505481565b60008060008314156106b7576040517f08c379a00000000000000000000000000000000000000000000000000000000081526004016106ae90611151565b60405180910390fd5b6003600084815260200190815260200160002060009054906101000a900460ff16610717576040517f08c379a000000000000000000000000000000000000000000000000000000000815260040161070e906110b1565b60405180910390fd5b82600260008581526020019081526020016000205491509150915091565b60015481565b60036020528060005260406000206000915054906101000a900460ff1681565b600660009054906101000a900460ff1681565b60008114156107b2576040517f08c379a00000000000000000000000000000000000000000000000000000000081526004016107a990611071565b60405180910390fd5b600660009054906101000a900460ff16610801576040517f08c379a00000000000000000000000000000000000000000000000000000000081526004016107f8906110f1565b60405180910390fd5b6005600082815260200190815260200160002060009054906101000a900460ff1615610862576040517f08c379a0000000000000000000000000000000000000000000000000000000008152600401610859906110d1565b60405180910390fd5b6000600460008381526020019081526020016000208190555060016005600083815260200190815260200160002060006101000a81548160ff02191690831515021790555050565b6108b2610956565b6108ba610989565b6108c26109a3565b6108ca610989565b8b8360000181815250508a83602001818152505060405180604001604052808b81526020018a81525082600001819052506040518060400160405280898152602001888152508260200181905250858160000181815250508481602001818152505082846000018190525081846020018190525080846040018190525050505098975050505050505050565b6040518060600160405280610969610989565b81526020016109766109a3565b8152602001610983610989565b81525090565b604051806040016040528060008152602001600081525090565b60405180604001604052806109b66109c9565b81526020016109c36109c9565b81525090565b6040518060400160405280600290602082028036833780820191505090505090565b6000813590506109fa81611301565b92915050565b600081519050610a0f81611301565b92915050565b600081359050610a2481611318565b92915050565b600060208284031215610a3c57600080fd5b6000610a4a848285016109eb565b91505092915050565b600060208284031215610a6557600080fd5b6000610a7384828501610a00565b91505092915050565b600060208284031215610a8e57600080fd5b6000610a9c84828501610a15565b91505092915050565b60008060008060008060008060006101208a8c031215610ac457600080fd5b6000610ad28c828d01610a15565b9950506020610ae38c828d01610a15565b9850506040610af48c828d01610a15565b9750506060610b058c828d01610a15565b9650506080610b168c828d01610a15565b95505060a0610b278c828d01610a15565b94505060c0610b388c828d01610a15565b93505060e0610b498c828d01610a15565b925050610100610b5b8c828d01610a15565b9150509295985092959850929598565b6000610b778383610ffd565b60208301905092915050565b610b8c816111fb565b610b968184611213565b9250610ba1826111f1565b8060005b83811015610bd2578151610bb98782610b6b565b9650610bc483611206565b925050600181019050610ba5565b505050505050565b610be38161122f565b82525050565b610bf281611265565b82525050565b6000610c0560308361121e565b91507f54686520656c656374696f6e206973207374696c6c207570636f6d696e672c2060008301527f796f752063616e6e6f7420766f746521000000000000000000000000000000006020830152604082019050919050565b6000610c6b60188361121e565b91507f5468652063616e646964617465206964206973206e756c6c00000000000000006000830152602082019050919050565b6000610cab60148361121e565b91507f54686520766f74657220697320696e76616c69640000000000000000000000006000830152602082019050919050565b6000610ceb602b8361121e565b91507f4b657920646f6573206e6f74206578697374732e20546865207573657220686160008301527f73206e6f7420766f7465640000000000000000000000000000000000000000006020830152604082019050919050565b6000610d5160248361121e565b91507f5468652063616e6469646174652068617320616c7265616479206265656e206160008301527f64646564000000000000000000000000000000000000000000000000000000006020830152604082019050919050565b6000610db760368361121e565b91507f54686520656c656374696f6e2073686f756c64206265207570636f6d696e672060008301527f696e206f7264657220746f206265206368616e676564000000000000000000006020830152604082019050919050565b6000610e1d60378361121e565b91507f5468652063616e6469646174652068617320746f20626520696e20746865206560008301527f6c656374696f6e2063616e64696461746573206c6973740000000000000000006020830152604082019050919050565b6000610e8360388361121e565b91507f5468652063616e6469646174652068617320746f20626520696e20746865206360008301527f616e64696461746573566f746573436f756e74206c69737400000000000000006020830152604082019050919050565b6000610ee960138361121e565b91507f54686520766f7465724964206973206e756c6c000000000000000000000000006000830152602082019050919050565b6000610f2960178361121e565b91507f5468652063616e6469646174654964206973206e756c6c0000000000000000006000830152602082019050919050565b604082016000820151610f726000850182610ffd565b506020820151610f856020850182610ffd565b50505050565b608082016000820151610fa16000850182610b83565b506020820151610fb46040850182610b83565b50505050565b61010082016000820151610fd16000850182610f5c565b506020820151610fe46040850182610f8b565b506040820151610ff760c0850182610f5c565b50505050565b6110068161125b565b82525050565b6110158161125b565b82525050565b60006020820190506110306000830184610bda565b92915050565b600060208201905061104b6000830184610be9565b92915050565b6000602082019050818103600083015261106a81610bf8565b9050919050565b6000602082019050818103600083015261108a81610c5e565b9050919050565b600060208201905081810360008301526110aa81610c9e565b9050919050565b600060208201905081810360008301526110ca81610cde565b9050919050565b600060208201905081810360008301526110ea81610d44565b9050919050565b6000602082019050818103600083015261110a81610daa565b9050919050565b6000602082019050818103600083015261112a81610e10565b9050919050565b6000602082019050818103600083015261114a81610e76565b9050919050565b6000602082019050818103600083015261116a81610edc565b9050919050565b6000602082019050818103600083015261118a81610f1c565b9050919050565b6000610100820190506111a76000830184610fba565b92915050565b60006020820190506111c2600083018461100c565b92915050565b60006040820190506111dd600083018561100c565b6111ea602083018461100c565b9392505050565b6000819050919050565b600060029050919050565b6000602082019050919050565b600081905092915050565b600082825260208201905092915050565b60008115159050919050565b600073ffffffffffffffffffffffffffffffffffffffff82169050919050565b6000819050919050565b600061127082611277565b9050919050565b60006112828261123b565b9050919050565b60006112948261125b565b91507fffffffffffffffffffffffffffffffffffffffffffffffffffffffffffffffff8214156112c7576112c66112d2565b5b600182019050919050565b7f4e487b7100000000000000000000000000000000000000000000000000000000600052601160045260246000fd5b61130a8161122f565b811461131557600080fd5b50565b6113218161125b565b811461132c57600080fd5b5056fea264697066735822122041a3518e9d969733da637b72e0bd6933525be3ee4f8d1cc5cdde964ff31d300e64736f6c63430008000033608060405234801561001057600080fd5b50611916806100206000396000f3fe608060405234801561001057600080fd5b506004361061002b5760003560e01c8063f6af031114610030575b600080fd5b61004a6004803603810190610045919061161d565b610060565b6040516100579190611656565b60405180910390f35b600080600067ffffffffffffffff8111156100a4577f4e487b7100000000000000000000000000000000000000000000000000000000600052604160045260246000fd5b6040519080825280602002602001820160405280156100d25781602001602082028036833780820191505090505b50905060006100e182856100fc565b14156100f15760019150506100f7565b60009150505b919050565b6000807f30644e72e131a029b85045b68181585d2833e84879b9709143e1f593f00000019050600061012c61032b565b90508060800151516001865161014291906116c8565b1461014c57600080fd5b60006040518060400160405280600081526020016000815250905060005b865181101561027757838782815181106101ad577f4e487b7100000000000000000000000000000000000000000000000000000000600052603260045260246000fd5b6020026020010151106101bf57600080fd5b6102628261025d85608001516001856101d891906116c8565b8151811061020f577f4e487b7100000000000000000000000000000000000000000000000000000000600052603260045260246000fd5b60200260200101518a8581518110610250577f4e487b7100000000000000000000000000000000000000000000000000000000600052603260045260246000fd5b6020026020010151610703565b61081c565b9150808061026f906117c2565b91505061016a565b506102c78183608001516000815181106102ba577f4e487b7100000000000000000000000000000000000000000000000000000000600052603260045260246000fd5b602002602001015161081c565b905061030d856000015186602001516102df84610981565b85604001516102f18a60400151610981565b87606001516103038960000151610981565b8960200151610a26565b61031d5760019350505050610325565b600093505050505b92915050565b610333611376565b60405180604001604052807f026ffeb3ac7c52fa863cbbb2a02d476b27b9d23c1d649778af5ba39187d0d80e81526020017f0c357a5821d7c30bf10e2edc312f870f6d17a972aac2fe63d3812274225195998152508160000181905250604051806040016040528060405180604001604052807f11ed3ae7cc1eee114a95e0156816e5fc27be0c5894b6fea4419bf0c04157b57681526020017f04ddb3284a637d276110c60d95f09e73a8d2fa29c18ca6a2345d79112bf63fe1815250815260200160405180604001604052807f113aaf0f27080a1b9abdc76a8c97dc7f659199b0b5623090d2a65e3f468a398681526020017f114e09719c413faeeaa7eef13b31f0fc76492357438c5e10371370a625cefd998152508152508160200181905250604051806040016040528060405180604001604052807f0206258d13a73811f447b7c57072faa2f5ff345dc55610a60f1e45a36ab1407981526020017f040b9cb6ad40f1c670264ef6f85dd4f91490709621ac88ec6be8739d73020013815250815260200160405180604001604052807f11a69761627d42384b94f01f8bac18a5dce82ba056c422c1d0fd741ba8ea029a81526020017f2c9954d2573b7597d17b9bd3c20db906c5256532c048a2df3d1416c4c588ca7e8152508152508160400181905250604051806040016040528060405180604001604052807f2572eb1473f920224751f377114f8f1debb0d9e237d42ffd871e19d43943ea6081526020017f010f5a6dc87b2969db8912e509dcf9bba64ea13aa0a908a0a2d971dad634927c815250815260200160405180604001604052807f21fcdc2dae36117a1e29bb0cfbbfec27bc5dc0fa7b4589687debf05e093cb26e81526020017f26a50195d8b7146d30fec4ca028183201aa81b32c028279a01bf65b1a8cf8f988152508152508160600181905250600167ffffffffffffffff811115610620577f4e487b7100000000000000000000000000000000000000000000000000000000600052604160045260246000fd5b60405190808252806020026020018201604052801561065957816020015b6106466113bd565b81526020019060019003908161063e5790505b50816080018190525060405180604001604052807f239850e57df555fbae3f245b9a0ecbc7b28949c2de34632d5fb7ed4247b3a09a81526020017f295ba38cfe00a380b24958d1416db72d7193c4b3649b84f1a242973053629b7581525081608001516000815181106106f5577f4e487b7100000000000000000000000000000000000000000000000000000000600052603260045260246000fd5b602002602001018190525090565b61070b6113bd565b6107136113d7565b836000015181600060038110610752577f4e487b7100000000000000000000000000000000000000000000000000000000600052603260045260246000fd5b60200201818152505083602001518160016003811061079a577f4e487b7100000000000000000000000000000000000000000000000000000000600052603260045260246000fd5b60200201818152505082816002600381106107de577f4e487b7100000000000000000000000000000000000000000000000000000000600052603260045260246000fd5b602002018181525050600060608360808460076107d05a03fa9050806000811461080757610809565bfe5b508061081457600080fd5b505092915050565b6108246113bd565b61082c6113f9565b83600001518160006004811061086b577f4e487b7100000000000000000000000000000000000000000000000000000000600052603260045260246000fd5b6020020181815250508360200151816001600481106108b3577f4e487b7100000000000000000000000000000000000000000000000000000000600052603260045260246000fd5b6020020181815250508260000151816002600481106108fb577f4e487b7100000000000000000000000000000000000000000000000000000000600052603260045260246000fd5b602002018181525050826020015181600360048110610943577f4e487b7100000000000000000000000000000000000000000000000000000000600052603260045260246000fd5b602002018181525050600060608360c08460066107d05a03fa9050806000811461096c5761096e565bfe5b508061097957600080fd5b505092915050565b6109896113bd565b60007f30644e72e131a029b85045b68181585d97816a916871ca8d3c208c16d87cfd479050600083600001511480156109c6575060008360200151145b156109ea576040518060400160405280600081526020016000815250915050610a21565b604051806040016040528084600001518152602001828560200151610a0f919061180b565b83610a1a9190611778565b8152509150505b919050565b600080600467ffffffffffffffff811115610a6a577f4e487b7100000000000000000000000000000000000000000000000000000000600052604160045260246000fd5b604051908082528060200260200182016040528015610aa357816020015b610a906113bd565b815260200190600190039081610a885790505b5090506000600467ffffffffffffffff811115610ae9577f4e487b7100000000000000000000000000000000000000000000000000000000600052604160045260246000fd5b604051908082528060200260200182016040528015610b2257816020015b610b0f61141b565b815260200190600190039081610b075790505b5090508a82600081518110610b60577f4e487b7100000000000000000000000000000000000000000000000000000000600052603260045260246000fd5b60200260200101819052508882600181518110610ba6577f4e487b7100000000000000000000000000000000000000000000000000000000600052603260045260246000fd5b60200260200101819052508682600281518110610bec577f4e487b7100000000000000000000000000000000000000000000000000000000600052603260045260246000fd5b60200260200101819052508482600381518110610c32577f4e487b7100000000000000000000000000000000000000000000000000000000600052603260045260246000fd5b60200260200101819052508981600081518110610c78577f4e487b7100000000000000000000000000000000000000000000000000000000600052603260045260246000fd5b60200260200101819052508781600181518110610cbe577f4e487b7100000000000000000000000000000000000000000000000000000000600052603260045260246000fd5b60200260200101819052508581600281518110610d04577f4e487b7100000000000000000000000000000000000000000000000000000000600052603260045260246000fd5b60200260200101819052508381600381518110610d4a577f4e487b7100000000000000000000000000000000000000000000000000000000600052603260045260246000fd5b6020026020010181905250610d5f8282610d6f565b9250505098975050505050505050565b60008151835114610d7f57600080fd5b6000835190506000600682610d94919061171e565b905060008167ffffffffffffffff811115610dd8577f4e487b7100000000000000000000000000000000000000000000000000000000600052604160045260246000fd5b604051908082528060200260200182016040528015610e065781602001602082028036833780820191505090505b50905060005b838110156112eb57868181518110610e4d577f4e487b7100000000000000000000000000000000000000000000000000000000600052603260045260246000fd5b602002602001015160000151826000600684610e69919061171e565b610e7391906116c8565b81518110610eaa577f4e487b7100000000000000000000000000000000000000000000000000000000600052603260045260246000fd5b602002602001018181525050868181518110610eef577f4e487b7100000000000000000000000000000000000000000000000000000000600052603260045260246000fd5b602002602001015160200151826001600684610f0b919061171e565b610f1591906116c8565b81518110610f4c577f4e487b7100000000000000000000000000000000000000000000000000000000600052603260045260246000fd5b602002602001018181525050858181518110610f91577f4e487b7100000000000000000000000000000000000000000000000000000000600052603260045260246000fd5b602002602001015160000151600160028110610fd6577f4e487b7100000000000000000000000000000000000000000000000000000000600052603260045260246000fd5b6020020151826002600684610feb919061171e565b610ff591906116c8565b8151811061102c577f4e487b7100000000000000000000000000000000000000000000000000000000600052603260045260246000fd5b602002602001018181525050858181518110611071577f4e487b7100000000000000000000000000000000000000000000000000000000600052603260045260246000fd5b6020026020010151600001516000600281106110b6577f4e487b7100000000000000000000000000000000000000000000000000000000600052603260045260246000fd5b60200201518260036006846110cb919061171e565b6110d591906116c8565b8151811061110c577f4e487b7100000000000000000000000000000000000000000000000000000000600052603260045260246000fd5b602002602001018181525050858181518110611151577f4e487b7100000000000000000000000000000000000000000000000000000000600052603260045260246000fd5b602002602001015160200151600160028110611196577f4e487b7100000000000000000000000000000000000000000000000000000000600052603260045260246000fd5b60200201518260046006846111ab919061171e565b6111b591906116c8565b815181106111ec577f4e487b7100000000000000000000000000000000000000000000000000000000600052603260045260246000fd5b602002602001018181525050858181518110611231577f4e487b7100000000000000000000000000000000000000000000000000000000600052603260045260246000fd5b602002602001015160200151600060028110611276577f4e487b7100000000000000000000000000000000000000000000000000000000600052603260045260246000fd5b602002015182600560068461128b919061171e565b61129591906116c8565b815181106112cc577f4e487b7100000000000000000000000000000000000000000000000000000000600052603260045260246000fd5b60200260200101818152505080806112e3906117c2565b915050610e0c565b506112f4611441565b6000602082602086026020860160086107d05a03fa905080600081146113195761131b565bfe5b508061132657600080fd5b600082600060018110611362577f4e487b7100000000000000000000000000000000000000000000000000000000600052603260045260246000fd5b602002015114159550505050505092915050565b6040518060a001604052806113896113bd565b815260200161139661141b565b81526020016113a361141b565b81526020016113b061141b565b8152602001606081525090565b604051806040016040528060008152602001600081525090565b6040518060600160405280600390602082028036833780820191505090505090565b6040518060800160405280600490602082028036833780820191505090505090565b604051806040016040528061142e611463565b815260200161143b611463565b81525090565b6040518060200160405280600190602082028036833780820191505090505090565b6040518060400160405280600290602082028036833780820191505090505090565b6000611498611493846116a2565b611671565b905080828560208602820111156114ae57600080fd5b60005b858110156114de57816114c48882611608565b8452602084019350602083019250506001810190506114b1565b5050509392505050565b600082601f8301126114f957600080fd5b6002611506848285611485565b91505092915050565b60006040828403121561152157600080fd5b61152b6040611671565b9050600061153b84828501611608565b600083015250602061154f84828501611608565b60208301525092915050565b60006080828403121561156d57600080fd5b6115776040611671565b90506000611587848285016114e8565b600083015250604061159b848285016114e8565b60208301525092915050565b600061010082840312156115ba57600080fd5b6115c46060611671565b905060006115d48482850161150f565b60008301525060406115e88482850161155b565b60208301525060c06115fc8482850161150f565b60408301525092915050565b600081359050611617816118c9565b92915050565b6000610100828403121561163057600080fd5b600061163e848285016115a7565b91505092915050565b611650816117ac565b82525050565b600060208201905061166b6000830184611647565b92915050565b6000604051905081810181811067ffffffffffffffff821117156116985761169761189a565b5b8060405250919050565b600067ffffffffffffffff8211156116bd576116bc61189a565b5b602082029050919050565b60006116d3826117b8565b91506116de836117b8565b9250827fffffffffffffffffffffffffffffffffffffffffffffffffffffffffffffffff038211156117135761171261183c565b5b828201905092915050565b6000611729826117b8565b9150611734836117b8565b9250817fffffffffffffffffffffffffffffffffffffffffffffffffffffffffffffffff048311821515161561176d5761176c61183c565b5b828202905092915050565b6000611783826117b8565b915061178e836117b8565b9250828210156117a1576117a061183c565b5b828203905092915050565b60008115159050919050565b6000819050919050565b60006117cd826117b8565b91507fffffffffffffffffffffffffffffffffffffffffffffffffffffffffffffffff821415611800576117ff61183c565b5b600182019050919050565b6000611816826117b8565b9150611821836117b8565b9250826118315761183061186b565b5b828206905092915050565b7f4e487b7100000000000000000000000000000000000000000000000000000000600052601160045260246000fd5b7f4e487b7100000000000000000000000000000000000000000000000000000000600052601260045260246000fd5b7f4e487b7100000000000000000000000000000000000000000000000000000000600052604160045260246000fd5b6118d2816117b8565b81146118dd57600080fd5b5056fea26469706673582212205281750a48d4adbc6cef998db11158c5ed9357c1e034f32448176dc3f0c03b2964736f6c63430008000033",
  "immutableReferences": {},
  "source": "//Because Ethereum is an open source project, the first line shows the contracts open source license.\r\n//The second line specifies the Solidity version necessary to execute this contract.\r\n\r\nimport './Verifier.sol';\r\n\r\n// SPDX-License-Identifier: GPL-3.0\r\npragma solidity >=0.8.0;\r\n\r\ncontract Election {\r\n    Verifier public verifier;\r\n\r\n    constructor(){\r\n        verifier = new Verifier();\r\n    }\r\n\r\n    uint public votesCount;\r\n    mapping(uint => uint) public votes;\r\n    mapping(uint => bool) public usersVoted;\r\n\r\n    mapping(uint => uint) public candidatesVotesCount;\r\n    mapping(uint => bool) public candidates;\r\n\r\n    //Is the election is ongoing, changes to the election must not be made (eg. description or candidates of the election)\r\n    bool public IsUpcomingElection = true;\r\n\r\n    function addCandidate(uint candidateId) public {\r\n        require(candidateId != 0, \"The candidate id is null\");\r\n\r\n        require(IsUpcomingElection, \"The election should be upcoming in order to be changed\");\r\n\r\n        require(!candidates[candidateId], \"The candidate has already been added\");\r\n        \r\n        candidatesVotesCount[candidateId] = 0;\r\n        candidates[candidateId] = true;\r\n    }\r\n\r\n    function castVote(uint256 ax, uint256 ay, uint256 bx0, uint256 bx1, uint256 by0, uint256 by1, uint256 cx, uint256 cy, uint candidateId) public returns (bool){\r\n        //todo: check the other args\r\n        require(candidateId != 0, \"The candidateId is null\");\r\n\r\n        //The election should be ongoing in order to voter\r\n        require(!IsUpcomingElection, \"The election is still upcoming, you cannot vote!\");\r\n \r\n        //The candidate has to be in the candidates list for the current election\r\n        require(candidatesVotesCount[candidateId] >= 0, \"The candidate has to be in the candidatesVotesCount list\");\r\n        require(candidates[candidateId], \"The candidate has to be in the election candidates list\");\r\n\r\n        // Use ZKP to proove the voter is in the appropriate voters list\r\n        Verifier.Proof memory proof= GetProof(ax, ay, bx0, bx1, by0, by1, cx, cy);\r\n            \r\n        try verifier.verifyTx(proof) \r\n        {\r\n            candidatesVotesCount[candidateId]++;\r\n            votesCount++;\r\n            return true;\r\n        }\r\n        catch\r\n        {\r\n            require(false, \"The voter is invalid\");\r\n            return false;\r\n        }\r\n    }\r\n\r\n    //Get the votes of the user\r\n    function getUserVote(uint voterId) public view returns (uint VoterId, uint CandidateId){\r\n        //Check if user exists\r\n        require(voterId != 0, \"The voterId is null\");\r\n        \r\n        require(usersVoted[voterId], \"Key does not exists. The user has not voted\");\r\n\r\n        return (voterId, votes[voterId]);\r\n    }\r\n\r\n    //Check if the user has already voted (the voter is in the votes mapping)\r\n    //The function returns true if the voter has already voted, than returns false\r\n    function checkUserHasVoted(uint voterId) public view returns (bool) {\r\n        require(voterId != 0, \"The voterId is null\");\r\n\r\n        if(votes[voterId] > 0 && usersVoted[voterId])\r\n            return true;\r\n        else\r\n            return false;\r\n    }\r\n\r\n    //If the election change the state from upcoming to ungoing, set the IsUpcomingElection to true and do not let the users to made any other changes to the contract\r\n    function changeElectionState(bool electionState) public{\r\n        IsUpcomingElection = electionState;\r\n    }\r\n\r\n    //private functions\r\n    function GetProof(uint256 ax, uint256 ay, uint256 bx0, uint256 bx1, uint256 by0, uint256 by1, uint256 cx, uint256 cy) internal pure returns (Verifier.Proof memory proof) {\r\n        Pairing.G1Point memory a;\r\n        Pairing.G2Point memory b;\r\n        Pairing.G1Point memory c;\r\n\r\n        a.X = ax;\r\n        a.Y = ay;\r\n\r\n        b.X = [bx0,bx1];\r\n        b.Y = [by0,by1];\r\n\r\n        c.X = cx;\r\n        c.Y = cy;\r\n\r\n        proof.a = a;\r\n        proof.b = b;\r\n        proof.c = c;\r\n\r\n        return proof;\r\n    }\r\n}",
  "sourcePath": "D:\\Master\\Dizertatie\\workspace\\BlockchainVotingApp\\SmartContracts\\16_BombTest\\contracts\\Election.sol",
  "compiler": {
    "name": "solc",
    "version": "0.8.0+commit.c7dfd78e.Emscripten.clang"
  },
  "schemaVersion": "3.4.16",
  "updatedAt": "2024-01-20T20:35:39.398Z",
  "devdoc": {
    "kind": "dev",
    "methods": {},
    "version": 1
  },
  "userdoc": {
    "kind": "user",
    "methods": {},
    "version": 1
  }
}